:10000000807800208111020015A90200551102001C
:1000100055110200551102005511020000000000A8
:10002000000000000000000000000000BD0D020004
:100030005511020000000000690D02005511020078
:100040006D0E0200C3B102006D0E02006D0E0200C3
:100050006D0E02006D0E02006D0E02006D0E0200AC
:1000600071B102006D0E02006D0E0200A9B1020016
:100070006D0E02006D0E02006D0E02006D0E02008C
:100080006D0E02006D0E02006D0E02006D0E02007C
:100090006D0E02006D0E02006D0E02006D0E02006C
:1000A0006D0E02006D0E02006D0E02006D0E02005C
:1000B0006D0E02006D0E02006D0E02006D0E02004C
:1000C0006D0E02006D0E02006D0E02006D0E02003C
:1000D0006D0E02006D0E02006D0E02006D0E02002C
:1000E0006D0E02006D0E02006D0E02006D0E02001C
:1000F0006D0E02006D0E02006D0E02006D0E02000C
:1001000053B94AB9002908BF00281CBF4FF0FF317E
:100110004FF0FF3000F00CB8ADF1080C6DE904CEE3
:1001200018F068FEDDF804E0DDE9022304B0704752
:10013000704700BF2DE9F00791E8F807B2E8021018
:100140005B1854EB0C04B2E802104D4156EB0C0660
:10015000B2E802104F4158EB0C08B2E8021059EB1C
:1001600001095AEB0C0A80E8F80780410130BDE82C
:10017000F00770472DE9F00791E8F807B2E80210A0
:100180005B1A74EB0C04B2E802108D4176EB0C069E
:10019000B2E802108F4178EB0C08B2E8021079EB5C
:1001A00001097AEB0C0A80E8F80780414042BDE87B
:1001B000F00770472DE9F007524290E87800B1E867
:1001C00080071740DB1918EA020854EB080419EA03
:1001D000020955EB09051AEA020A56EB0A0678C02D
:1001E00090E87800B1E8800717407B4118EA0208E0
:1001F00054EB080419EA020955EB09051AEA020A48
:1002000056EB0A0678C080410130BDE8F007704720
:100210002DE9F007524290E87800B1E880071740D6
:10022000DB1B18EA020874EB080419EA020975EBF3
:1002300009051AEA020A76EB0A0678C090E8780007
:10024000B1E880071740BB4118EA020874EB0804C4
:1002500019EA020975EB09051AEA020A76EB0A06A1
:1002600078C080414042BDE8F00770472DE9F001B9
:1002700052424FF0040890E8300091E8C000A31B00
:100280001340E41AF618EB1B1340ED1AFF1830C0A8
:10029000C0C1B8F10108EED1BDE8F001704700BF60
:1002A00000B592E8DC072DE9DC07B1E8805702B41D
:1002B000A7FB02510A95A8FB020BE7FB6310E9FBC1
:1002C00062B00B91A8FB0351EAFB6201E7FB64B546
:1002D000E7FB6605E8FB6615CDF830B0A9FB03B671
:1002E000EAFB6316ECFB6356E8FB640BE9FB641B5B
:1002F000EAFB645BECFB646B0D90ACFB0230059C8D
:10030000EEFB6250E9FB6460EAFB64B0E7FB64313A
:10031000E8FB6451069CE8FB6461E9FB64B1EAFB1D
:1003200064010E93A7FB0432079CE7FB6462E8FBC1
:1003300064B2E9FB6402EAFB6412049CE9FB6453C7
:10034000EAFB6463089CE7FB64B3E8FB6403E9FB36
:100350006413EAFB64230F955DF8049B99E800069B
:10036000DDF80080A9FB0854EAFB68B4DDF81080D2
:10037000ECFB6804EEFB6814E9FB6824EAFB6834D4
:10038000DDF80480EEFB6865E9FB68B5EAFB68050B
:10039000DDF81480ECFB6815EEFB6825E9FB683599
:1003A000EAFB68450F96DDF80880AEFB0876E9FBAE
:1003B0006806EAFB6816DDF81880ECFB6826EEFBA1
:1003C0006836E9FB6846EAFB6856DDF80C80ECFB12
:1003D00068B7EEFB6807E9FB6817EAFB6827DDF8FA
:1003E0001C80ECFB6837EEFB6847E9FB6857EAFBCB
:1003F000686708B000BD00BF2DE9F14F87B0FFF777
:100400004FFFDDF81C8008F1200888E8FF00FFBCE2
:1004100087E87F08BDE8F08F00B591E89857A3FB07
:1004200003520195A3FB0401E3FB6420E3FB671087
:100430000292A3FB0752E3FB6802E4FB6415E3FBB3
:100440006805E3FB69250391A4FB07B6E3FB692676
:10045000E3FB6A56E4FB670BE4FB682BE3FB6A5B98
:10046000E3FB6C6B0490A4FB0810E4FB6950E3FB16
:100470006C60E3FB6EB0E7FB6721E4FB6951E4FBD2
:100480006A61E3FB6EB1E4FB6E010592A7FB0832E3
:10049000E4FB6A62E4FB6CB2E4FB6E02E7FB6E1203
:1004A000E7FB6853E7FB6963E4FB6CB3E7FB6C03B2
:1004B000E7FB6E13E8FB6E230695A7FB0954E7FBE9
:1004C0006AB4E7FB6C04E8FB6C14E8FB6E24E9FB00
:1004D0006E34E8FB6865E7FB6AB5E8FB6A05E8FB94
:1004E0006C15E9FB6C25E9FB6E35EAFB6E4507965A
:1004F000A8FB0976E8FB6A06E9FB6A16E9FB6C26AD
:10050000EAFB6C36EAFB6E46ECFB6E56E8FB69B71D
:10051000E9FB6907E9FB6A17EAFB6A27EAFB6C3724
:10052000ECFB6C47ECFB6E57EEFB6E6700BD00BF4B
:100530002DE9F14F87B0FFF76FFFDDF81C8008F160
:10054000200888E8FF00FFBC87E87F08BDE8F08F3F
:1005500030B44FF0000310F8014B11F8015B013A81
:1005600084EA050443EA0403F5D1A3F101034FEA49
:10057000D37030BC704700BF4FF0000310F8012B60
:10058000013943EA0203F9D1A3F101034FEAD37021
:10059000704700BF30B411F8014B12F8015B6C409A
:1005A00000F8014B013BF6D130BC70472DE9F00754
:1005B00091E8F807B2E802105B1854EB0C04B2E8BB
:1005C00002104D4156EB0C06B2E802104F4158EBB9
:1005D0000C08B2E8021059EB01095AEB0C0A8941E8
:1005E000B3F1FF3374F1FF3475F1FF3576F1000696
:1005F00077F1000778F1000879F101097AF1FF3A03
:1006000051F100015B184C414D4156F1000657F184
:10061000000758F1000859EBD1795AEB010A80E83C
:10062000F807BDE8F00770472DE9F00791E8F807F3
:10063000B2E802105B1A74EB0C04B2E802108D41B0
:1006400076EB0C06B2E802108F4178EB0C08B2E8AA
:10065000021079EB01097AEB0C0A89415B184C41D5
:100660004D4156F1000657F1000758F1000859EBCB
:10067000D1795AEB010A80E8F807BDE8F007704726
:1006800018EB040859EB05095AEB060A5BEB070B5C
:100690005FF0000C4CF1000C18EB050859EB060953
:1006A0005AEB070A5BEB070B50EB0C005FF0000CFA
:1006B00051EB0C0152EB0C0263414CF1000CB8EB16
:1006C000070879F100097AF1000A7BEB040BA841D5
:1006D000B141A241B3416CF1000CBBEB050BB04141
:1006E000B941AA41BB416CF1000C4CF001068CF001
:1006F000020718EB060859EB6C095AEB6C0A7BEB06
:100700006C0B70EB6C0471EB6C0572EB670653EBD2
:100710006C076CEB6C0C18EB0C0059EB0C015AEBF2
:100720000C025BF1000354F1000455F1000556EB97
:10073000DC7657EB0C0770472DE9F14F87B0FFF7D8
:10074000AFFDDDF81080DDF81490DDF818A0FFF79C
:1007500097FFBDE8000FFFF793FF03B05DF8048B30
:1007600088E8FF00BDE8F08F2DE9F14F87B0FFF773
:1007700053FEDDF81080DDF81490DDF818A0FFF7C7
:100780007FFFBDE8000FFFF77BFF03B05DF8048B30
:1007900088E8FF00BDE8F08F1FB51A4C207A8DF86D
:1007A0000100E0798DF80000A079ADF804006079CF
:1007B000ADF80200684611F0A9FC08B1AD211CE0BB
:1007C000E068029002A811F0B7FC08B1B12114E072
:1007D0000D480068039003A81CF04DFE08B1B52138
:1007E0000BE0A07E11F0DAFC08B1BE2105E0607ECE
:1007F00011F0CEFC002803D0BF21032000F05EFAE8
:100800001FBD000008100020500E00003EB5044639
:100810000068C01D20F007002060002000900190BB
:10082000029008788DF8010048788DF802008878E9
:100830008DF80300C8788DF8040008798DF805005C
:10084000C87D8DF80600487F8DF80800887F8DF8F8
:100850000900C87F8DF80A0091F820008DF80B0080
:100860000848407910B108798DF807000AB10020D6
:1008700000E02068694601F03DF9216808442060E5
:100880003EBD000040000020F8B5044688781646BA
:100890000D4688B12068C01C20F003002060E97D6F
:1008A000EA786B8A1144CAB2A97806B1002001F037
:1008B00029FC216808442060654FF87898B1287CAD
:1008C00088B1387908B1FF2200E025222068C01CD9
:1008D00020F003002060297C06B1002001F0A6FC76
:1008E000216808442060287D90B1A87818B9F8786C
:1008F00070B1287C60B12068C01D20F00700206026
:10090000297D06B1002004F05FFF216808442060C3
:100910005048036873B1287960B12068C01C20F08A
:10092000030020606A7D297906B10020984721687C
:1009300008442060484802686AB1A87D58B1206820
:10094000C01C20F003002060A97D06B10020904764
:100950002168084420604148D0F800C0BCF1000F75
:1009600011D0E87D78B12068C01C20F00300206021
:10097000A97E00916B7E2A7EE97D06B10020E047CA
:10098000216808442060787978B1287968B12068B6
:10099000C01C20F0030020602A7F297906B10020C6
:1009A00001F06AFC21680844206095F82100B8B184
:1009B0002068C01D20F0070020605EB195F821106E
:1009C0005FF000004FF4887219F0ACF82168084419
:1009D000206009E014F086FA95F821102068F1E70C
:1009E00016B9002014F07EFA95F8220038B320687A
:1009F000C01D20F00700206095F8221006B10020ED
:100A0000FF2219F08FF8276833463844C01C20F0C5
:100A1000030040F004022260A97F012001F05EFC87
:100A20002168002E0844206010D1384614F060FA86
:100A300095F82200BDE8F840FB2114F05FBA002EC3
:100A400004D1BDE8F840002014F052BAF8BD00000F
:100A5000400000204C0000205400002050000020E6
:100A600010B528B1142204491EF041F8002010BD31
:100A70006FF0150010BD0000780E00002DE9F04168
:100A80006FF02C06002871D1474C607810B1B0117E
:100A9000BDE8F081002976D06FF01500002AF7D06C
:100AA000424B11299D7879D2DFE801F078090C0FCB
:100AB0001F224A5269285558642D323F450010784C
:100AC000187060E0107858705DE091780029DFD0F0
:100AD000D1780029DCD011781B29D9D351781B2972
:100AE000D6D31068C3F805004DE01068D8604AE01E
:100AF0001178DA789142CBD3997044E01178A94209
:100B0000C6D8D9703FE01178A942C1D8D9753AE06A
:100B100011780029BCD05178F929B9D80029B7D06B
:100B200010881883907898762DE01078D876107811
:100B300012F00AFA27E011780029A9D0197722E0EB
:100B4000E17811B111780229A2D3107818741AE053
:100B50001088588217E01078187114E06179002924
:100B6000117804D0002993D059750CE016E00229C1
:100B70008ED3F9E7117808298AD8997503E011888E
:100B8000FF2985D8197501220849002018F082FA3A
:100B9000B0F5803F04DB6FF00B0079E7304677E774
:100BA0000121A17074E7000040000020081000201F
:100BB00010B5074C607820B112F05AF8207817F081
:100BC0006BFF01F0E9FB01F0C1FC0020607010BD7B
:100BD0004000002070B50C46050002D00CB1600743
:100BE00002D06FF0150070BD00F06CF9A8B1284676
:100BF00017F018FF0A4D00220A492870204618F005
:100C000049FA1DF037FD0021287812F00DF8FFF7A2
:100C1000C3FD01206870002070BD4FF0FF3070BD33
:100C2000400000200810002030B589B005000CD02D
:100C300017F0A0FE4FF0FF3420B117F033FDB0F5F0
:100C4000FA7F05D9204609B030BD6FF01500FAE7EC
:100C5000154C1648A56000F0F7FD00206070A070EC
:100C6000E070207160710146242268461DF0B9FFD2
:100C700024220F4968461DF03AFF242269460D4898
:100C80001DF035FFEFF3108472B601F093FB0A48B4
:100C900001F068FC18B1CB21032000F00FF804B973
:100CA00062B60020CFE70000400000209907000056
:100CB000540E000008100020F10E00000EB572B6B0
:100CC000154A9568DDB1002203466E460A2403E00A
:100CD000B0FBF4F0521CD2B20028F9D1B0540AE0B3
:100CE000D8B2B0FBF4F7B3FBF4F304FB1700521EC9
:100CF000D2B23030B054002AF2D13046A847BFF308
:100D00004F8F06480168064A01F4E0611143016013
:100D1000BFF34F8F00BFFDE7400000200CED00E067
:100D20000400FA05064810B581784078014302D0E6
:100D30004FF0FF3010BD11F0C7FF002010BD0000C4
:100D40004000002010B5094CA0786178084302D01B
:100D50004FF0FF3010BD207910B111F09BFF01E082
:100D600011F0C4FF0120E070002010BD4000002001
:100D7000064810B581784078014302D04FF0FF302B
:100D800010BD11F0DBFA002010BD00004000002073
:100D9000064810B581784078014302D04FF0FF300B
:100DA00010BD11F039FB002010BD000040000020F4
:100DB000064810B581784078014302D04FF0FF30EB
:100DC00010BD1CF0BAFD002010BD00004000002046
:100DD000064810B581784078014302D04FF0FF30CB
:100DE00010BD1CF0ADFD002010BD00004000002033
:100DF000064810B581784078014302D04FF0FF30AB
:100E000010BD11F08DFF002010BD0000400000203B
:100E1000064810B581784078014302D04FF0FF308A
:100E200010BD1CF0B1FD002010BD000040000020EE
:100E3000064810B581784078014302D04FF0FF306A
:100E400010BD1CF0B7FD002010BD000040000020C8
:100E50000100000001010100001B1B030200000053
:100E60004C1D000003001F000802000001490000A3
:100E70000100000000000000E07E2EC15E05852319
:100E80004615DCFA8E297D701093A5FC054A10B535
:100E9000526812B1BDE81040104792210420FFF7BC
:100EA0000DFF00002C100020054A10B5926812B109
:100EB000BDE81040104798210420FFF7FFFE000016
:100EC0002C1000200548016829B1416819B18068DB
:100ED00008B1012070470020704700002C1000204E
:100EE00002490DC881E80D00002070472C10002039
:100EF000F8B5124C0026256811E00098022802D0AF
:100F000003280CD106E0206810B10020266005E01F
:100F100028210CE0206868B101202660A8476846B7
:100F200001F0E6FA0028E8D0052805D03521042094
:100F3000FFF7C4FE2D21FAE7F8BD0000580000209D
:100F40002DE9FC41334E0546001D06F584773060DF
:100F5000387858B1BA783C46791C2846921C1DF066
:100F6000C6FD002020700420BDE8FC81294803F064
:100F7000B7FB0446022804D0042C07D0082C42D02A
:100F800045E02449284618F0DDF840E030780A288A
:100F900002D0262815D10FE005213E2000F03EF8B2
:100FA00078B9B088ADF8000001A9684618F039FAA0
:100FB0000028CDD0A8210CE01A213E2000F02EF808
:100FC00050B11449284600F04DF8B0F5817F11D397
:100FD000C7210820FFF772FE0F4801A900680090A2
:100FE000F088ADF80000684618F039FA0028AFD054
:100FF000BA21EEE70028ABD0A978287800F00EF8E7
:101000000028A5D003E00349284618F0C9F8204677
:10101000AAE70000381000206010000070B50C46F0
:10102000054600F0B3FB002802D03E2D01D0012080
:1010300070BD122C06D106480178022902D04078F2
:101040000028F5D02046BDE8704000F0B1BB00009C
:10105000D80500200149487070470000D8050020DD
:10106000000011002DE9F84F044691F800C00D462C
:1010700000203E26A21CE31CFF274FF010094FF072
:10108000030E4FF01A0B04F10D014FF0120ABCF1E0
:10109000320F75D2DFE80CF074334B4E52FD74AD55
:1010A000B6C4FEFBFAF9F8F7F61974757492F5F404
:1010B000F3F274F174F0EFEEED74ECEBEAE9E8E7CB
:1010C000E6E5E4E3E2E1E0DF74DE0E20207068791B
:1010D000E070B5F80500000A20712879A070B5F815
:1010E00005008338B0F5005F03D03621C720FFF735
:1010F000E5FD7246E91D601D1DF0F9FCFEE20C20C5
:1011000020702879A0706879E070B5F80500000AB1
:101110002071E8796071287AA0712889000AE0714D
:10112000A87A20726889000A607208207FE284F839
:10113000009001E084F800B028793AE1267002209E
:10114000A07015F8040FE070A87A207168786071BB
:10115000D5F80200C4F80600E8886081287A207378
:101160002E7A1F2E00D31F260846324605F10B01AA
:101170001DF0BDFC0D36697AA155761EF0B254E221
:1011800058E226700B20A0702879E07068792071F1
:10119000A8796071D5F80700C4F80600B5F80B000F
:1011A0006081687B2073D5F80E00C4F80D00688A52
:1011B000A4F81100287DE074504638E2292000F0A0
:1011C000F7FA48B126702920A0702122291DE01CC1
:1011D0001DF08DFC22202AE20A2000F0E9FA002806
:1011E0002946204602D018F03BF81EE218F00FF80E
:1011F0001BE226701420A0702879E070A888000AED
:10120000207157E13E20207004201070686818603B
:10121000A8685860A8891881A87B98720C2006E2FB
:10122000267084F802E02879E070A8792071E888B7
:10123000000A6071287AA0712889000AE071A87AF2
:1012400020726889000A6072287BA072A889000A4F
:10125000E07245E254E227E208E233E242E2FAE1D8
:10126000EAE1C5E1B9E1EFE1A5E14EE124E11BE1ED
:101270000DE1F5E0F1E0E9E0BFE0ADE097E09BE0F3
:1012800042E03EE053E04DE031E025E018E015E0BB
:1012900000E055E026700520A0702879E070A8884D
:1012A000000A2071D5F80600C4F80500D5F80A0038
:1012B000C4F80900E889A4F80D0036E2112037E0EF
:1012C000052020702879A0706879E070B5F80500D5
:1012D000000A2071E879C6E1082020702879A07002
:1012E000A879E070E888000A2071287ABBE13020F4
:1012F00020702879A070A879E070E888000A207131
:10130000A0E126700720B3E126700C20A070287998
:10131000E070A8792071E888000A6071287AA071CD
:10132000687A56E0291D204600F002FA7DE1572038
:1013300020702879A070A888000AE070022076E169
:1013400026700D22A2702A79E270EA89A2806A7959
:10135000A271D5F80620C4F807206A89A4F80B20EA
:101360002A7C20466273291D6A7C82738A7BC27341
:101370008A7E02744A7A4274B1F81120ADF80020D6
:101380004282CA7C02754A69C0F815200A8BA0F80F
:1013900019200A7AC2760D7AE52D00D3E5252A4672
:1013A0001C301C311DF0A3FB1A35E8B23DE126705C
:1013B0001120A07001203AE1267084F802A028795B
:1013C000E07068792071A8796071E888000AA071DE
:1013D000287AE07106202AE12670242000F0E8F93E
:1013E00008B124205DE00E20A0700F263246291D92
:1013F000E01C1DF07CFB701C17E12670252000F01E
:10140000D7F940B12520A0700A263246291DE01CDC
:101410001DF06DFB0FE00F20A070A988A4F8031049
:10142000A9796171E979A171297AE171297B217228
:10143000697B61720726A0196A7B05F10E01C01C49
:101440001DF055FB687B761C3044EEE0267084F876
:101450000290A888A4F80300F4E02670202025E17B
:1014600026702120A0702879E07068792071B5F885
:101470000500000A6071E879A071287AE071687A45
:101480002072A87A6072E87AA0720920CFE02670F4
:10149000262000F08DF918B12620A0701726A5E7A8
:1014A0001820A0701326A1E726702720A070A88816
:1014B000A4F80300A879D6E026702820A0706968F7
:1014C000002604F10308C4F80310304615E000BFFD
:1014D00008EB0600A919071D51F8080F3860888825
:1014E000B8807A79B81D891D1DF001FB7879B61D89
:1014F000304486B209F10100C0B298F80310814669
:101500004945E5D8761DB0B28FE026701920A0704D
:101510002879E07068792071B5F80500000A6071DB
:10152000E888000AA071D5F80600000CE071D5F833
:101530000600000E2072B5F80900000A6072D5F8A6
:101540000900000CA072D5F80900000EE072A8890D
:10155000000A2073E868000C6073E868000EA0734E
:10156000B5F80F00000AE073D5F80F00000C2074E6
:10157000D5F80F00000E6074E87CA074287DE0743C
:10158000687D2075A87D6075E87DA075287EE07572
:10159000687E2076A87E6076688B000AA076287F19
:1015A000E076A88B000A2077A87F6077E88B000A96
:1015B000A0771D203BE0267084F802B02879E07007
:1015C000A888000A2071A8796071E888000AA071D3
:1015D000287AE071687A207290E018463E232370E2
:1015E00022231370291D13221DF081FA14201EE0FE
:1015F0003E2020701D2010701E462D1D0E222946F3
:1016000030461DF074FA0021084609E005EB40025F
:1016100006EB4003891CD289401CDA8189B2C0B232
:101620006A7B8242F2D80F3188B2002802D0607003
:10163000801C80B2BDE8F88F3E2020701E20107004
:10164000A88818800320F2E73E2020701F20107029
:101650006868186034E02770A120A0702879E070D5
:1016600068792071002060710420E0E72770A220D3
:10167000A0702879E070A888000A2071A8796071AC
:10168000E888000AA071287AE0712889000A20728F
:10169000A87A60726889000AA072287BE072A88923
:1016A000000A20730B20C2E72770A320A0702879BE
:1016B000E070A888000A2071A8796071E879A071AB
:1016C0000520B4E726701320A0702879E0706879AF
:1016D0002071D5F80600C4F805006889A4F809004F
:1016E0000A20A4E72770A420A0702879E070A888B9
:1016F000000A2071A8796071E879A071072096E747
:1017000027708020A070A988A4F80310E988A4F8A5
:101710000510297AE17169892181A9896181E989A5
:10172000A181297C01F00101A1730D207FE7000058
:1017300070B50A7882703AB3012A25D81323037052
:1017400000230AE001EB430400EB4305A678EE70AA
:101750006488240A5B1C2C71DBB29342F2D3002311
:101760000BE000BF01EB430500EB43042E796671EB
:10177000AD882D0A5B1CA571DBB29342F2D3012127
:1017800001EB8200C0B270BD002070BD402803D2C2
:10179000401EC1B2054805E0FF2805D04038C1B25F
:1017A0000248083017F090BD012070475C0000200F
:1017B000401EC1B2014817F087BD00006C00002038
:1017C000024902680A614068486170475C00002075
:1017D000054902680A60406842F48C220A60034AA4
:1017E00010434860704700005C000020F80740028A
:1017F000024902688A604068C86070475C00002047
:1018000007484FF0FF3100220160C90C416000F130
:1018100008011F200A604A600831C1E900027047D0
:101820005C00002010B5FFF7EBFF0020FFF712FC73
:101830001BF0E2FF04460348006800B180472046E1
:1018400010BD0000740000200149086070470000CE
:10185000740000202DE9F04104464FF08050D0F88C
:10186000A0701F4D1E4E103D1022002120461DF07D
:10187000B8F91022002104F110001DF0B2F9286817
:10188000401C08D16868401C05D1A868401C02D1E2
:10189000E868401C07D028686A68A968EB6820617E
:1018A0006261A161E361002000F044FF8743F80713
:1018B00013D13068401C08D17068401C05D1B06855
:1018C000401C02D1F068401C07D032687068B168D3
:1018D000F36822606060A160E3600020BDE8F081F1
:1018E0009000001038B54FF0805104462248D1F8DE
:1018F000A010214D0268143D521C04D14268D2430D
:101900001204120C35D0C90733D001684068ADF815
:101910000000C4F80110BDF80000A4F80500A0798B
:1019200040F0C000A0712868401C0CD06868401CC2
:1019300009D0A868401C06D0E868401C03D00020ED
:1019400000F0F8FE40B110220021E01D1DF049F921
:1019500001202070002038BD2A686968A868EB68FB
:10196000C4F80720C4F80B10C4F80F00C4F81330F3
:10197000EEE70020EDE70000A40000100221018046
:10198000418000210171E021417142F67E61C180F8
:101990000149816000207047C15E05852DE9F04155
:1019A0008F79DDF818E0082F01D9DB212CE0DFF872
:1019B000A4C05CF820400CB1DC2125E0CC79002CDF
:1019C00045D064001D680A346619022F01D93D46CE
:1019D00001E04FF002052E44A6F1010601D93D4673
:1019E00001E04FF00205A5F1010526EA05068D8804
:1019F0003D44A5F10105A7F1010725EA07054FF6CA
:101A0000FF77BD4203D3E7211720FFF757F9BEF157
:101A1000000F18D1341B4CF820402580C879A070E5
:101A20000120E070227108684FF6F072000CE0802F
:101A300008882081002003E004EB4007401C7A81E5
:101A4000CF798742F8D8C87900FB05601860BDE8F7
:101A5000F08100004412002070B50546194850F886
:101A6000214064B3B5F5706F04D340F225211720EF
:101A7000FFF724F92946204617F0BEFF0146FF284C
:101A800004D02046BDE8704017F0DDBFA078B5FB5C
:101A9000F0F100FB1150C6B232464FF6F07120460D
:101AA00017F0BEFF0246FF2809D0B24201D0002045
:101AB000E07029462046BDE8704017F097BF00202F
:101AC00070BD0000441200200246094810B550F8CD
:101AD00021401146204617F08FFF0146FF2804D011
:101AE0002046BDE8104017F0AEBF002010BD00003A
:101AF000441200202DE9F0410C46064689786078B2
:101B000086B00144FF2902D94FF482710CE021789C
:101B1000814202D94FF4847106E004963EB100255B
:101B2000700706D040F219111720FFF7C7F80125FA
:101B3000F6E74FF000082C22414666481DF051F8A8
:101B4000654F6378D7E90002B96863F31F620391B8
:101B50000095CDE9010204AB424601A90020FFF740
:101B60001DFFD7E90302A37894F80180796963F334
:101B70001F6203910095CDE9010204AB424601A921
:101B80000120FFF70BFFA178E37801EB080000F0DC
:101B9000FF08D7E90602396A63F31F6203910095D3
:101BA000CDE9010204AB002201A90220FFF7F6FEF5
:101BB000D7E909022379F96A63F31F62039100955B
:101BC000CDE9010204AB002201A90320FFF7E6FEE4
:101BD000D7E90C026379B96B63F31F620391009537
:101BE000CDE9010204AB002201A90420FFF7D6FED3
:101BF000D7E90F10A3797A6C63F31F600392CDE9E4
:101C00000110A07918B111F095F9ADF8080004ABF6
:101C1000002201A905200095FFF7C0FED7E91210A8
:101C2000E3793A6D63F31F60CDE90202CDE900511B
:101C300004AB002201A90620FFF7B0FED7E915107A
:101C4000237AFA6D63F31F60CDE90202CDE90051FA
:101C500004AB002201A90720FFF7A0FED7E9181066
:101C6000637ABA6E63F31F60CDE90202CDE90051D9
:101C700004AB424601A90820FFF790FE617AA37ADF
:101C800001EB080000F0FF08D7E91C01FA6E63F3CE
:101C90001F6003910095CDE9012004AB002201A94A
:101CA0000920FFF77BFE7837E37A97E8070063F3B4
:101CB0001F610DF1040C00958CE8070004AB42464F
:101CC00001A90A20FFF76AFE049806B0801BBDE850
:101CD000F081000044120020C81D000010B5044629
:101CE00080790E4951F82000A8B14FF6F073E179E0
:101CF000827891420FD24A1CE27100EB4102528974
:101D00009A42F4D000EB41025289A28017F09BFE68
:101D10002060002010BD052010BD000044120020EE
:101D20002DE9F04107464FF6FF703880124850F811
:101D30002140ECB1A5782079B0FBF5F105FB110647
:101D400032464FF6F071204617F06AFE0246FF2831
:101D50000ED0A81B1044B0FBF5F105FB1100217952
:101D6000084481B239802046BDE8F04117F03EBEFC
:101D70000020BDE8F0810000441200202DE9F04170
:101D80000746104850F821503946284617F034FECF
:101D90000446FF2812D0D5F8060021464FEA304607
:101DA000284617F050FE01463846B04705EB44017F
:101DB0004FF6F07048810020BDE8F08143F2020048
:101DC000FAE7000044120020A3C2010088030800C3
:101DD00000000000C1BD0100180408000000000060
:101DE000A7B40100600108000000000005E5010043
:101DF0009000080000000000552F0100A800080016
:101E0000000000001DE601000000080000000000C6
:101E100021E601008000080000000000FFC601006C
:101E2000700008000000000087C501006001080084
:101E30000000000079C90100E8000800000000006F
:101E4000BDC9010098000800000000002DE9FF4F07
:101E5000244C064681B020689A46934658B1017AD0
:101E6000B14203D9406850F8260040B143F2020065
:101E700005B0BDE8F08FA5211820FEF71FFF194619
:101E8000029817F01AFE804658460E9917F00BFE7E
:101E9000054608EB0500001D87B22068A1463946BB
:101EA000006817F03EFD04001AD06780258029469F
:101EB000201D0E9D07465A460923009517F0A7FCE2
:101EC0002088414638440A23029ACDF800A017F032
:101ED0009EFCD9F80000406840F826400020C7E783
:101EE0000420C5E77800002070B5144C23688BB13E
:101EF000197A814212D95A6852F8201071B100251E
:101F000042F820504A88186817F063FD21680020C5
:101F10000A7A0CE0C6211820FEF7D0FE43F2020038
:101F200070BD4B6853F8203033B9401CC0B28242B8
:101F3000F7D8086817F042FD002070BD7800002037
:101F40002DE9F0410D46040090464FF0000606D002
:101F50000027A00705D086211820FEF7AFFE012735
:101F6000F7E7CDB11146002017F00CFD0C3000EB67
:101F700085068FB90A4F04F10C00AA003C60257257
:101F8000606000EB85002060002160681CF029FE85
:101F90004146386817F0F6FC3046BDE8F081000095
:101FA0007800002070B5084D286800280AD0002469
:101FB00004E02046FFF798FF641CE4B22868007A2A
:101FC000A042F6D870BD000078000020094910B585
:101FD00002460968002049B10B7A934205D9496845
:101FE00051F82210002900D0081D10BDEC21182046
:101FF000FEF764FE780000200A4910B50246096821
:10200000002059B10B7A934207D9496851F8221040
:10201000002902D031F8040B084410BDFA21182021
:10202000FEF74CFE78000020FEB506464418C8189E
:1020300000210DE05EB1009101910291E51800953B
:102040002560019F67609DF8087027722C46184430
:10205000521E1204120CEDD1002E11D000910191EC
:10206000029108490A6800924A680192097A8DF83B
:10207000081000992160019961609DF80810217293
:10208000FEBD00004CED01002DE9F0411C4E4568FD
:1020900004460022A1B101206070708883080020EE
:1020A00004EB400104EB80060A830B8400FB035120
:1020B00071602118401C0A750428F1D3BDE8F08135
:1020C0006270002004EB40010A830A8404EB800163
:1020D0004A602118401C0A750428F3D3708817F051
:1020E000B1FD0746708817F0B4FD6560208429189B
:1020F000A1606784E560A0842161E784DEE70000D9
:102100007C0000202DE9F04768B100261144DFF87B
:102110009C80CFB2002488F80070810705D04E2142
:102120000920FEF7CBFD0126F0E71F2B04D84FF660
:10213000FF7101EA830509E05900FF2B0CD903F177
:10214000FF02B2EB430F00D211468DB24FF6FC7185
:10215000ED1C0D4036B109E07C22B2EB430FF4D305
:102160007C21F2E7C8F80400A8F8025007EB8701C9
:1021700004EBC10200214FF001090FE05EB9D8F86D
:10218000044001EB810300EB020C04F8339004EBF4
:10219000C303C3F804C0491C2A44C9B2B942EDD3F1
:1021A000D21D22F00700BDE8F08700007C0000206F
:1021B00070B511480024214602780CE0456801EB17
:1021C000810315F8333023B101EB810105EBC10424
:1021D00003E0491CC9B29142F0D344B10025A57077
:1021E00001212046FFF750FF2570204670BDA92130
:1021F0000920FEF763FD00007C000020044810B5B4
:102200004088840817F025FD844200D3204610BD85
:102210007C000020014840787047000084000020C6
:102220000148406870470000840000202DE9F84311
:102230000C46074616462E2110460D46224617F03C
:102240002FFB804657B13846414632462B46009414
:1022500017F0DDFA03484760047046704046BDE859
:10226000F88300008400002002484278017840682A
:10227000FFF7DCBF840000202DE9F8430F46044639
:102280001646F720052117F00BFB4FF6FC71C01C1A
:1022900000EA0105DCB1A00703D095211920FEF763
:1022A0000DFD0D4880460460858000240DE0B8F8DF
:1022B0000400D8F80010F72204FB0010294605237B
:1022C000009617F0A4FA641CA4B2BC42EFD307FB3B
:1022D00005F0BDE8F88300008C0000207FB50546BE
:1022E00002980E461C46410701D0800703D01F21EB
:1022F0004C20FEF7E3FC4FF488722946002017F0CB
:1023000011FC06FB00F10CB1002000E002A817F060
:1023100039FB002C03D103490D70029A4A6004B0C6
:1023200070BD00009400002070B5074C05464FF4C6
:1023300088722178002017F0F5FB02462946606874
:10234000BDE8704017F045BB9400002030B50D4942
:1023500001204860821EC1F808230B4988600023D1
:10236000C1F80032C1F80823084C2360251D2860FD
:102370008860C1F808232360286006490448086083
:1023800030BD000000E0004000F0004000F50040DB
:102390000000F63F08F5014010B5FFF7D7FF17F032
:1023A00031FD03490148086010BD00000000F63F00
:1023B00008F5014010B5FFF7C9FF17F023FD00F045
:1023C00087F805490348086000F0B8F8BDE81040F8
:1023D00000F0DCB80000F63F08F501402DE9F84FA9
:1023E000824638481CF080FADFF8D8B028B10126C0
:1023F0000BF10100FF21017000E000264FF4807511
:10240000314C4FF000082F1D01216160C4F800819C
:10241000C4F80481C4F804A52160DFF8B0901CE082
:10242000D9F80000C00618D50E2017F0FAFCEFF31B
:102430001080009072B603212046C4F80413294688
:1024400017F0FCFC30B93946204617F0F7FC08B904
:102450001CF0E1FA009800B962B62946204617F050
:10246000EDFC28B93946204617F0E8FC0028D7D003
:102470003946204617F0E2FC0028C5D106BB9BF880
:1024800001108DF80010009900919DF8001009B11D
:10249000012500E000250BF1010080F800800320F9
:1024A000C4F80803C4F80481C4F800810E2017F0B2
:1024B000B8FC04481CF02FFA15B11120BDE8F88FC4
:1024C0000020FBE7DA05002000E0004010ED00E00E
:1024D00010B506481CF01BFA18B130211D20FEF77C
:1024E000EDFB02480021417010BD0000DA0500201C
:1024F00070B511490A68EAB100231D4601244A68F3
:10250000521C4A60092A00D34D600E7904FA06F283
:102510000E6816420BD0EFF3108372B60C6894432A
:102520000C6003B962B649680160002070BD5B1C95
:10253000092BE4D3052070BD9C0000200248002137
:1025400001604160704700009C00002010B5044C01
:102550002078FF2803D016F09FFAFF20207010BDCE
:102560000000002010B5084C617809B10F2010BDA3
:1025700016F058FA2070FF2801D0002010BD7321FA
:102580001F20FEF79BFB00000000002001490020F7
:10259000487070470000002005498A8E824218BFAB
:1025A0007047002081F832004FF6FF708886704730
:1025B000881300200648074A818E5288914205D12F
:1025C00090F8320000281CBF00207047012070479F
:1025D00088130020CC050020014948807047000086
:1025E000CC0500200848094A818E5288914209D1C1
:1025F0004FF6FF71818610F8321F19B1002101706A
:10260000012070470020704788130020CC0500206F
:10261000074901F1320091F83220012A04BF00205D
:102620007047012202700348008888861046704770
:1026300088130020CC0500200749084B8A8E5B8850
:102640009A4206D191F83220002A1EBF0160012073
:10265000704700207047000088130020CC05002040
:1026600009498A8EA2F57F43FF3B03D00021016018
:102670000846704791F832200349012A1ABF0160C9
:1026800001200020704700008813002001490880C5
:1026900070470000CC0500200549002081F8320079
:1026A0004FF6FF7088860349088048807047000015
:1026B00088130020CC0500200549002081F8320055
:1026C0004FF6FF70888603490880488070470000F5
:1026D00088130020CC0500200A4A10B1012807D039
:1026E0000EE0507860B1D2F802000860D08804E0B3
:1026F000107828B190680860908988800120704720
:1027000000207047DC050020094A012340B1012860
:1027100018BF704713700868906088889081704770
:1027200053700868C2F802008888D08070470000A3
:10273000DC050020064910B1012803D006E04878E6
:1027400010B903E0087808B10120704700207047F5
:10275000DC0500200149087770470000E2090020ED
:102760000148807870470000A40000200148C0782C
:1027700070470000A400002070B5094C06460D46C5
:10278000207818B1D0212720FEF798FA05490020BB
:1027900008770121044818F0A7FAC4E90B6570BD59
:1027A000A4000020E2090020B00900200149012016
:1027B00048717047A40000202DE9F84FFE4DDDF868
:1027C00028C02C78002C6CD1002A1CBF002BBCF137
:1027D000000F66D0C5F81CC0C5E90F014FF0000915
:1027E000C5E9052385F8059085F8049085F80290E1
:1027F00085F8019085F80390DFF8C083A5F80C9068
:10280000A5F80E90D8F8040000F1A806044611F0CF
:10281000B3FA10F07FFD94F9720011F049FB206AC1
:1028200011F070FDA06911F063FD96F8330011F00E
:10283000A3FD98F80000002838D0042016F012FA02
:10284000616941F64C50814228BF962003D2012095
:1028500011F036FD4D2011F0A1F9D8F8040090F8E0
:102860000803002818BF11F089F994F86F100120AF
:1028700010F0C8FF002808BFBDE8F88FD04811F05D
:102880000BF92088FFF7B8FB68632088FFF79EFBF1
:10289000A86394F87B008DF800009DF8000080BBD1
:1028A0001DE040F245112720FEF708FA032016F03C
:1028B000D9F9616941F64C50814228BF962003D274
:1028C000012011F0FDFC4D2011F068F994F86E1014
:1028D000002010F097FF0028D0D1BDE8F88F606F7E
:1028E00078B1B6F84A00B18A88420AD1B4F87810B3
:1028F00001220844A6F84A0094F87A00616F14F0A7
:1029000053FE06F18800DFF8BCA20FC88AE80F006A
:10291000D6F89800CAF81900D6F89C00CAF81D002D
:10292000D8F80400012700F1A80290F8C510262964
:102930001EBF272992F81EC0BCF1260F0BD04FF006
:1029400008024FF00203212918BF22292ED0BCF122
:10295000240F52D081E098F80010002990F86E10F2
:1029600013D090F8E60300287BD0082918BF04296B
:1029700070D0082818BF04286CD0012918BF01287E
:1029800057D000BF4FF002016BE090F842030028DF
:1029900067D0082918BF04295CD0082818BF04286C
:1029A00058D0012918BF012843D0EBE7BCF1240F10
:1029B00023D098F80010E9B390F86E1090F86E01EB
:1029C00010F0040F18BF10460CD0082918BF0429B6
:1029D00040D0082818BF04283CD0012918BF01287E
:1029E00027D0CFE710F0010F18BF3846EDD110F017
:1029F000020F18BF1846E8D133E098F80010C9B1AB
:102A000090F86E1090F86EC190F867000CEA000024
:102A100010F0040F18BF104610D0082918BF042961
:102A200018D0082818BF042814D0012918BF01287D
:102A3000A8D100E011E04FF0010112E010F0010F09
:102A400018BF3846E9D110F0020F18BF1846E4D17C
:102A500007E0FFE74FF0080103E090F86E1004294B
:102A6000F8D0A08F11F00C0F18BF4FF4296017F0A9
:102A700092FB218F814238BF08464F49887194F8F4
:102A80006F1011F00C0F14BF4FF42960B4F842001E
:102A900096F823B0B4F84050082937D017F07BFBE4
:102AA000BBF1000F04BF001D80B2854238BF28462D
:102AB000C5B2DFF804B18BF8075002F0C7F810B1C7
:102AC0002B2D98BF2B252A468BF8085098F800002C
:102AD00000B396F82300E8B38AF81870D6E920010D
:102AE000CAE9040194F86F100120012908BF0023EE
:102AF00043D0022908BF01233FD0042908BF032384
:102B00003BD0082908BF022337D027E0042117F063
:102B100042FBC5E796F8220058B38AF81870D6E948
:102B20001E01CAE90401616941F64C5081422CBF83
:102B30000020042094F86E10012908BF002312D051
:102B4000022908BF01230ED0042908BF03230AD09D
:102B5000082900E016E008BF022304D040F221411A
:102B60000620FEF7ABF8FB221649CDF8009010F0D6
:102B7000D5FA012000F02EFC07E01249CDF80090B4
:102B800010F0CCFA012000F0C7FB0F4800680328C2
:102B900018BF0B281ED0CAF85A90CAF85E90CAF81F
:102BA0006290AAF866900948B18A41802188018024
:102BB00096F8331001710BE0A4000020E000002023
:102BC000DC3500008809002050150040E209002093
:102BD000BDE8F88F40F202214FF02700FEF76EF8B3
:102BE0002DE9F041204D06460F461E48696A82B025
:102BF000406891F8018000F1A80416F0020F15D08A
:102C0000A86A48B36A89D21C1BF071FFA86A68627F
:102C100001AA6946A86B16F068FD009816F0FFFC43
:102C2000386001224146A86B16F0B0FC16F0010F87
:102C300004BF02B0BDE8F081D4E92002411C42F19A
:102C40000000C4E92010207E01280CBF00200120D4
:102C5000207602B0BDE8F08140F25C412720FEF70B
:102C60002DF80000E0000020A40000200248C089E8
:102C7000C0F3802070470000A400002004480078C2
:102C800000281CBF0C2070470020024908777047BD
:102C9000A4000020E209002038B51A48017800F1AC
:102CA0003C0449B12178007849B102280ED040F2A5
:102CB0001E212720FEF702F800F08EFA0BE0012813
:102CC00009D040F21A212720FDF7F8FF6068D0F8FC
:102CD000200310F0F7FE606890F87B108DF800106C
:102CE0009DF80010002918BF38BD416F002908BFAA
:102CF00038BD90F87A00BDE838400022114614F043
:102D000053BC0000A400002000204870312008704F
:102D10000548826E4A60C26E8A60026FCA60B0F86F
:102D2000740008827047000088090020012984BFD0
:102D30000120704770B51B4C0546A16988470028E3
:102D40002CD0207950BB04F13C000178002908BF49
:102D5000012D01D021B31DBB1348027812F0100FD2
:102D600006D1E06A007810F0100F08BF012001D0F2
:102D70004FF00000A36A23B9638913B112F0100F5A
:102D80000CD000291CBF217B11F0020F03D0216A57
:102D9000C978022904D0A189084301D0012070BD5F
:102DA000002070BDA4000020B40000202DE9F34FE6
:102DB000DFF8008383468BB0D8F804004FF0000A98
:102DC000A8F13C0400F1A8078DF814A0CDF818A0D4
:102DD00020785646D146022804D040F2DF41272011
:102DE000FDF76CFFA07B10F0400F07D14020626917
:102DF00000219047E08940F04000E08197F82300EF
:102E0000BBF1000F00F0D380A0B110F0C1FA10F0B8
:102E10009BFA78B9606A417861B10078397EC0F375
:102E2000C000884206D10120607000F0D5F90DB0D5
:102E3000BDE8F08F606A41786181002908BFA66211
:102E400003D0A06B16F03AFDA062E08940F48070D8
:102E5000E081606AF97D0078C0F38000884208BF95
:102E60004FF0010A47D0D8F8040006A900F1A805E0
:102E700090F8BE0000283AD002280BD1606B16F003
:102E80005DFB00284BD0D5E91E01401C41F100013B
:102E9000C5E91E01AE7598F8000000281CBFA87C8B
:102EA000002809D0AE74A289314642F01002A281F6
:102EB00062694FF010009047687C90B16E74FFF724
:102EC00091FB90B3A289082042F00802A2816269B6
:102ED00000219047D5E91E02411C42F10000C5E9DE
:102EE0001E10E87D01280EBFEE750120E875E0890F
:102EF00040F48060E081606A397E0078C0F3C000F1
:102F0000884222D101F0A2FEB8B1616AE0790A7864
:102F100002F00302012A18BF022A0BD00DE040F292
:102F2000DA314FF02700FDF7C9FE40F2F1312720DA
:102F3000FDF7C4FE4978814203D805A800F090F956
:102F400003E0207940F01000207197F8220000285B
:102F50003FD098F80010D8F8040000290CBF0122D7
:102F6000002255490A76D7E91E23C1E904234169A5
:102F700041F64C52914234BF4FF0040C4FF0000C1C
:102F800090F86E00012808BF00231CD0022808BF5B
:102F9000012318D0042808BF032314D0082808BF31
:102FA000022310D040F221410620FDF787FE0028C1
:102FB00018BF10F0E7F9A078401CA070E08940F439
:102FC0000070E081C1E7FB223B496046009610F0AB
:102FD000A5F80C98002520B9A1780120FFF7A6FEDE
:102FE00018B111F073F9012502E0002000F0F2F9A8
:102FF0009DF81400C0B1616A48780090A06AD0B111
:103000006289D21C1BF073FDA06A606209AA08A93C
:10301000A06B16F06AFB089816F001FB81460122AE
:10302000A06B009916F0B2FAB98A2448BAF1000FE1
:1030300013D029B10DE040F25C412720FDF73EFEA0
:1030400098F8001029B1C188002904BF018900291E
:1030500003D0418901F101014181BBF1000F14BF8F
:10306000C188018901F101011ABFC180A6700181E7
:10307000104802F037FA069840B116F0D0FAD8F8A6
:103080000410401C0672082201F082FCB9F1000F06
:1030900008D0D8F8041009F108000670102248463C
:1030A00001F076FC002D18BF00F096F80DB0BDE8D9
:1030B000F08F0000E000002088090020E2090020D5
:1030C0002DE9F84F424E8346A6F13C0570688A46CA
:1030D00000F1A8042878012804D040F26B41272091
:1030E000FDF7ECFD207C00274FF0010968B1277443
:1030F000AA89394642F00402AA816A6904209047ED
:103100003078002818BF84F81290296A4FF003081D
:10311000087838EA00000DD1A07DA0B9AA89022064
:1031200042F00202AA816A699047286A007838EA68
:10313000000008D0286A407800280EBF84F8169056
:103140000220A07501E084F8168094F8230000287E
:103150002CD031782A7A706800290CBF0121002117
:1031600081F001031B490B76D4E9203CC1E9043C02
:1031700090F86F004FF0010C012808BF002310D019
:10318000022808BF01230CD0042808BF032308D05D
:10319000082808BF022304D040F221410620FDF791
:1031A0008DFD0C49604600970FF0B8FF3AEA0B001E
:1031B00004D000210846FFF7B9FD18B1BDE8F84F6B
:1031C00000F00AB8BDE8F84F002000F0A5B80000F4
:1031D000E00000208809002010B510F09FF910F0E1
:1031E00099F8114C00216269E08990470F48017FEE
:1031F00099B1A0F15A01D1F85A208A66D1F85E201F
:10320000CA66D1F862200A67B1F86620A1F8742076
:10321000022207491D3001F01FFCE2692179607824
:1032200090470020207010BDA4000020E20900207B
:10323000092D0000084810B50078022804D040F29B
:1032400049212720FDF73AFD044901200873BDE814
:103250001040FFF7C1BF0000A4000020E2090020D9
:1032600070B52649264C0126496801F1A805616A16
:103270000A7802F00302012A18BF022A0ED0032A9C
:1032800023D12E74E289304642F40062E281A289A1
:1032900042F00102A2816269904716E04978A1B12B
:1032A000E28942F40062E281A26A002A08BF70BD8E
:1032B000FB291DD86179002908BF067005D0626915
:1032C000BDE87040202000211047287E012806BF5D
:1032D000002028762E76606A4078002808BF70BDEE
:1032E000D5E92010491C40F10000C5E9201070BD4F
:1032F000207940F01000207170BD0000E000002037
:10330000A400002003480078002808BF7047FFF79A
:1033100063BF0000A40000202DE9F041DFF8AC807D
:103320000746A8F13C04D8F80450E06A606295F8BA
:10333000CB10207A05F1A80600291CBF001DC0B2E1
:103340002249002F496891F86F1002BFFF2895F8B5
:103350006E20914201D010F0DBFF96F82300A8B157
:10336000206B10F0B1FD98F8000000280CBF012080
:10337000002080F0010116480176D6E92012C0E94C
:103380000412216B606A0FF065FF04E0606A10F0C0
:103390009BFD0FF0BFFF3FB995F86F0010F00C00D8
:1033A00018BF282010F0C4FB686941F64C518842D0
:1033B00095F86E204FF0000134BF0120002010F07E
:1033C0001BFF02202070BDE8F0810000E00000201B
:1033D000880900202DE9F04FDFF8F4A183B0AAF1AD
:1033E0001C09DAF804504FF000088DF80080A9F1AC
:1033F000200495F8CB10227A05F1A80600291CBFFD
:10340000111DCAB272490028496891F86E1002BFB6
:10341000FF2A95F86F00884203D04FF0FF0010F0AC
:1034200077FFB07DDFF8ACB1012750B1012830D073
:10343000022841D003284FD040F2FB212720FDF77E
:103440003DFCA079ADF80400A5F854004846FFF70C
:10345000F3F8A0B1A289216A42F08002A2816269D8
:10346000802090477774D9F80000C0781B283CD1A1
:103470004FF0010105F1100011F044FA35E06A4601
:1034800001A9606B16F099F9206210B196F85D10F1
:1034900011B1C4F820B028E09DF8001031B9A0F8AF
:1034A000008080F80280012117F01EFCBDF8041096
:1034B000206A17F055FB18E0B5F85400ADF8040089
:1034C0006A4601A9606B16F078F9206268B940F28B
:1034D000E5212720FDF7F2FB4846FFF7ADF868B37A
:1034E000D9F80000C0781B28C2D0206A4FF008032A
:1034F0004FF00309017801F0F7010170F27D03EA52
:10350000C20241EA020101F0FB010170327E4FF07C
:10351000040303EA820241EA020101F0EF010170B3
:1035200039EA010104BFC078022815D0606B16F09B
:103530001EF9002818BFB84605D00DE040F2EE2174
:103540002720FDF7BBFB206A007839EA000003D092
:10355000FFF730F880F00108206A017841EA08118D
:10356000017096F8221000291CBF4178002913D061
:10357000206B10F0A9FC9AF8000000280CBF012174
:10358000002115480176D6E91E12C0E90412216A0D
:10359000206B0FF05FFE03E010F096FC0FF0BAFE18
:1035A000686941F64C51884295F86F204FF001014F
:1035B00034BF0120002010F01FFEE770206A018850
:1035C00021828078A074277003B0BDE8F08F0000DE
:1035D000E0000020B00900208809002035320000FA
:1035E000AD2D0000C1300000053300000246074841
:1035F00010B5007838B10648417821B1801C0FF031
:10360000C9FC012010BD002010BD0000D005002025
:10361000BE130020004870474815002004494A782E
:10362000824286BF084490F84201002070470000A3
:10363000BE13002004494A78824286BF01EB001085
:103640008230002070470000BE130020054A01EBC5
:10365000410102EB41010268C1F80A218088A1F80A
:103660000E017047BE1300202DE9F041134C0646B1
:1036700000256078002898BFBDE8F081C0B2A8425C
:1036800014D904EB0510823010D0611991F8421161
:1036900061B905EB450104EB410707F58571324639
:1036A00016F01BFCB7F80E01A7F80E01681CC5B296
:1036B0006078A842E2D8BDE8F0810000BE13002087
:1036C0002DE9F0410E46074615460621304600F02A
:1036D000D9FD1A4C98B1617871B104F2391011F02A
:1036E000010F18BF00F8015F6178490804D04570E8
:1036F00000F8025F491EFAD10120BDE8F08138468A
:10370000314600F04BFA082814D063780021002BD2
:1037100010D9621892F80221824207D1082909D0F3
:10372000601880F83A510120BDE8F081491CC9B207
:103730008B42EED80020BDE8F0810000BE130020CF
:1037400004494A78824286BF01EB0010801C0020A9
:1037500070470000BE13002008494A78824203D90E
:103760000A1892F842210AB10020704700EB40008D
:1037700001EB400000F5857070470000BE1300208B
:1037800010B54FF4C572002105481BF02AFA054810
:103790000021017041704FF46171418010BD000043
:1037A000BE130020D00500200149087070470000BA
:1037B000D00500200148007870470000D0050020A7
:1037C00070B50C4605460FF06DFE0FF0FBFB0A4886
:1037D0002A46007868B1094B597851B1002C0CBFCA
:1037E00003F18200981C0FF0D5FB0FF015FC0120AF
:1037F00070BD002070BD0000D0050020BE13002069
:103800000B4B93F801C084459CBF002070471844BF
:1038100090F80201C0EBC000184490F852310B70D0
:10382000D0F853111160B0F8570190800120704713
:10383000BE13002010B500F0B1F9082808BF10BD74
:1038400001460B4A002092F801C0BCF1000F0CD9D0
:10385000131893F802318B4203D1082818BF10BD0A
:1038600003E0401CC0B28445F2D8082010BD00001F
:10387000BE1300202DE9F047984691460F460646B4
:1038800000F08CF92C4C0546082817D062780020EF
:10389000002A0ED9211891F80231AB4205D108282F
:1038A0001CBF1220BDE8F08703E0401CC0B282427A
:1038B000F0D8082A3DD2082D03D016E06278082AF5
:1038C00037D22578681C2070082D03D34421282086
:1038D000FDF7F4F9C5EBC50020443968C0F8531171
:1038E000B988A0F8571180F8526166781022701CD0
:1038F000607004EB0617B81C494600F0D9FB07F1CD
:1039000082001022414600F0D3FB1021404600F017
:10391000B9FC3444102184F84201484600F0B2FC5E
:1039200084F84A0184F80251002084F83A01BDE885
:10393000F0870720BDE8F087BE1300204C4841788F
:10394000491E4FFA81FCBCF1000FB8BF704770B43C
:1039500041780CF0FF04491EC9B2417050FA8CF254
:1039600092F802318C423DD000EB011500EB0412BD
:10397000D5F80260C2F80260D5F80660C2F80660A9
:10398000D5F80A60C2F80A60D5F80E60C2F80E6079
:10399000D5F88260C2F88260D5F88660C2F8866089
:1039A000D5F88A60C2F88A60D5F88E50C2F88E5079
:1039B0004518021901EB410195F8026104EB44043A
:1039C00000EB410182F8026100EB4404D1F80A6186
:1039D000C4F80A61B1F80E11A4F80E1195F83A1165
:1039E00082F83A1142780021002A0BD9441894F841
:1039F00002519D4202D108292BD103E0491CC9B2D2
:103A00008A42F3D80178491EC9B20170994220D088
:103A1000C1EBC101C3EBC30201440244D1F85241DE
:103A2000C2F85241B1F85641A2F8564191F85811E6
:103A300082F85811447802780021002C09D94518E1
:103A400095F8025195420ED108291CBF014481F816
:103A50000231ACF101014FFA81FCBCF1000FBFF65D
:103A600077AF70BC7047491CC9B28C42E7D8F0E709
:103A7000BE13002010B500F091F8082816D00C4AAB
:103A8000014600205378002B10D900BF02EB000C38
:103A90009CF802C18C4505D1082807D000F0C4F875
:103AA000012010BD401CC0B28342EFD8002010BDE1
:103AB000BE1300200246064810B500EB011001219C
:103AC00082300FF067FABDE810400FF0A5BA000091
:103AD000BE1300200148408870470000D005002038
:103AE00038B14AF2B811884203D80349488001200E
:103AF0007047002070470000D005002070B50125F8
:103B000016462C4600F04AF8082821D01449002314
:103B10004A78002A1CD900BF01EB030C9CF802C1B3
:103B2000844518D1082B13D0002E18BF3370487865
:103B300098420DD901EB031010F1020F08D0C818FC
:103B400090F84A4190F83A0101280CBF0125002560
:103B500045EA040070BD5B1CDBB29A42DCD8F7E793
:103B6000BE13002006494A78824206D9084490F8DC
:103B70003A01002804BF0120704700207047000070
:103B8000BE1300200148407870470000D005002097
:103B90000149487070470000D00500202DE9F00F62
:103BA000204B0246002093F80080B8F1000F35D971
:103BB0000F784E788D78CC7891F804C091F805A0F4
:103BC000C0EBC001194491F8529191F853B182EAC7
:103BD000090987EA0B0BD94491F854B186EA0B0B1B
:103BE000D94491F855B185EA0B0BD94491F856B1F7
:103BF00084EA0B0BD94491F857B191F858118CEA2B
:103C00000B0BD9448AEA010111EB090F04BFBDE88F
:103C1000F00F7047401CC0B28045D1D8BDE8F00F0E
:103C200008207047BE13002070B447490C184A782A
:103C3000521ED3B24B7094F8022198423DD001EB52
:103C4000001501EB031C00EB4000DCF80260C5F836
:103C50000260DCF80660C5F80660DCF80A60C5F8AA
:103C60000A60DCF80E60C5F80E60DCF88260C5F80A
:103C70008260DCF88660C5F88660DCF88A60C5F88A
:103C80008A60DCF88EC0C5F88EC001EB030C03EB34
:103C900043039CF8025101EB430384F8025101EB0A
:103CA0004000D3F80A51C0F80A51B3F80E31A0F819
:103CB0000E319CF83A0184F83A014C780020002C2F
:103CC0000DD90B1893F802C1944504D108281CBFE4
:103CD00070BC704703E0401CC0B28442F1D8087841
:103CE000401EC0B20870904204BF70BC7047C2EB67
:103CF000C203C0EBC00008440B44D0F852C1C3F863
:103D000052C1B0F856C1A3F856C190F8580183F8D3
:103D100058014C780B780020002C9CBF70BC704779
:103D200001EB000C9CF802C19C4506D108281CBF81
:103D3000084480F8022170BC7047401CC0B2844225
:103D4000EED870BC70470000BE13002070B58CB078
:103D500000F110041D4616460DF1FF3C5FF008000F
:103D600014F8012C8CF8012014F8022D0CF8022F05
:103D7000401EF5D101F1100C6C460DF10F01082029
:103D80001CF8012C4A701CF8022D01F8022F401E6D
:103D9000F6D1204616F05FF87EB16A1E04F13000BD
:103DA0005FF0080110F8013C537010F8023D02F872
:103DB000023F491EF6D10CB070BD089828600998E2
:103DC00068600A98A8600B98E8600CB070BD0000AD
:103DD00070B50446002571B1504A012933D002293B
:103DE0006BD0032918BF70BD04F1CE01BDE870404F
:103DF000CD3016F043BB4FF4627200211AF0F1FE91
:103E0000012284F8CD20464AC4F816210722C4F8BE
:103E10001A2194F81621FE2122F0040284F81621BA
:103E200084F84E117F2184F8C11004F1A8003D49A7
:103E3000C4F8B0100022C0F8B050C0E90022202021
:103E400084F8290370BD60693749B2FBF0F2014480
:103E5000B1FBF0F1C4F8EC1040F6B831A4F8F01062
:103E6000E38BA4F8F650B4F8FAC0521C0CFB00FC2B
:103E7000BCFBF0FCA4F8FAC040F2712C03FB0CF37D
:103E800000EB03135B1EB3FBF0F3A4F8F830A4F8C7
:103E9000FE20264A04F1A80100EB0212521EB2FBDA
:103EA000F0F24A640A6C4243B2FBF0F00864BDE8E9
:103EB00070402631481E16F0E1BAD4F85013B4F819
:103EC00056C3636904F1A800A4F8F650B4F8FA40A8
:103ED000B2FBF1F25C43B4FBF1F4A0F8524040F2C3
:103EE00071240CFB04FC01EB0C1CACF1010CBCFBC1
:103EF000F1FCA0F850C0521CA0F85620B0F84820A1
:103F0000624301EB0212521EB2FBF1F24264026CF8
:103F10005A43B2FBF1F1016470BD0000005A620225
:103F20002F4904C400E0FCFF7FC3C901389C1C007A
:103F300070B501260446002571B1584A012932D0D6
:103F400002297BD0032918BF70BD04F1CE01BDE862
:103F50007040CD3016F092BA4FF4836200211AF00F
:103F600040FE84F8CD604E4AC4F816210722C4F8FA
:103F70001A2194F81621FE2122F0040284F8162159
:103F800084F84E117F2184F8C110464904F1A8003D
:103F9000C4F8B0100021C0F8B050C0E900112020D2
:103FA00084F8940370BDA4F8265384F81B53606909
:103FB0003D49B2FBF0F20144B1FBF0F1C4F8EC1062
:103FC00040F6B831A4F8F010E38BA4F8F650B4F83A
:103FD000FAC0521C0CFB00FCBCFBF0FCA4F8FAC0BD
:103FE00040F2712C03FB0CF300EB03135B1EB3FBDD
:103FF000F0F3A4F8F830A4F8FE202C4A04F1A8014C
:1040000000EB0212521EB2FBF0F24A640A6C424309
:10401000B2FBF0F008642631481E16F02FFA1AF0B1
:10402000D6FC38B1A06900F01FFF002804BF84F857
:10403000086370BD84F8085370BDFFE7D4F8EC1333
:10404000B4F8F2C3636904F1A800A4F8F650B4F818
:10405000FA40B2FBF1F25C43B4FBF1F4A0F8524039
:1040600040F271240CFB04FC01EB0C1CACF1010CC4
:10407000BCFBF1FCA0F850C0521CA0F85620B0F8D0
:104080004820624301EB0212521EB2FBF1F242647D
:10409000026C5A43B2FBF1F1016470BD005A620236
:1040A0002F4904C400E0FCFF7FC3C901389C1C00F9
:1040B000002A08BF70471144401E12F0010F03D0C0
:1040C00011F8013D00F8013F520808BF704700BFDA
:1040D00011F8013C437011F8023D00F8023F521EF6
:1040E000F6D170472DE9F05F044690468A464FF0BE
:1040F0000109084616F0C4FD0546504616F0C4FDF9
:10410000074610F0010F18BF01262BD015F0010F44
:1041100018BF4FF0010B30D056EA0B0008BF4FF02C
:1041200000090EF075FE384208BF00260EF070FE42
:10413000284208BF4FF0000B94F86E00B0420CBF4D
:104140000020304688F8000094F86F10594508BFE9
:104150004FF0000B88F801B0002808BFBBF1000F3A
:1041600028D118E010F0020F18BF0226CED117F0A8
:10417000040F14BF08260026C8E715F0020F18BF69
:104180004FF0020BC8D115F0040F14BF4FF0080B0D
:104190004FF0000BC0E7504616F05DFDB4F8BC10C0
:1041A000401A00B247F6FE71884201DC002801DCAB
:1041B0004FF0000916B1082E10D01FE094F86E00E1
:1041C000012818BF022819D0042818BF082805D0D4
:1041D00040F2D7214FF00600FCF770FD94F86C0117
:1041E00001280BD1B4F87001012894F86E0008D0B2
:1041F000082803D05FF0080088F800004846BDE8B2
:10420000F09F042818BF0420F6D1F3E741F64C5282
:1042100091423DBF0549A1FB0010400940F2E24137
:1042200028BFB0FBF1F080B2704700001F85EB5152
:1042300041F64C52914209D20849A1FB002149099B
:104240006FF01802514300EB810105E040F2E241BA
:10425000B0FBF1F201FB1201401A70471F85EB51D0
:1042600041F64C5291423DBF0549A1FB0010400967
:1042700040F2E24128BFB0FBF1F0C0B2704700004D
:104280001F85EB5130B40022A1F1010CBCF1000FED
:1042900012DD431E11F0010F08BF13F8012F5C78E7
:1042A0005FEA6C0C08D000BF13F8025F22435C7811
:1042B0002A43BCF1010CF7D1491E5CBF405C0243AC
:1042C000002A0CBF0120002030BC7047074991F93B
:1042D000001008441428C4BF1420704710F17F0F49
:1042E000B4BF6FF07E0040B270470000EA050020C6
:1042F000024A00211170517070470000EA05002049
:1043000008B57F208DF8000068460FF0E7FF002811
:1043100004BF9DF9000008BD9DF9001007484078D2
:10432000404240B208441428C4BF142008BD10F114
:104330007F0FB4BF6FF07E0040B208BDEA050020D9
:10434000074908B509788DF800109DF8001000297C
:104350001CBF002008BD03491AF0E1F9012008BD87
:10436000EC050020ED05002010B5054CFF21217063
:104370000146601C1AF0D3F90020207010BD000027
:10438000EC05002070B581EA11418BB2C47A83EA52
:104390000201002201F0FF0C090A91FAA1F19CFA36
:1043A000ACFC090E4FEA1C6C4CEA012101EB011C2C
:1043B000521C0CEB0301D2B289B2032AEAD381EA80
:1043C0000302DFF888C000216346E2FB0C310909D3
:1043D0006FF0240301FB0321C9B200EBD10301F00C
:1043E000070C5D78012303FA0CFC15EA0C0F1CBFC7
:1043F000084670BD04FB02F1090C491CC9B24FF01C
:10440000000C00BF00EB0C04A2798A4227BF0022F7
:104410006478891AC9B20AD303FA02F52C421CBF88
:10442000491EC9B271B1521CD2B2082AF4D30CF1A0
:10443000010202F0FF0CBCF1050FE3D39D214620E1
:10444000FCF73CFC02EBCC00C0B270BD53E4B36E91
:1044500070B5044690F8300008B1252801D9122023
:1044600070BD002A04BF002070BD94F8250010B173
:10447000012851D048E094F8320094F831102B4BC9
:1044800001FB020000251A462946E0FB0321090929
:104490006FF0240201FB0200C0B204EBD00284F8EA
:1044A000320000F0070192F82620012303FA01F1FF
:1044B0000A421EBF84F83300284670BD94F83010BD
:1044C000B0FBF1F201FB1200401CC1B25FF0000032
:1044D00004EB000C9CF82B208A4227BF00229CF89A
:1044E00026C0891AC9B20BD303FA02F61CEA060FDA
:1044F0001CBF491EC9B249B1521CD2B2082AF3D31B
:10450000401CC0B20528E3D31F2070BD02EBC000E1
:1045100084F83300284670BDA28A896904F1250019
:10452000FFF730FF84F83300002070BD53E4B36E12
:10453000417841B1C0782B2803D2044A105C8842EC
:1045400001D10120704700207047000055ED0100A7
:1045500010B50122C1702B293CBF064A525C06D31C
:10456000FF2904D040F274412A20FCF7A7FB4270D7
:1045700010BD000055ED01000449897D01F00401E2
:1045800008430CBF0120002070470000701200207B
:104590000348807D10F0020F0CBF012000207047FF
:1045A000701200200348807D10F0010F0CBF012025
:1045B000002070477012002010B5017A81B10129E6
:1045C0001CBF002010BDC288036880885FF0010115
:1045D00000F00CF8002808BF00F06CF8012010BDB6
:1045E000C288036880880221F2E700002DE9F043C9
:1045F00085B0884699461546064602A915F0FEFC88
:1046000000284CD10398002D00F1A80404BF01201C
:1046100084F8240043D03046FDF7EEFC07000CD0B0
:10462000294615F077F8010003D0214840888542DB
:1046300007D905B00020BDE8F08367212B20FCF7E7
:104640003DFB6A46384615F05EF800980026068065
:10465000867094F82410002918BF4FF002084146D4
:1046600016F042FB00982A464946C01C1AF03FFA51
:104670002946384615F003F8A8B19DF8080060B146
:10468000039890F81A0328B1039880F81A630398E6
:1046900017F01FFA0398A0F8126384F8246005B09D
:1046A0000120BDE8F0837C212B20FCF707FB0000F4
:1046B00070120020084882B0007A8DF800009DF842
:1046C000000000281CBF02B07047022202B003495C
:1046D000014800F05DB900008C12002053AD0100CC
:1046E0002DE9F84FDFF85CA2974F83464FF00108A1
:1046F000002578682E46007A8DF80000009800901A
:104700009DF80010102908D19AF8170028B1BAF8BE
:104710001800002808BFBDE8F88F28463C6914B38C
:10472000217A8DF80010009900919DF80020D2B1F7
:104730000028F2D1B4B3207A8DF800009DF80090E3
:1047400004F1080005210170A9F102000F2880F092
:10475000EC80DFE800F02B3945EA7E7093704F4F14
:10476000707070B5D9007C68227A8DF80020009AAC
:1047700000929DF80030012B08BF0446D8D0EFF31B
:10478000108172B622687A6001B962B6217A8DF81A
:104790000010009900919DF80020002A0CBF4046AF
:1047A0003C61C5E7FFE70020BDE8F88F626832B1E1
:1047B000594620469047042060F307068CE040F2FB
:1047C000C3111020FCF77AFA626822B159462046DC
:1047D0009047064680E04FF4E6711020FCF76EFA31
:1047E000616811B12046884776E04FF4EB711020E4
:1047F000FCF764FA55480368002B6DD060684A46A0
:10480000594600909847042060F307069BF8000083
:104810001E2805D01B285FD19BF8040000285BD020
:10482000009804210089FDF7A9FA18B340F2EB11B2
:104830001020FCF743FA46480368C3B360684A4651
:1048400059469847042060F30706B9F10D0F11D0BF
:1048500042E0626832B159462046904709F0E8FFCD
:1048600028B107E040F211211020FCF727FA06F0EA
:10487000CFFAE0B104203D61BDE8F88F6068B8B1BF
:1048800004882046FDF7B8FBB0B18BF801500F212A
:104890008BF80010ABF80640ABF808808BF804806A
:1048A000002114F0DFFF04203D61BDE8F88F13E024
:1048B000E5211020FCF702FAC5211020FCF7FEF9D3
:1048C0008BF801501F208BF80000D4F80900CBF8BA
:1048D0000400042060F30706C6F30720012808BF80
:1048E00084F8089027D0EFF3108072B6217A8DF803
:1048F00000109DF80010052913BF002925723D61A5
:1049000065F30706B8B915E01248026822B160687D
:1049100030B100885946904702203D61BDE8F88FCC
:104920004FF410711020FCF7C9F940F24A21102011
:10493000FCF7C4F962B616F0FF0F3FF4DAAEF0B23E
:10494000BDE8F88F70120020A0120020F0000020B7
:10495000EC000020E80000200A4910B508700A4861
:10496000002141618161C1610162416212221AF03C
:1049700038F90648012100F10C021170011D416057
:10498000016010BDF20500208C120020A012002052
:1049900038B5037A8DF800309DF8003023B140F22D
:1049A000C2211020FCF78AF9F0B1416000F1080142
:1049B0000A70EFF3108372B6DFF844C0C0F800C08D
:1049C000ACF104014A6852B1127A8DF80020009AC5
:1049D00000929DF80040012C08BFC1F800C00A6891
:1049E0001060086033B904E040F275211020FCF734
:1049F00065F962B603480078BDE8384014F030B875
:104A0000A4120020F2050020094810B500214161E0
:104A10008161C1610162416212221AF0E2F8054827
:104A2000012200F10C010A70011D4160016010BDFE
:104A30008C120020A0120020024901480860704733
:104A4000CD4A0000E8000020024901480860704794
:104A5000CD4A0000E800002038B5037A8DF8003018
:104A60009DF80030002B1CBF027238BDF0B14160D0
:104A700000F108010A70EFF3108372B6DFF844C04A
:104A8000C0F800C0ACF104014A6852B1127A8DF846
:104A90000020009A00929DF80040012C08BFC1F848
:104AA00000C00A681060086033B904E040F2752164
:104AB0001020FCF703F962B603480078BDE83840DF
:104AC00013F0CEBFA4120020F205002038B50C0070
:104AD00016D0A08000216172FDF778FA054614F027
:104AE000F2FD010011D06A46284614F00CFEE08069
:104AF00080B1FB2813D940F223111020FCF7DEF817
:104B000040F213111020FCF7D9F84FF48E711020E9
:104B1000FCF7D4F840F221111020FCF7CFF80098F0
:104B200016F060F8012818BF022805D040F23311B2
:104B30004FF01000FCF7C2F820722068B0B1009965
:104B4000E288C91C19F0D3FF284614F083FD90B108
:104B50000021284614F086FE90B10C48C17D002942
:104B600008BF38BD018B491E018338BD4FF49D71CC
:104B70001020FCF7A3F840F23F111020FCF79EF83C
:104B80004FF4A2711020FCF799F800007012002079
:104B900030B45081B1F808C0A2F80CC08B89D38121
:104BA00048891082CC895482CD8DA54204BF4C8D9A
:104BB000844206D10C8E9C4202BF8B8D634500233C
:104BC00001D04FF0010313754885508AC88590893C
:104BD0008885D089088630BC0149104616F0B3B8E4
:104BE000794C000030B490F86E508C88B1F808C051
:104BF00015F00C0F1BD000BFB4F5296F98BF4FF410
:104C0000296490F86F5015F00C0F17D0BCF5296F80
:104C100098BF4FF4296C4A88C988A0F84C20A0F8A6
:104C20005010A0F84E40A0F852C030BC7047002B86
:104C30001CBF157815F00C0FDED1E2E7002B1CBF6E
:104C4000527812F00C0FE1D1E5E70000014800783E
:104C500070470000F30500205081888A9081C88A3F
:104C6000D081088B1082488B50820249104616F082
:104C700067B80000BD4C000038B5A0F11805007DF4
:104C80000C4600F00100FFF777FC0021002818BF58
:104C900000910ED1617016202070D5F82200D5F851
:104CA0002610D5F82A2060600348A160E2604068C1
:104CB0000090BDF8000038BD604E000070B586B0B1
:104CC0000E460446FFF764FC002570B3A4F5F370AC
:104CD0002572048803A9204618F094FB18B1FE2120
:104CE0002C20FBF7EBFFADF80040BDF81200ADF84B
:104CF0000200BDF81400ADF80400BDF80E00ADF8D8
:104D00000600BDF81000ADF80800684618F0C1FBB9
:104D1000002808BF009504D040F207112C20FBF7B3
:104D2000CDFFBDF8000006B070BDFFE72E2030704B
:104D30007570D4F80A007060D4F80E00B060608A14
:104D4000B081024800680090EBE70000604E000070
:104D500070B5B0F838C012F00C0F0CF1040C1FFA4B
:104D60008CFC4FF434751CBF05EB8C1C1FFA8CFCBB
:104D70000FD1012A04BF4FEACC0C0CF1500C06D025
:104D8000022A04BF4FEA8C0C0CF12C0C60D11FFAE4
:104D90008CFC12F00C0F18BF4FF4296406D1B0F848
:104DA0004E60B0F84A40A64238BF3446644538BF2A
:104DB000A446B0F84040241DA4B213F00C0F1CBF51
:104DC00005EB8414A4B20AD1012B04BFE4005034D3
:104DD00004D0022B04BFA4002C3439D1A4B213F0A8
:104DE0000C0F14BF4FF42960B0F84200A04238BF46
:104DF00004461A48007898B113F00C0F18BF4FF40E
:104E0000696012D0844228BF2046044612F00C0F7D
:104E100018BF4FF4696012D0844528BF60468446AD
:104E20000CEB04000844801D70BD012B08BF4FF43B
:104E3000E470E7D0022B08BFE820E3D008E0012AA5
:104E400008BF4FF4E470E7D0022A08BFE820E3D09F
:104E500040F223210620FBF731FF0000F30500207C
:104E6000040000000400000070B46FF01F02010C89
:104E700002EA90251F23A1F5AA4054381CBFA1F5D2
:104E8000AA40B0F1550009D0A1F52850AA381EBF9C
:104E9000A1F52A40B0F1AA00012000D100204FF076
:104EA000000C62464FEA0C048CEA0106F6431643F6
:104EB000B6F1FF3F11D005F001064FEA5C0C4CEA59
:104EC000C63C03F0010652086D085B08641C42EA08
:104ED000C632162CE8D370BC704770BC00207047F7
:104EE0002DE9F04F4FF0000883B047462326DFF846
:104EF000BCB1DFF8BC91C24600F01EF900EA4001E7
:104F000001EA410101EA410101EA410101EA4101ED
:104F1000054611EA410F7DD1E84300EA400000EA6E
:104F2000400000EA400000EA400000EA400010EAC9
:104F3000400F6FD1A81680EA6000411E084269D078
:104F4000E8B2411E0840411E084263D0A8B200F0FA
:104F50000BF90B285ED8284615F0E8FF182859D819
:104F60002846A9B2B1EB104F07D14FF0FF1101EA6B
:104F7000102105F0FF1081424CD085EA0B00411E44
:104F800008427ED02C46CDF800A06846CDF804A09B
:104F9000FCF7A4FE40B900988169A14271D068462F
:104FA000FCF79CFE0028F6D0D9E90001CDE900010C
:104FB0006846FCF793FE40B900988169A14260D031
:104FC0006846FCF78BFE0028F6D0D9E90201CDE94E
:104FD00000016846FCF782FE40B900980168A142D2
:104FE0004FD06846FCF77AFE0028F6D0D9E90401D4
:104FF000CDE900016846FCF771FE40B900980068F1
:10500000A0423ED06846FCF769FE0028F6D02F4645
:10501000280C00E035E06FF01F0101EA9724A0F5AD
:10502000AA414FF01F0C54391CBFA0F5AA41B1F1A1
:1050300055010AD0A0F52851AA391EBFA0F52A4172
:10504000B1F1AA014FF0010801D14FF00008002290
:105050001146134682EA0005ED430D43B5F1FF3FCB
:1050600020D004F00105520842EAC53249080CF08C
:10507000010564085B1C41EAC5314FEA5C0C162B44
:10508000E8D3761E03D0B8F1000F3FF435AF002F00
:105090001EBF384603B0BDE8F08F40F267110F2005
:1050A000FBF70CFE4FF00008EBE70000D6BE898E40
:1050B000B4500000000000000000010000000000EB
:1050C00000000300000000000000040010B50C4CBC
:1050D00008212046FBF7E8FE2068002804BF60682E
:1050E0000028F5D0074C00BF4FF008012046FBF721
:1050F000DBFE2068002804BF60680028F4D010BDE3
:10510000F4000020FC000020094A0A48D2E90013FC
:1051100048434B4083EAB11181EA432111604FEAD1
:10512000F0604FEAF34100EB8000516070470000EF
:10513000F4000020BB79379E094A0A48D2E90013DF
:1051400048434B4083EAB11181EA432111604FEAA1
:10515000F0604FEAF34100EB8000516070470000BF
:10516000FC000020BB79379E40F34E01484080B2DE
:1051700020F0AA010D4A21F42A4102EA5000084415
:1051800020F0CC010A4A21F44C4102EA9000084484
:1051900020F0F0016FF0F00221F4704102EA1010EB
:1051A000084400EB1020C0B27047000055D5FFFF47
:1051B00033F3FFFF70B5A0F1340530F8DC6C1B4809
:1051C0000C46016800291CBF28468847184801681A
:1051D00000291CBF30468847002060700C212170D8
:1051E0002071A4F8056095F83D00E0713046FCF7A9
:1051F000EDFE14F09FF9A8B13046FDF7CDF900217E
:105200003046FCF7BBFD01213046FCF7B7FD002816
:1052100018BF70BD07480068002808BF70BDBDE812
:105220007040004773216320FBF748FD0401002014
:105230000C0100200801002070B50278002A0CBF84
:105240000125002540680E1D00F1A8043DB1002392
:10525000A27F1946204614F006FF20B105E0207B0E
:1052600010F0010F01D0012070BD3168124B706841
:10527000194041F60702C4F86E101040C4F87200DD
:1052800094F87120012142F0080284F87120002076
:10529000A4F85A0025B184F85C100420A07708E037
:1052A00094F85C00401C84F85C00E06840F0010069
:1052B000E060002070BD00002F4904F710B5041D08
:1052C0000DF0A0FD044A41F60703024001EA030085
:1052D0002260606010BD00002F4904F72DE9F843FB
:1052E00003780746002B0CBF4FF001084FF0000871
:1052F0007E6801F1040906F1A80406F5DC7596F84C
:10530000C5200721204614F0AEFE002804BF01206E
:10531000BDE8F883D9F80400D9F80010194B41F61C
:10532000070219401040C4F86E10C4F8720094F8D7
:105330007110002041F0080184F8711084F85800C1
:105340006077B8F1000F1CBF796881F8730195F898
:1053500068108DF800109DF8001081B93188A5F80B
:105360006A1085F86900D9F80000E866D9F80400E9
:1053700028670222044905F16000FFF709FB0020BD
:10538000BDE8F8832F4904F733B2010070B54068D7
:105390000D1D00F1A8040DF035FD41F60702054B87
:1053A000114094F86E201840024062F30700286014
:1053B000696070BD2F4904F7416882B001F5DC7067
:1053C00091F820228DF800209DF80020002A1CBFB3
:1053D00002B070470988A0F86A101A2180F8691095
:1053E00002220249603002B0FFF7D2BA33B20100A4
:1053F0002DE9F04103780E46002B0CBF0127002752
:105400004068082100F1A80490F8C520204614F057
:105410002AFE78B93FB10023A27F1946204614F036
:1054200022FE20B106E0207B10F0020F02D0012006
:10543000BDE8F08194F85F004FF0000510F0020F16
:105440001BD1304615F06AFC84F86900B6F80500F7
:10545000A4F86A00B6F80700A4F86C0094F85F009E
:1054600040F0020084F85F0010F0010F0AD0022221
:105470001B4904F16000FFF7EFFA94F85F0010F0A9
:10548000010F24D18FB10023A27F1946204614F0CA
:10549000EAFD30B10120A07784F85C00A4F85A50EE
:1054A00015E048214020FBF709FCE06810F0020FEE
:1054B00003D04F214020FBF701FC40F00200E060E8
:1054C00094F85C00401C84F85C00A4F85A50607F9B
:1054D000012804BF657784F858500020BDE8F081AA
:1054E00027B301002DE9F84F4768064607F1A809E0
:1054F000FEF706FF054670687F2D00F1A80480F8CE
:10550000C15008BFBDE8F88F94F83300D6F8048086
:10551000A0764548A1688268C2F580536B43514329
:1055200003EB2131A160417900293DD0716890F9E8
:10553000002001F1A80AD1F8B01001F500610913AB
:1055400049B2914207DA90F90200494249B208444F
:1055500000F307000AE090F901208A4224DA90F96A
:105560000300494249B2084400F30700E0B1DAE918
:1055700000016FF00042514071EA000014D019F0B0
:1055800010F9DAE90023801A71EB03000CD3D6F886
:1055900004A00AF5DC7B0EF05DFB8AF86F0023495E
:1055A0000BF1CC0015F0D2FB94F91B000021281A56
:1055B00048BF404298F82D20824210DCFF2A0ED0CE
:1055C000207F401CC0B2207798F82E20904202D84D
:1055D000E07E7F2803D10020E5762077012197F82F
:1055E0002C00012818BFBDE8F88F002908BFBDE8CE
:1055F000F88F706890F8C0118DF800109DF80010B9
:1056000000F5DC70002918BFBDE8F88F39884181AA
:1056100099F81910017399F81A104173BDE8F84F01
:1056200002220349FFF7B4B91001002035560000EB
:10563000E1B301002DE9F041A0F52175A0F5EE746C
:1056400082B095F86F0017F0BAF98046A0682E4E28
:1056500000F50060001396F9001040B2884207DAA6
:1056600096F90210404240B2084400F307070DE0EB
:1056700096F901108142A4BF02B0BDE8F08196F90D
:105680000310404240B2084400F30707002F04BF54
:1056900002B0BDE8F0816FF00042D4E90001514052
:1056A00071EA000004BF02B0BDE8F08119F079F89A
:1056B000D4E90023801A71EB03003CBF02B0BDE8BF
:1056C000F0812888694614F099FC18B185217A2068
:1056D000FBF7F4FA08F10100C1B202233A4668462A
:1056E00017F0AEF900281CBF02B0BDE8F081307998
:1056F0000649A0FB015619F054F840197141C4E95C
:10570000000102B0BDE8F0811001002040420F000E
:105710002DE9F84391F801C00A788C784FEA1C63B0
:1057200042EA0C2242EA044243EA1443CC784FEAAC
:10573000142C42EA04640A7943EA0C031A434979B7
:10574000012842EA012108BF41F480310D466A4632
:10575000204600F095F800281CBF0120BDE8F88322
:10576000DFF8608098F8000098F80110884204BFC4
:105770000020BDE8F8839DF80090484515D9D8F879
:105780000410A0EB090C01EBC00300220CF0FF0C8D
:10579000861A01EBC606521C56E9027663E80276C9
:1057A000ACF1010C1CF0FF0CF2D1D8F80410401C35
:1057B00001EBC901C1E9004588F800000120BDE8FE
:1057C000F88300001C01002010B510F0070F03D073
:1057D00063214820FBF772FA20B1034A51705060F0
:1057E00000201070C80010BD1C01002038B54B7897
:1057F0000A784FEA136C8C7842EA0323CA7843EAAA
:1058000004434CEA144C43EA02634CEA122291F836
:1058100004C0497942EA0C0242EA0121012808BF8A
:1058200041F4803118466A4600F02AF8002808BF83
:1058300038BD0C480178491EC9B201709DF800209E
:105840008A420DD24068891A00EBC200C9B2083002
:10585000491E70E8022311F0FF01E0E80423F7D1AC
:10586000012038BD1C01002001490020087070474C
:105870001C01002001484078704700001C010020F6
:105880002DE9F001294E002313703378002B44D00A
:105890005B1EDBB24FF0000C012BC8BF756810DD3A
:1058A0000CEB0304640805EBC407D7E90087B8EBE9
:1058B00000088F4134BFA4462346A3EB0C04012CFF
:1058C000EEDC766806EBCC05D5E9004580EA0407F6
:1058D00081EA050857EA080708BF82F800C020D00F
:1058E000041B71EB05043FBF82F800C00020BDE837
:1058F000F001704706EBC30CDCE9004C80EA0405BC
:1059000081EA0C06354308BF13700AD0001B71EB07
:105910000C0032BF1370581C10700020BDE8F0015D
:105920007047BDE8F0010120704700001C01002015
:105930002DE9F0410446807C002816BF0228002093
:10594000012084F8680018B3607E68B3D4F81300AF
:10595000C4F86900B4F81700A4F86D00A07C022810
:1059600016BF032801210021A1764FF00800E07640
:1059700094F868004FF001074FF00008012804BFB9
:1059800094F86E2012F0C00F1BD0012811D016E041
:1059900004F169010020FCF79FFE0028DED140F2EF
:1059A000BA412D20FBF78AF940F2BE412D20FBF7CA
:1059B00085F994F86E0000F0C000402801D0002066
:1059C00000E00120207731B194F86F0004F17001FC
:1059D000FDF730FFE076FEF77DF83749A0FB016563
:1059E00018F0DFFE80196941C4E918010026E07E45
:1059F000FDF720FE0546A07E002818BF002D03D02D
:105A0000E07EFDF70BFE58B194F8820000281CBF21
:105A1000207F00281DD094F8680001280ED013E0E4
:105A200084F86870324604F16901284614F055FA8A
:105A3000E17E04F16900FDF709FE0AE094F86E00CA
:105A400000F0C00040282FD0414604F1690014F056
:105A500033FA84F87680A07810F0040F08BFBDE810
:105A6000F0810026E07EFDF76BFE050008BFBDE873
:105A7000F0811021FEF706FC002818BFBDE8F08178
:105A800084F87670324604F17701284614F025FA3E
:105A900004F17701094CA06814F097FFA068BDE8F5
:105AA000F041012114F098BFFDF7B4FD324604F136
:105AB000690114F012FACCE740420F0024010020E3
:105AC000F8B504460D46303015F082FEB4F802C039
:105AD000CCF3001129B1BDE8F8402822614601F05D
:105AE00043BCCCF34001002914BFB4F85C60B4F8A7
:105AF000546021791D4A4FF47A73082932F8112035
:105B000002F2E732B2FBF3F708BF40230AD00429C0
:105B100008BF102306D0022907BF0423122208233E
:105B2000192200E0142213FB02F2082908BF4023C7
:105B300019D0042908BF2E2315D0002302290CBF39
:105B4000182128211944114411FB00716FF07F02C4
:105B500002EBC0100144CDF800C062792B463046FC
:105B600000F00CFFF8BD4FF4A871EBE71C730000C8
:105B70002DE9F04F80468FB00C46C269D8E9050187
:105B8000D8E90076D8E903A90592CDE90301D8E95F
:105B90000801D8F82820CDE90601089201A815F0DF
:105BA0008FFEA07A60F31749207860F30707B4F8F6
:105BB0000100ADF800009DF8000000F00101C0F305
:105BC000400241EA4201C0F3800241EA8201C0F38F
:105BD000C00241EAC201C0F3001241EA0211C0F35F
:105BE000401241EA4211C0F3801041EA801B207D3F
:105BF0006BF31F47012818BF022803D0032808BFF2
:105C000008200ED1617860F3070611F0100F0FD154
:105C1000A17D012918BF022908D0032908BF082146
:105C200004D040F2E9210620FBF748F861F30F2683
:105C3000CAF30741012908D0617A01A815F01BFEBB
:105C4000207D012102280FD10BE00421082808BF84
:105C500061F30706C6F30720082808BF61F30F2683
:105C6000EAE7607D401CC1B2A07E401CC2B201A820
:105C700015F097FD380C10F0080F4FF0000524D1F7
:105C800001A815F0A5FD617811F0100F7FD0282232
:105C9000594601F069FB00BF40F2712100F2DB20A0
:105CA000B0FBF1F000FB01F5D4F8020040F27122E4
:105CB000000A4143D4F80500000A50438D4298BFC2
:105CC0000D4602D9854288BF0546A07C60F30F29A6
:105CD000207E012818BF002060F3070AD8F84C0086
:105CE00013F0C3FF8346D8F84C0014F06AF88345DC
:105CF00028BF584698B101A90A91390CADF82C106B
:105D00008DF83460310A8DF835100C950AA901F030
:105D10007FF8002802BF45200FB0BDE8F08FC8F81B
:105D20000CA0C8F80070C8E90165DDE90301059A17
:105D3000C8F81090C8F81C20C8E90501DDE9060183
:105D4000089AC8F82820C8E908010198C8F8300066
:105D5000BDF80800A8F83400E07A002816BF022831
:105D60000020012088F86F00E068C8F87000208AE1
:105D7000A8F87400E07D98F8461060F3071188F8E1
:105D800046100FB04FF00000BDE8F08FFFE703466C
:105D9000F0B221494FF47A72082831F8101001F25C
:105DA000E731B1FBF2F208BF4FF0400C0DD00428F0
:105DB00008BF4FF0100C08D0022807BF4FF0040CAA
:105DC00012214FF0080C192100E014211CFB01F1F5
:105DD000082808BF40251BD0042808BF2E2517D04F
:105DE00002280CBF182028202844084410FB032058
:105DF0006FF07F0101EBC3114518FCF7FFF9390C77
:105E00000091C6F307220123294600F0B7FD43E7BE
:105E10004FF4A870E8E700001C730000114A10B5A9
:105E200000211170104CA060107820B140F22E318A
:105E30002D20FAF743FF116051609160D16011612C
:105E400051619161D16111620DF02CFB0DF0BAF836
:105E5000E068002818BF10BD40F231312D20FAF75C
:105E60002DFF0000B4120020240100200249014847
:105E7000C860704750730000240100200249486048
:105E8000C968096808470000240100200B4910B5C3
:105E90000878002818BF0C2401D0204610BD00242B
:105EA0000C604C608C60CC600C614C618C61CC618E
:105EB0000C620DF0F7FA0DF085F8EEE7B412002051
:105EC000054910B5097801291CBF002010BD00F05C
:105ED00035FF002010BD0000B41200200449034823
:105EE00008600549034808607047000061710000C0
:105EF00038010020DD6F0000340100202DE9F04161
:105F000004468078C0F3C00058B13C23FF222046ED
:105F1000216A00F0E9FF02221E4904F18600FEF723
:105F200037FDA0784FF0000510F0010F20D0206A57
:105F30003C2607880CF090FEA8B9217884F8BB10A5
:105F4000A4F8BC7084F8BA60607B10B984F8BE50C5
:105F500003E094F8480084F8BE0002220E4904F1E0
:105F6000B000FEF715FD012084F88100BDE8F08146
:105F70004FF6FF773C260CF06FFE0028F3D1217816
:105F800084F8BB10A4F8BC7084F8BA60607B002869
:105F9000DFD1DBE71FB70100B7B601002DE9F04103
:105FA000734E0F00044627D004F1300015F065FC55
:105FB000C0B9A078C0F3C000002838D004F1300088
:105FC00015F006FC054604F1300015F056FC281AC1
:105FD000C0B215F082FC71680844706004F13000B2
:105FE00015F076FC04F1300015F002FC0EF0C4F957
:105FF000217925200EF08CF95E4D94F876800021F1
:10600000A8680180017801F0DF010170618813291F
:106010002DD011DC102908BF02213DD0122908BF64
:10602000062139D040F273612D20FAF747FE204651
:10603000BDE8F04100F082BE152918BF1D29F1D13D
:106040004FF0010114F09FFCA868B8F1000F01782F
:1060500001F0DF0141F02001017013D004F177015C
:1060600014F0B3FC0121A86814F0B6FC16E000217E
:1060700014F089FCA868017801F0DF0141F02001EB
:1060800001700BE004F1700114F09FFC94F86F10A4
:10609000A86814F0A1FC01E014F075FCA04604F11E
:1060A0006901A86814F0A1FC98F86810A86814F0B9
:1060B000A3FC60881D2818BF152805D094F854202B
:1060C000216DA86814F04FFCA8680DF0FDFE0420B7
:1060D000307057B36088102823D004F13000B568C1
:1060E00015F076FB074604F1300015F0C6FB381AB0
:1060F000401EC0B26188282201F05CF90544A078F6
:10610000C0F3C00030B17068054415F0EAFB2844C4
:10611000C4F820012279294600200DF023FF20B980
:1061200013E0217900200DF0A9FA6088132815D01A
:1061300010DC102808BFBDE8F08112280ED000BF87
:1061400040F6BC512D20FAF7B9FD40F6A8512D209C
:10615000FAF7B4FD152818BF1D28F1D12279BDE842
:10616000F0414FF001014FF000000EF045B8000083
:10617000B4120020240100202DE9F0434C4F814649
:1061800083B0387802281CBF3878032805D040F641
:106190002D514FF02D00FAF791FD464C6568287B94
:1061A00018B1FEF7ADF885F84700D4F808C061686B
:1061B0004FF000089CF800000A6A00F00F06002A61
:1061C00018BF92F87380B9F1000F53D001F1690341
:1061D00091F86820C0090CF1090113F046FE00286F
:1061E00048D06568052E26D1A06890F8240000F0FC
:1061F0001F0010281FD9E87BE8B1FF208DF80000B0
:106200006A460521284600F021FB90B395F8E80086
:106210008DF804009DF8040058BBA0682222C11C20
:1062200005F1E90018F063FC0222234905F1E000C2
:10623000FEF7AEFB1EE04146A06814F0EDFAC0B1D7
:106240003A7860683146022A1CBF3A78032A05D0A2
:1062500040F606514FF02D00FAF730FDE2683B782A
:1062600052696FF0070C0CEB8303D2589047054638
:1062700001E0FFE70125B87B18B10DF013F90CF030
:10628000A1FE002D04BF03B0BDE8F083606815F0E7
:106290003AFB38B10DF042F9E068806803B0BDE820
:1062A000F0430047606803B0BDE8F04300F046BD2E
:1062B000B41200202401002073B7010030B583B070
:1062C000032902D0052972D06DE00446FF208DF825
:1062D00000006A460321204600F0B8FA002862D088
:1062E000207B374D00283CD09DF8000094F8D61054
:1062F0008DF804109DF8041099BB227884F8D720FB
:10630000FF2811D004F1D902511EFDF779FA30B1FE
:1063100094F8D80040F0020184F8D81012E041F25D
:1063200018012D20FAF7CAFCA8680178C1F3801281
:1063300084F8D820D0F80320C4F8D920B0F807009A
:10634000A4F8DD0094F947007F2827D084F8DF0007
:106350007F2184F8471002221A4904F1CE00FEF78B
:1063600017FBA86800210180042114F00CFB04F144
:106370006901A86814F039FB94F86810A86814F053
:106380003BFB94F85C20A16DA86814F03EFB0E491D
:1063900005200870A8680DF097FD0EE040F66C61CE
:1063A0002D20FAF78BFC03B0012030BDFFE7074931
:1063B000096811B188470028F5D003B0002030BD2E
:1063C0002401002089B70100B41200203801002008
:1063D000094A0300506801D000F0B0BC002908BF92
:1063E0007047D168054A096912786FF00F0303EB13
:1063F000820289580847000024010020B4120020BE
:1064000070B504464088102810D0114DA87B20B1EB
:106410000CF018FE40200DF053F80E4880680DF087
:1064200053FDA07810F0040F0BD105E02046BDE825
:1064300070400121FFF7B2BD0021227908460DF01E
:10644000DBFE00200DF074FB0220287070BD000000
:10645000B41200202401002070B51C4C6568287B14
:1064600018B1FDF74DFF85F84700194DA87B18B10D
:106470000DF018F80CF0A6FD606815F044FAA8B10C
:1064800060684188C1F30012002A04BFC1F3C00153
:1064900000290BD0297802291CBF297803290AD0AA
:1064A00040F637414FF02D00FAF708FC6068BDE870
:1064B000704000F043BCE1682A78C9686FF00703B8
:1064C00003EB82028958BDE8704008472401002090
:1064D000B41200202DE9F04FA94D044689B0287868
:1064E00000287DD12078FF287AD00020A88168601C
:1064F0006870A87084F88100A24804AEA24F0FC84B
:1065000086E80F00F8684068079004A80DF0C4FA08
:106510000DF032FC0CF0C6FF0CF054FD9B480DF062
:10652000E7FE9B480DF0EEFE002012F09BFB04F10D
:10653000300015F0CDF904F1300015F059F90DF0E7
:106540001BFF217925200DF0E3FE94F910000DF0DA
:10655000AFFC217900200DF055F90126A860002834
:1065600001BF2E70002009B0BDE8F08F04F150018A
:10657000E06C13F0ECFB814604F15801E06C13F081
:10658000E9FB8046B9F1000F1CBF94F824000028F5
:106590004FD000BF4FF0010A207F002801BFA07E2E
:1065A0000028A07810F0040F74D0D4E918016FF01F
:1065B000004281EA020171EA000008D018F0F1F807
:1065C0000246D4E91830D21A71EB000002D2BAF1B7
:1065D000000F79D0FDF77EFA6E49A0FB01BA00E00A
:1065E00023E018F0DEF810EB0B0041EB0A01C4E9E0
:1065F00018014FF0010BE07EFDF71CF88246A07EEB
:10660000002818BFBAF1000F03D0E07EFDF706F8AE
:10661000C8B194F8820000281CBF207F00282BD02E
:1066200094F8680001281CD021E009B00C20BDE8D6
:10663000F08FB8F1000F1ABF94F8250000284FF032
:10664000000AA7D1A8E7324684F8686004F169011E
:10665000504613F042FCE17E04F16900FCF7F6FFBE
:106660000AE094F86E0000F0C000402813D05946AC
:1066700004F1690013F020FCA07810F0040F23D07F
:10668000E07EFDF75DF85FEA000A1DD01021FDF7FE
:10669000F9FD40B118E0FCF7BDFF324604F1690195
:1066A00013F01BFCE8E7324684F8766004F17701CA
:1066B000504613F012FC04F17701B86814F085F924
:1066C0000121B86814F088F994F8841049EA0800A8
:1066D0008DF800109DF80010002918BF0121084313
:1066E00019D0A078C0F30010002804BFB4F845000A
:1066F000C0F30B060FD100BFFEF706FDC0F30B0081
:10670000B042F9D0B4F8451060F30B01A4F845107D
:10671000002084F88400B868C01CFCF767FFA873E9
:10672000A07810F0010F27D01B48D0E90210CDE966
:106730000210FF20287702A8266AFBF7CFFAD8B903
:10674000029CB44213D0727A607A06F10A0304F113
:106750000A0113F08AFB50B1A0782877D4F803001F
:10676000C5F81D00B4F80700A5F8210004E002A850
:10677000FBF7B4FA0028E3D009B00020BDE8F08FA1
:10678000B41200203073000024010020D6BE898E90
:106790005555550040420F000C73000010B50446DB
:1067A000FFF798FE002818BF10BD054800780128A3
:1067B00003D000212046FFF7F1FB002010BD0000B0
:1067C000B41200202DE9F0411E4E1F4D7468287848
:1067D000002808BFBDE8F081287802281CBF28786F
:1067E00003280CD1207B20B12746FDF789FD87F8CF
:1067F0004700A87B18B10CF055FE0CF0E3FB12F03B
:1068000015FA3078C0B1204615F07DF8A0B1706857
:106810008178C1F3C00121B1BDE8F0410121FFF74A
:10682000BDBB0446303015F028F828B12046BDE83D
:10683000F0410121FFF7B2BB2046BDE8F04100F076
:106840007DBA000024010020B41200202DE9F0439D
:1068500083B01546044603290FD094F88000002821
:1068600018BF012000264FF00109052904BFA178B7
:1068700011F0010F6ED060B16CE0A0784FF000060F
:10688000C0F340004FF00209002804BF03B0BDE888
:10689000F0833848DFF8E080807B80B113F089FB1B
:1068A0002870FF2814D0C0B26A4602A9FCF7A8FFDE
:1068B00048B169469DF8080014F09AFD064628780C
:1068C000FF280ED104E040F69B712D20FAF7F6F96F
:1068D000D8F8081011F8030BC0F3801014F088FDED
:1068E0000646D8F8081094F86F2004F1700311F8E8
:1068F000030BC0F3801013F0B8FAD8F8081007465D
:1069000011F8030BC0F38010FCF794FF8046FDF7ED
:1069100029F950B14046FCF713FF30B11021FDF7C3
:10692000B1FC002808BF012000D000202978FF29F1
:1069300008BF27EA000106D027B9E27E8A4218BFC5
:10694000002100D10121A27812F0040F01D009B179
:106950000AE018B103B00020BDE8F08326B9607CDE
:10696000002818BF4845F5D103B04FF00100BDE83D
:10697000F0830000B4120020240100202DE9F84F1C
:1069800004460A9800F0010AC0F3400B04F1260007
:10699000FF2828BFFF200A3080B2FF2828BFFF2031
:1069A0005AEA0B0EA4F1D90C1FFA8CFC0CF1F60577
:1069B00044F2552605FB06F54FEA955500950CFB6C
:1069C00006F54FEA955808F0FF056FF0F60615FB3F
:1069D00006F505EB0C0707F1080C1FFA8CFC0CF10F
:1069E00005094FF0000C4FF4C8754FF4BF7601F560
:1069F000A57100F01681BBF1000F17D0082A04BF63
:106A0000AB4640200CD0042A04BFB346102007D068
:106A1000022A07BF0CF1180B04200CF1280B0820E8
:106A200000EB800E0EEB801058441AE0DBB1082A10
:106A300004BF28464FF0400B0FD0042A04BF304655
:106A40004FF0100B09D0022A07BF0CF118004FF0CD
:106A5000040B0CF128004FF0080B0BEB8B1B00EB29
:106A60008B00084419E0082A04BFAB464FF0400EE3
:106A70000FD0042A04BFB3464FF0100E09D0022AEB
:106A800007BF0CF1180B4FF0040E0CF1280B4FF060
:106A9000080E401D00FB0E1058449C3002F00C0103
:106AA000002918BF2821084418BF00F5356017D108
:106AB000082A04BFAB4640210CD0042A04BFB346C9
:106AC000102107D0022A07BF0CF1180B04210CF18A
:106AD000280B0821C1EBC10E0EEB411159440844AB
:106AE0009830BAF1000F18D0082A08BF40210CD006
:106AF000042A04BF3546102107D0022A07BF0CF133
:106B0000180504210CF12805082101EB410202EBD4
:106B1000011129440844BDE8F88FDBB1082A04BFFD
:106B200029464FF0400A0FD0042A04BF31464FF0E7
:106B3000100A09D0022A07BF0CF118014FF0040A0D
:106B40000CF128014FF0080A0AEB8A1A01EB8A01BE
:106B500008441FE004F10E01FF2928BFFF2189B27C
:106B6000082A04BFAA464FF0400B0FD0042A04BFE6
:106B7000B2464FF0100B09D0022A07BF0CF1180AD9
:106B80004FF0040B0CF1280A4FF0080B491D01FBD4
:106B90000B005044D92C98BFBDE8F88F93B10099F1
:106BA000082A7DD0042A7CD0022A7BD080E000BF56
:106BB00002EB821205EB820202F5A57201FB0200D4
:106BC000BDE8F88F08F0FF01082A04BF2B464024D7
:106BD0000CD0042A04BF3346102407D0022A07BF72
:106BE0000CF1180304240CF12803082404EB84148A
:106BF00003EB840303F5A57301FB03003904090CBF
:106C000008BFBDE8F88F082A7ED0042A7DD0022A6A
:106C10007CD085E009FB0100284400F5A570BDE8A3
:106C2000F88FDBB1082A04BF28464FF0400A0FD086
:106C3000042A04BF30464FF0100A09D0022A07BFC9
:106C40000CF118004FF0040A0CF128004FF0080A6C
:106C50000AEB8A1A00EB8A00084419E0082A04BFEC
:106C6000AA464FF0400B0FD0042A04BFB2464FF0A3
:106C7000100B09D0022A07BF0CF1180A4FF0040BC1
:106C80000CF1280A4FF0080B401D00FB0B1050447C
:106C9000D92C98BFBDE8F88FBBB10099082A02E053
:106CA0000DE009E00DE00AD0042A05D0022A08D040
:106CB0000CF1280508227BE73546102278E74022B0
:106CC00076E70CF11805042272E708F0FF01082AA4
:106CD00004BF2B4640240CD0042A04BF33461024A2
:106CE00007D0022A07BF0CF1180304240CF1280373
:106CF000082404EB841403EB840303F5A57301FB60
:106D000003003904090C02E011E00DE011E008BFB6
:106D1000BDE8F88F082A0AD0042A05D0022A08D034
:106D20000CF12805082175E73546102172E740214E
:106D300070E70CF1180504216CE700002DE9F04123
:106D40000446B0F84800304E401CA4F84800B07B20
:106D5000002520B10CF0A6FB0CF034F9B5733570AA
:106D600094F8810028B12046BDE8F041012114F0DB
:106D7000DFBD607B002840D0B4F8481088423CD882
:106D80000121204614F0D4FDA07810F0010F20D08E
:106D9000206A432607880BF05FFF002818BFBDE874
:106DA000F081207884F8BB00A4F8BC7084F8BA6045
:106DB000607B10B984F8BE5003E094F8480084F872
:106DC000BE0004F1B000BDE8F04102220F49FDF71A
:106DD000DFBD4FF6FF7743260BF03EFF002818BFBC
:106DE000BDE8F081207884F8BB00A4F8BC7084F87A
:106DF000BA60607B0028E0D1DCE72046BDE8F041C6
:106E0000002114F095BD0000B4120020B7B60100B7
:106E1000F8B50A7912F0180F5ED105460C0028D09B
:106E2000206800282AD014F0D3FC237B627B042B3B
:106E300008BF0823042A08BF08222A494FF47A7C95
:106E4000082B31F8131001F2E731B1FBFCF708BF52
:106E50004FF0400C17D0042B08BF4FF0100C12D08D
:106E6000022B07BF4FF0040C12214FF0080C192120
:106E70000AE040F20C412D20F9F720FF40F20D41CD
:106E80002D20F9F71BFF14211CFB01F10026082B14
:106E900008BF4FF0400C21D0042B08BF4FF02E0C40
:106EA0001CD0B446022B0CBF18232823634419447A
:106EB00011FB00716FF07F0303EBC0100144A08849
:106EC000009000232846FFF759FDA16800F588705F
:106ED00081423CBF3046F8BD0120F8BD4FF4A87395
:106EE000E4E700001C73000070B5044680F88F30A2
:106EF0000888A4F89000FF2084F8AD004FF6FF70DA
:106F000016460D46A4F8AE00002B18BF70BD686988
:106F100013F098F8A4F8A600A88BA4F8A800E88BB2
:106F2000A4F8AA0095F8090384F8AC00A07E002517
:106F300048B194F86800012805D194F86E0000F07B
:106F4000C00040282ED094F8820040B194F8680028
:106F5000012804BF94F86E0010F0C00F22D004F195
:106F60009A0017F0E1FB1C48FF2E80680178C1F3FE
:106F7000801184F89310D0F8031021D0C4F8A01029
:106F8000B0F80700A4F8A40004F19402511E3046A2
:106F9000FCF736FC78B194F8930040F0020084F8D6
:106FA000930070BDD4F86900C4F89A00B4F86D007D
:106FB000A4F89E00D7E740F68B412D20F9F77EFE1E
:106FC000C4F89410B0F80700A4F89800C4F8A050D2
:106FD000A4F8A45070BD0000240100202DE9F84F52
:106FE0004FF0FF0904464FF001088DF800906A4603
:106FF0000521FFF72BFC00287ED0564F256A6679C5
:10700000B868D0F80F10A961D0F8131021F07F41B3
:107010002962B0F8190013F009F882466861B8686F
:107020005146807D13F019FA2885B8685146B0F8AA
:10703000170013F009FA6862B868B0F81B10A9834A
:10704000B0F81D10E98300F11F0105F1CE0017F023
:1070500066FBB86890F8241001F01F0185F8D9107C
:1070600090F82400400985F8090385F86E6005F161
:10707000660085F86F6080F80A9016F00C0F0CBF60
:107080000021012105F1300013F0F3FE94F91010F6
:10709000284613F0E1F800239DF800202046216ADD
:1070A000FFF722FF206A01220188A4F8CA1090F895
:1070B000CD1084F8CC10214600F056FCB868216A47
:1070C000D0F80320C1F80320B0F80720A1F807206A
:1070D0000178C1F38015216A8D70216ACE1C1E498A
:1070E000D1F8009000210180082113F04CFC002110
:1070F000B86813F055FA00E025E000224946B86868
:1071000013F0BFFA0623002204F16901B86813F0F6
:1071100052FB94F86810B86813F06EFC2946B86802
:1071200013F05AFC062301223146B86813F043FBE2
:107130006179FF200DF0ECF8B8680CF0C5FE074946
:107140000920087002E02046FFF7F8FD4046BDE840
:10715000F88F0000240100200C730000B4120020FE
:107160002DE9F84F4FF0FF0B04464FF0010A8DF860
:1071700000B06A460521FFF769FB70B15B4EDFF88E
:107180006881B16898F81C2008F11D0311F8030B01
:10719000C0F3801012F069FE20B14FF0000A504693
:1071A000BDE8F88FB068216A0127037891F8CD20F7
:1071B000C3F340131A4081F8CD20256AD0F80F1090
:1071C000A961D0F8131021F07F412962B0F81900AD
:1071D00012F02CFF81466861B0684946807D13F04B
:1071E0003CF92885B0684946B0F8170013F02CF92F
:1071F0006862B068B0F81B10A983B0F81D10E9836D
:1072000000F11F0105F1CE0017F089FAB06890F87F
:10721000241001F01F0185F8D91090F824004009CE
:1072200085F8090385F86E7005F1660085F86F70C2
:1072300080F80AB000273946363813F01AFE94F960
:107240001010284613F008F800239DF8002020466F
:10725000216AFFF749FE0222254904F18600FDF765
:1072600097FB206A02220188A4F8CA1090F8CD008A
:1072700084F8CC001F4904F1C000FDF789FB206AA7
:107280000025B0F800900BF0E7FCA8B9217884F84D
:10729000BB10A4F8BC9084F8BA50607B00281ABFD9
:1072A00094F8480084F8BE0084F8BE7002221249A7
:1072B00004F1B000FDF76CFB88F800700022214655
:1072C000206A00F051FBB068216AD0F80320C1F8B1
:1072D0000320B0F80720A1F807200078216AC0F346
:1072E000801088705BE70000B412002024010020A9
:1072F0001FB701000FB70100B7B601000248012116
:107300004068FEF74BBE000024010020030000008F
:1073100001000000000000000000010000002CA699
:10732000E0A1000020A800000000000020A800004C
:107330005964000079610000D16300000000000082
:10734000BD62000001640000ABB60100B1B60100EF
:107350009D670000C5670000FD7200004C730000CF
:10736000447300004073000010B5421E022A03D986
:10737000CA212F20F9F7A2FC401E102902BF0A499A
:1073800031F8100010BD122914BF1329074907D086
:10739000152908BF064903D0D8212F20F9F78EFC04
:1073A00031F8100010BD0000FAB80100F4B8010077
:1073B00000B90100421E10B5D2B2012A05D91D291B
:1073C0001ED0EE212F20F9F779FC132914D008DC08
:1073D000102902BF0D4830F8120010BD12290BD041
:1073E00005E0152908BF0A4807D01D2908D04FF429
:1073F00081712F20F9F762FC064830F8120010BDA9
:1074000040F25A3110FB01F010BD0000E8B8010055
:10741000F0B80100ECB801002DE9F043044690F803
:10742000280183B015460E4640BB21466F480FF039
:10743000E9FE0746202821D05022002104F588705B
:1074400017F0CFFB84F810714FF00108C4F81461F5
:1074500084F8288136B1FDF76FFE00F00700401C6C
:1074600086F83C03204614F0E9F8002808BF61269E
:107470002FD0204614F0D4F820B10AE003B00C203D
:10748000BDE8F083204614F0DDF8002808BF502640
:1074900000D05A26684611F097FC9DF8000000289D
:1074A00014BF0127002701A811F076FC9DF8040005
:1074B000002818BF0120384318BF0A3611F0CAFB54
:1074C000002818BF183604D111F066FB002818BF39
:1074D0000F36A4F83861022084F83A0184F83B8121
:1074E000002684F8306117F051F90746B4F8389156
:1074F00011F026F84F4598BF4F463844CE3087B23A
:10750000204614F097F878B316F0B6FF00F5CD607A
:1075100081B2284611F034F92844C4F8340117F038
:1075200040F9C0197141C4E9500184F81881E6841A
:10753000204614F079F848B120460121FEF7C0FA40
:1075400000F23110281AA0F57F7005E0012014F038
:10755000C4F900F23110281AC4F81C014FF0FF30B2
:107560004108C4E954012BE0FFE720460021FEF763
:10757000A7FADFF87C8000F23110C4F83401B8F8C3
:107580000410002000291CBFE18C002907D0FDF762
:10759000D3FDB8F80410B0FBF1F201FB1200074470
:1075A00017F0FFF8C0197141002DC4E9500104BF64
:1075B0004FF0FF30410801D040197141C4E9540136
:1075C00094F8100104F598710EF02EFF48B1A4F85C
:1075D00048610021204614F060F803B00020BDE8A7
:1075E000F0834FF4F7713020F9F768FBBBBB010063
:1075F0003C01002001498880704700003C010020C8
:1076000005480021017001228270417042F2107120
:10761000818000F003B800003C0100202DE9F04318
:10762000414E85B0D6E90201CDE900016846FAF77E
:1076300055FB0127002510BB009C94F82801C8B118
:1076400084F858710121204614F027F894F8280195
:1076500080B194F810010FF045FB94F810010FF081
:10766000B9FC94F810010FF093FC002818BF84F8BF
:1076700028510FD06846FAF731FB0028DCD0DFF83C
:10768000AC8088F80170D6E900014FF6FF77CDE9AC
:10769000020127E040F20B213020F9F70FFB02989E
:1076A00000281CBF90F8941320291BD00088B842F2
:1076B00018BF4FF0200930D00121FAF705FA040075
:1076C00016D094F894030FF085FC84F84C5394F88A
:1076D00094030FF05DFC84F89493D6E90001CDE9A2
:1076E000020115E002A8FAF7F9FA0028D7D014E051
:1076F0004FF491713020F9F7E1FA029800281CBF8D
:1077000090F89413202903D00088B842D4D104E023
:1077100002A8FAF7E3FA0028EFD088F8015005B084
:107720000020BDE8F0830000008500003C0100203F
:1077300001490870704700003C01002008494FF4DF
:107740007A72B1FBF2F110B501F2DF1113F0B5FB63
:10775000B0F5296F28BF4FF4296080B210BD00003A
:107760007D52010010B504460CF06EFA08498A6893
:10777000904209D8606941F64C5282429CBF4878D9
:10778000002804BF012010BD4FF0000010BD000014
:107790003C0100202DE9F84F002504464FF47A778C
:1077A000062980F0D780DFE801F0079A03989FBD93
:1077B000042084F84C0384E0D4F89C0300281CBF08
:1077C00094F8620300286AD094F84C03032866D129
:1077D00094F86F6016F050FE014694F809030C28E7
:1077E00004D340F28A310620F9F768FA5C4A32F88D
:1077F0001000014400F5C8601FFA80FA1FFA81F8F2
:1078000030460CF05BFBD4F89C1316F00C0FA1EB88
:1078100000090ABF30464EF660200CF09DFB00F2D6
:10782000E730B0FBF7F0A9EB000930460CF046FB5F
:10783000D4F8201316F00C0FA1EB000B0ABF304652
:107840004EF660200CF088FB4AF2A1310844B0FBF0
:10785000F7F0ABEB0000A0F1600101FB08F1B1FB18
:10786000FAF1292202EB50006031A0EB510200EB4B
:1078700051004A4501D8484501D210F019FF414650
:10788000606910F07DFF616941F64C52914234BF4E
:10789000022100210844C4F8540384F8625331489B
:1078A0004078002884D10095B4F8141301230022F5
:1078B000204600F02FF920B140F20E713020F9F788
:1078C000FDF90CF0F5F90FF0C1FCA4F89253B4F8EF
:1078D000BC00A4F85E0384F86153BDE8F88F032070
:1078E00084F84C03BDE8F88F0CF0BAF9C4F89C0397
:1078F00094F86F000CF0E2FAD4F89C13884204D993
:1079000040F2E3313020F9F7D9F994F86F000CF028
:10791000D5FAD4F89C13091A124882681144816080
:10792000BDE8F88F254694F86F4020460CF014FB14
:107930004DF641710844B0FBF7F014F00C0118BF8C
:107940002821084400F1BD012846BDE8F84F13F096
:10795000C1BA00BF40F299713020F9F7AFF90000C9
:107960003C8500003C0100202DE9F84F00260C4624
:107970008146012742B1012A63D0022A67D040F232
:10798000C3713020F9F79AF90CF05EF984F81861A8
:107990008246D4E95058D4F8140180F81F6384F863
:1079A000286184F829710121D4F81401FCF7C0FA88
:1079B000D4F81401C0F88053C0F88483D4F81411AB
:1079C00094F8100181F89403D4F81401C0F898A336
:1079D000D4F81401C0E9E258D4F8145185F84C6386
:1079E0000023A5F890631A4619462846009600F031
:1079F00091F8002861D1C5F84863C5F8406385F85F
:107A00004C73A5F85E63A5F85C6385F86163B5F80F
:107A1000BC00401EA5F8BC00A5F892630CF048F924
:107A20000FF014FC94F810014A4639490FF0A2FAFD
:107A3000002818BFBDE8F88F40F2AC713020F9F78C
:107A40003DF90CF001F9C9F89803BDE8F88FD9F8B1
:107A500098A384F81861D4E95058D4F8141101207F
:107A600081F81F0384F8286184F829710121D4F872
:107A70001401FCF75DFAD4F81401C0F88053C0F883
:107A80008483D4F8141194F8100181F89403D4F885
:107A90001401C0F898A3D4F81401C0E9E258D4F84E
:107AA000145185F84C630023A5F890631A461946D3
:107AB0002846009600F02EF820B140F21F21302019
:107AC000F9F7FCF8C5F84863C5F8406385F84C73CE
:107AD000A5F85E63A5F85C6385F86163B5F8BC0042
:107AE000401EA5F8BC00A5F892630CF0E1F80FF079
:107AF000ADFB94F810014A4605490FF03BFA002807
:107B000018BFBDE8F88F40F2BD713020F9F7D6F804
:107B1000B58100002DE9FF4F8FB004460020029090
:107B200094F86F009B4689460A93079016F0A4FCD0
:107B3000014694F809030C2875D2F94A32F810006E
:107B4000084485B294F8C6000E280CBF012000201E
:107B500009901198002804BF94F84C03032828D1F9
:107B6000099830B3B4F8E403484522D1D4F854035B
:107B7000C4F840036069C4F84403B4F89203B4F84D
:107B800026130844C4F84803204600F0E3FCD4F868
:107B9000E8036062B4F8E6032085D4F8EC03606182
:107BA000B4F8F003A083B4F8F203E083022084F871
:107BB0004C03B4F8BC0004F55A76A9EB00000FFAA8
:107BC00080F8B4F89003A9EB000007B2002F0BDA9D
:107BD000D4F88003D4F884134746C4E9E2010120B5
:107BE0000A90002084F86303CE484FF0000A8078A2
:107BF00000287CD010F07AFD002878D0B4F8380343
:107C000002287CD394F84C03022878D094F86203BD
:107C1000002874D1606941F64C5188426FD394F8C2
:107C200009130C2904D340F28A310620F9F746F8EB
:107C3000BB4A32F8111094F84C2301F5C86189B29F
:107C40000D46012A16D010F09BFD0146626941F6EF
:107C50004C5082422CBF002002200844B4F8262356
:107C60004244D11BD4F85423C4F85403821A01FBB4
:107C700002AA41E094F8C900032854D094F86F1088
:107C800094F81F0312F0CFFA616A08440590294660
:107C9000D4F8440310F074FDD4F84023D4F848130A
:107CA000821A01FB02AAC4F840032946059810F085
:107CB00067FDD4F85013C4F85003411A8A4429468A
:107CC000606910F05DFD626941F64C518A4234BF33
:107CD000022100210844B4F826234244D11BD4F8E1
:107CE0004823891AD4F85423821A491E00E006E07A
:107CF00001FB02AAC4F85403012084F86203CDF802
:107D000014A094F84C034AF2A13A90B1012800F073
:107D10000B8102287ED0032800F0388140F28E517A
:107D20003020F8F7CBFF616AD4F84403084405908B
:107D3000ADE794F86F1094F81F0312F074FA074639
:107D4000606A2946384410F01BFDC4F850032946E8
:107D5000606910F015FD626941F64C518A4234BFEA
:107D6000022100210844C4F8540306A907A80BF017
:107D70008BFED4E9E201DDE906320FF033FC04901A
:107D800094F86F5028460CF0E7F84DF6417108441E
:107D90004FF47A78B0FBF8F015F00C0118BF2821E9
:107DA000084400F1BD01204613F094F8D4F898037C
:107DB000029094F86F000CF0CFF85044B0FBF8F04C
:107DC000616A029A3944081AD4F85013401A1044D0
:107DD000049A2038801A02904800218D603094F86F
:107DE0006F50471815F00C0F0ABF28464EF660205A
:107DF0000CF0B2F85044B0FBF8F828460CF05EF8EE
:107E00004044384400F122014648C160D4F8980348
:107E1000029900E009E0081AB0F5F27F80F03181A4
:107E200040F227513020F8F749FF616AD4F8440343
:107E30000844294610F0A4FCC4F8500329466069A0
:107E400010F09EFC626941F64C518A4234BF022117
:107E500000210844C4F8540394F86F5028460CF0ED
:107E60007BF84DF6417101444FF47A78B1FBF8F09C
:107E700015F00C0118BF2821084400F1BD0120466F
:107E800013F028F8B4F82603E0B9BBF1000F19D0BD
:107E900094F86F5028460CF05FF800EB0A01B1FB34
:107EA000F8F0D4F85013626A0844D4F8441311442B
:107EB0000F1A28460CF002F8D4F89C13081A38441C
:107EC000203806E0616AD4F844030844D4F850131B
:107ED000401A0290D4F84823D4F84013D4F8500341
:107EE00094F86F5001FB02004000218D603047186C
:107EF00015F00C0F0ABF28464EF660200CF02CF847
:107F000000EB0A01B1FBF8F828460BF0D7FF054952
:107F100040443844C860012084F84C03B1E00000BC
:107F20003C8500003C0100206169D4F85403091A23
:107F300079430291B4F82613D4F840C301EB080248
:107F4000D4F84813D4F85033521A0CFB0131521EA6
:107F500002FB00104000218D603094F86F504718EC
:107F600015F00C0F0ABF28464EF660200BF0F4FF08
:107F700000EB0A014FF47A70B1FBF0F828460BF0E1
:107F80009DFF8A4940443844C8607AE0606978437C
:107F90000290BBF1000F07D0B4F82613002904BFEC
:107FA000002184F8631303D094F86313002968D187
:107FB000D4F8541307FB1100029094F8C50026284A
:107FC0001CBF94F8C60026280BD1B4F8E403A9EB33
:107FD000000000B2002804DB94F8E703002818BF73
:107FE00007900A9808B3B4F82603F0B9D4F89C03B4
:107FF00000287CD094F86F0010F00C0F14BF4EF6E0
:1080000060200BF0A9FF00EB0A014FF47A70B1FB7E
:10801000F0F002990D1A94F86F000BF04FFFD4F8AE
:108020009C13081A284420380290B4F82603D4F888
:108030005413404448434000079D00F1600715F089
:108040000C0F0ABF28464EF660200BF085FF00EBB0
:108050000A014FF47A70B1FBF0F828460BF02EFFBE
:1080600008EB0001C8195149C860606941F64C51DC
:10807000884206D202AB4E4A394612F0D4F984F84F
:10808000630302990598494A081A0290D4F85433B8
:108090006069D168C01AA0F291101061814298BF46
:1080A00008460025C4F82003357069203081D4E9E2
:1080B000E2120298081842EB0501C6E9040104F136
:1080C000300012F005FFD4F8201308447060D6E9A0
:1080D0000401C4E9E201A4F8909300F06FFA10B132
:1080E00070681E307060B572B4F8100300E039E0BB
:1080F000A0EB090000B20028C4BF0220B0720998AA
:1081000078B3BBF1000F1DD0B4F8381300290CBFB1
:108110000020B4F83A03A4F83A0394F83C23401C36
:10812000504388420ED2B07A60B1B572B4F83A03C7
:10813000401CA4F83A03FCF7E7FF00F00700401CDE
:1081400084F83C0394F8940331460EF06DF938B38B
:10815000119880F0010084F8600313B00020BDE89E
:10816000F08F04E040F279513020F8F7A7FDBBF121
:10817000000FC9D194F84C030028E3D0D4F854136D
:108180006069411A304612F00CF90004000CD9D095
:108190001C99002918BF0880012013B0BDE8F08F9A
:1081A00040F2D7513020F8F789FD00003C01002053
:1081B000480100202DE9F04F83B004000AD00025CB
:1081C000092980F09581DFE801F009A8B2B2ADF28B
:1081D000F1F0EF0096213020F8F770FDC4F89C53C1
:1081E00094F86013204691B1B0F85E23B0F8BC104B
:1081F0008A4207D1B0F81423511AA0F81613A0F838
:10820000BC200FE0511AA0F8161391B208E0B0F8A4
:108210005C13B0F8BC20891AA0F81613B0F85C13F0
:10822000A0F8BC10D0E9DE12C0F88013C0F8842397
:1082300000F07AFA94F81B03002804BF03B0BDE8ED
:10824000F08F94F86F0010F00C0018BF282000F297
:10825000EF1716F09BFA692898BF6920A0F169030F
:10826000D4F8541362690B449A4298BF002503D98D
:10827000511A081A00F169059F4E307818B9206B21
:10828000A84298BF054694F86FA004F1300012F0A0
:108290001FFED4F8201300EB010B50460BF05CFEE0
:1082A0004DF6417840444FF47A79B0FBF9F01AF07A
:1082B0000C0118BF28210844584400F1BD0AA5EB61
:1082C0000A05002DD8BF002502200DF055FF85427C
:1082D00028BF0546022128460DF05EFE00280CBF8F
:1082E000554455463A462946204612F039FDB060BD
:1082F00094F86F0004460BF02FFE4044B0FBF9F0F9
:1083000014F00C0118BF28210844BD30281A03B00E
:10831000AD38BDE8F04F0FF075B803B0BDE8F04FD1
:1083200000F032BB03B0BDE8F04F0CF02BB816F0F4
:1083300038FAD4F88023D4F88433801A61EB03012F
:1083400000221346121A73EB010204DB40F254615F
:108350003020F8F7B3FC421C71F1000104DB40F25D
:1083600055613020F8F7AAFC6169002914BFB0FB01
:10837000F1F0284694F8C6100E2919D0B4F8BC10B4
:10838000B4F85E230B18D31A1BB2002BAEBF501CDF
:10839000401C0844A4F85E0394F861038DF80000C3
:1083A0009DF8000098B909E09EE090E087E09FE02A
:1083B000B4F85E03401CA4F85E0308E0B4F85E0362
:1083C000B4F81413884204BF401CA4F85E03B4F848
:1083D000920301AF401CA4F89203B4F8F800B4F87B
:1083E000F610401AB4F8BC10401E084486B243E0B0
:1083F00000231A4620460097FFF78CFB30B1012876
:1084000023D040F294613020F8F758FC606F0028C8
:1084100004BF03B0BDE8F08FB4F85E03B4F8F220F7
:10842000801A01B20029DCBF03B0BDE8F08FB4F8B8
:1084300078000144491E91FBF0F189B201FB002054
:10844000A4F8F20003B0BDE8F08FB4F85E03B4F80E
:108450001013421A12B2002A09DABDF804200244AD
:10846000B21A12B2002AB8BFA4F85E1304DBBDF83A
:1084700004100844A4F85E03B4F85E13701A00B246
:108480000028B5DA94F8C90000280CBF3E20082067
:1084900084F8E5000222194904F1DC00FCF778FABF
:1084A000204613F0A4FC84F84C5394F894030EF087
:1084B0006FFD202084F8940303B0BDE8F08F012005
:1084C0000DF05AFD03B0BDE8F04F11F070BD94F807
:1084D0004C03042802BF84F84C5303B0BDE8F08F6E
:1084E000BB213020F8F7EAFBC1213020F8F7E6FB8A
:1084F000C5213020F8F7E2FB3C010020B551000017
:108500000000000000000100000000000000020068
:10851000000000000000020000000000141E000027
:10852000301100000000000060EA000000000000C0
:10853000000000000000000060EA0000F401FA0002
:10854000960064004B0032001E0014000A00050073
:108550000200010010B50446D0F8EC0361698842BE
:1085600009D1B4F8F013A28B914204D1B4F8F213FC
:10857000E28B914214D02188A4F8381211F062FDE8
:10858000A4F83A02B4F8F003A4F83C02B4F8F203F9
:10859000A4F83E020222084904F50B70FCF75CFACD
:1085A00002212046FBF7C4FC002084F8C60003200B
:1085B00084F8C90010BD000029B00100024800691C
:1085C000002818BF012070475001002006480549C7
:1085D0000165064941650748054901650649416548
:1085E00070470000A19E000070010020A19F0000C4
:1085F00051B001001C020020F1A600001F4800211C
:108600000161416181701F481D4981601E494160BF
:108610001E4901601E4981621E49C1621E49C16036
:108620001E4981611E4901631E4901621E49C164E0
:108630001E4981641E4941641E4941631E49C1614E
:108640001E4941621F481E4981601F49C1611F497F
:1086500041621F49C1621F4901611F4941611F49B0
:1086600041641F4941631F4981611F4901631F49DB
:1086700081641F49C1641F49816370475001002014
:1086800061A4000070010020619C0000D59C0000E6
:10869000AD9F00000FBE0100C59D000039A4000081
:1086A000A5A50000899E0000DFB2010065B20100AF
:1086B000B1A30000E5A300006DA40000959E00009A
:1086C00009B001001C020020EDA700004DBE010012
:1086D00051BE010027BE0100BBBE010039A700004A
:1086E00099BE010071A70000D9BE0100AFB2010020
:1086F00009B30100B7BE0100064805498165064976
:1087000001660748054981650649C1657047000053
:108710001DA00000700100201DA10000ADE40100BB
:108720001C02002077BE01002DE9F8438E4C012188
:10873000A4F11805217000266060AE80EE702E70E6
:1087400080F81B130088F9F757FC070010D0606809
:108750000088F9F79BFF60680088F9F73DFF6068C3
:10876000B0F81213C1B190F84E11FE2905D018E0EF
:1087700040F69F413120F8F7A1FA90F860118DF88A
:1087800000109DF8001089B190F8C7200123194608
:10879000A83011F068FC88B1606890F84E01FE289E
:1087A00004D0606890F84E0100F054FC616891F8C4
:1087B0001D03002818BFEE801FD10FE06068A0F8ED
:1087C000FA6090F8611180F850110021022001F048
:1087D0006BF9606880F81A630220E5E791F83402CB
:1087E0008DF800009DF8000028B9488D8A8B9042D2
:1087F00088BFE88001D8888BE880B1F81603401E56
:108800001FFA80F8B1F818034044A1F81803B1F832
:10881000F6004044A1F8F60091F8CB0040B991F879
:10882000C62001F1A8000123062111F01CFC28B18B
:108830006068D0F8E8104144C0F8E8106168B1F809
:10884000120301289CBF401CA1F81203B8F1000FCD
:1088500018BF81F8246381F81A63B1F8162301F177
:10886000A800FBF7F5FD20B140F6E6413120F8F70E
:1088700025FA626892F8C6000B2818BF0C2819D197
:10888000B2F8BC10B2F8E433A1EB030109B200293D
:1088900010DB02F2E63102F1CE0015F040FF0321B9
:1088A0006068FBF745FB606880F8C660FF2180F8D0
:1088B0001E1127E0262811D1B2F8BC00B2F8E4134B
:1088C000401A00B2002809DB82F8C66001F064F9A2
:1088D0000028606880F86C6114D13EE092F8C50011
:1088E000262818BF28280DD1B2F8BC00B2F8E4132E
:1088F000A0EB010000B2002804DB82F8C56001F0A3
:108900004BF950B3384610F015FE0028606817BFC9
:1089100090F81E0380F81E630028BDE8F883134812
:108920000090D5E90601124B124AF9F745FF696933
:1089300000291CBF68780AF0CFFD6068012305217B
:1089400090F8C620A83011F08EFB002808BFBDE8C3
:10895000F883BDE8F843F9F729BFBDE8F8430021E3
:10896000084600F09BBC0000680100209D920000BA
:10897000A5890000E19A00000248002101614161DF
:1089800008467047500100200548406890F81E03D3
:1089900018B10021084600F081BCFAF77DB900004B
:1089A000680100200F490246C878C8B901F11800D3
:1089B00040684AB1097911F0080F03D090F8C70058
:1089C00008280DD001207047416941F64C52914270
:1089D00006D3B0F85420018F914201D3FEF7C2BEF6
:1089E0000020704750010020F8B5FC4C616891F8F8
:1089F0004E21FE2A0CBF0028F8BD91F8C72001F1D6
:108A0000A8004FF00103194611F02DFB002818BFF4
:108A1000F8BD606890F860118DF800109DF80010A6
:108A2000002559B1A0F8FA5090F8611180F8501162
:108A3000BDE8F8400021022001F036B890F8C620C9
:108A400001230421A83011F00EFB060060680CD051
:108A500090F8C61012297CD016297BD017297AD01D
:108A60001D2900F01F8100F041B9D0F8B41011F0B9
:108A7000010F05D0BDE8F8400121092001F014B82C
:108A800011F0020F0BD001210C2001F00DF86068ED
:108A900090F8071141F0010180F80711F8BD11F0BD
:108AA000040F05D0BDE8F8400121132000F0FCBF01
:108AB00011F0080F09D090F8481180F85011BDE866
:108AC000F8400121072000F0EFBF11F0800F05D022
:108AD000BDE8F84001211B2000F0E6BF11F0300F87
:108AE00046D090F863118DF800109DF80010002911
:108AF0007ED190F862118DF800109DF80010C9B178
:108B000090F8C61026291BBF90F8C510262901230E
:108B1000002300F2E63200F5B171FCF763F86068FB
:108B2000D0F8B41021F0200141F01001C0F8B410C9
:108B300080F86251606890F8B41011F0100F57D0AF
:108B400012F027F9A54812F0F0FA6068B0F84E105C
:108B500002E023E028E066E0A0F85011B0F85210DF
:108B6000A0F85211BDE8F8400121152000F09CBF8B
:108B700011F0400F07D0BDE8F8404FF001014FF071
:108B8000240000F091BF11F4807F31D0BDE8F8409F
:108B90004FF001014FF01E0000F086BFBDE8F84025
:108BA00001210B2000F080BF90F8541108290DD24C
:108BB00001F54C72C1F10801C9B21044F8F766F929
:108BC000616891F85421104481F85401606890F86C
:108BD0005411A1F10802042A10D201F59E7208393D
:108BE000C1F10401C9B21044F8F750F9616800E01E
:108BF0005EE091F85421104481F85401606890F8C7
:108C000054110C2938BFF8BD05D040F6C2014FF011
:108C10003100F8F753F880F85451BDE8F8400121CD
:108C2000042000F041BF90F8C813012910D0022998
:108C300018BFF8BD90F8061121B3062180F8501135
:108C40000121022000F030FF606880F8C853F8BDB1
:108C500090F8F0128DF800109DF80010002918BF50
:108C6000F8BD00F5987300F54A71002200F2C93092
:108C7000FBF76CF80121052000F016FF606880F812
:108C8000C853F8BD03210622544812F095F96068D4
:108C900090F81601800810F0010F14BF11200D206C
:108CA0000121CFE7BDE8F8400121062000F0FCBE1D
:108CB000606890F8C610232909D02B292FD03029BD
:108CC00014D1BDE8F8400121112000F0EDBE90F86C
:108CD0006C1102291DD090F86C11012906D190F871
:108CE0006D018DF800009DF8000090B160680123CF
:108CF000002190F8C520A83011F0B5F9F8B16068EE
:108D00000123042190F8C620A83011F0ACF960B11D
:108D100015E0BDE8F8400121172000F0C5BEBDE810
:108D2000F8400121202000F0BFBE606890F8F400F8
:108D300028B1BDE8F8400021122000F0B5BE6068FF
:108D400090F8C5200A2A16D0002E18BFF8BD0123BE
:108D50000021A83011F087F9002800F05D816068DB
:108D600090F8731189B100210E2000F09DFE60681B
:108D700080F87351F8BD90F8491180F85011BDE8A2
:108D8000F8400021072000F08FBE90F8721121B149
:108D900090F8071111F0030F12D090F862118DF8BE
:108DA00000109DF8001031B190F863118DF800109B
:108DB0009DF80010A1B190F86C1101293FD12FE06E
:108DC00000210C2000F070FE606890F8071141F05F
:108DD000010180F8071180F87251F8BD6801002088
:108DE00090F8C61026291DBF90F8C510262900232B
:108DF000012300F2E63200F5B171FBF7F3FE606883
:108E000080F862510021142000F04EFE6068B0F836
:108E10004E10A0F85011B0F85210A0F85211F8BD41
:108E200090F86D118DF800109DF8001039B990F888
:108E3000C62001230B21A83011F015F968B1606834
:108E400090F8A9118DF800109DF80010D9B3BDE875
:108E5000F8400021232000F027BE606890F86E10D3
:108E6000012908BF4FF0010C10D0022908BF4FF0B4
:108E7000020C0BD0042914BF08294FF0030C05D0B5
:108E800040F2D7214FF00600F7F718FF90F86F2057
:108E9000012A08BF012308D0022A08BF022304D0F8
:108EA000042A14BF082A0323EAD190F86E21BCF1EA
:108EB000010F09D0BCF1020F09D0BCF1030F08BFAC
:108EC000042A06D015E03FE0012A12D101E0022A6F
:108ED0000FD190F86F21012B06D0022B07D0032B66
:108EE00008BF042A0ED004E0012A02D10AE0022AB7
:108EF00008D090F8C62001230321A83011F0B3F860
:108F000088BB12E0B0F8BC3000F57972B0F870019F
:108F100011F02CFA20B16168282081F8C500F8BD55
:108F20000021494809F0ACFF76E060680123022186
:108F300090F8C620A83011F096F8A0B9BDE8F84026
:108F40000021162000F0B0BD90F8A6118DF8001099
:108F50009DF8001041B10021252000F0A5FD6068BA
:108F600080F8A651F8BD57E090F8AA118DF80010CE
:108F70009DF8001029B1BDE8F8400021222000F042
:108F800093BD90F874118DF800109DF80010B1B3E6
:108F900090F8780112F0A2FF0028606808D02B4BEF
:108FA00090F8782100F279111B68274898470BE068
:108FB000DFF89CC090F8783100F29B1200F2791132
:108FC000DCF800C02048E04738B1012824D002284E
:108FD00004BF606880F874511EE0606890F8780102
:108FE00012F07CFF4FF0000120B1BDE8F8401C20DA
:108FF00000F05ABDBDE8F8402A2000F055BD90F8B9
:10900000B2018DF800009DF8000028B1BDE8F840DD
:1090100000211D2000F048BD60680123002190F868
:10902000C520A83011F01FF8002808BFF8BD6068FF
:1090300090F8DC03002808BFF8BD0021BDE8F84027
:10904000FF2000F031BD000068010020E402002094
:10905000E802002070B582B005466846F9F700FBCB
:1090600030B332220021009815F0BBFD009E032191
:10907000304611F039FE0098017801F0EF010170DF
:109080002946FBF765FA0021824C152D76D014DCB9
:10909000A5F1020013282CD2DFE800F0302B5DF19F
:1090A000F1302B6B2BF14842BA2B2B35F1F17000CC
:1090B00040F6FE213120F7F701FE202D77D00ADCA3
:1090C000A5F11600092814D2DFE800F03B8F131336
:1090D0001374B5ADB100252D6AD006DC222D68D001
:1090E000232D18BF242D63D003E02A2D7BD0FF2D24
:1090F0007AD040F6AA313120F7F7E0FD6168009898
:1091000091F8501110E0606890F84B11009811F040
:10911000CBFD606890F84A11009811F0C9FDAEE0EF
:109120006168009891F84A110171A8E000980D2239
:1091300002715922427181717721C171102101722E
:109140009DE06168009891F86E110171616891F875
:109150006F11417193E0606800F54C71009811F057
:109160003AFD606800F5A271009811F02CFD86E0D0
:1091700004E048480099FCF709F980E06068B0F81D
:109180005010009811F0B8FD6068B0F852110098C6
:1091900011F0B6FD6068B0F84C10009811F0B4FD05
:1091A0006068B0F85011009811F0B2FD67E052E02D
:1091B00032E055E001910121304611F07BFD6068FD
:1091C00010F8102F032A08BF00229DF804104078E1
:1091D00062F3871160F304018DF8041001A9304691
:1091E00011F071FD4BE02DE041E0606890F86C11EA
:1091F0000129009914BF90F86A0090F86E01087177
:10920000606814BF90F86B0090F86F01487136E009
:109210000098FCF753F832E01F4B1E4A28461B68A3
:10922000009998472BE0009815F014FA27E0009871
:1092300015F018FA23E0606800F27911009811F037
:10924000EEFC1CE0606800F29B1200F279110098BD
:1092500011F0E9FC13E00F49009813F025FB0EE034
:10926000606800F5B071009813F075FB07E0606866
:1092700090F8DF23D0F8E013009811F027FDF9F7FC
:10928000C7F900281CBF02B070BD40F6AE313120D6
:10929000F7F714FD68010020CC0200202DE9F34F00
:1092A000FF4C87B08A4660680088F8F7A5FE0590F5
:1092B00070B1A4F118054FF00006A88810F4807F63
:1092C00060681CBFA0F8F66080F8246305D009E050
:1092D00040F689613120F7F7F1FCB0F8F610491C2F
:1092E000A0F8F61060684FF0010890F8CB1039B97B
:1092F00090F8C62001230621A83010F0B4FE48B330
:10930000A88810F4006F07D0606890F8CB1000298F
:1093100018BFC0F8E8601DD16068D0F8E810491C9B
:10932000C0F8E810D0F8EC208A422CBF531A002372
:10933000B5F806C00CF1050C634598BF80F8F480C1
:10934000914207D3C0F8E8600222D64900F5E370E5
:10935000FBF782FBA8884FF0020910F4407F11D080
:10936000606890F8C91011B1032906D00AE080F8AE
:10937000C9800121FEF70EFA04E080F8C9900121AE
:10938000FEF708FA606890F8C910012905D1A9888C
:1093900011F4806F18BF80F8C9900799002940F038
:1093A000B882A98811F0400F18BFA0F8386304D123
:1093B000B0F83823521CA0F838235FEA0A0740F0BF
:1093C000068111F0080F57D090F84E111C2903D0D8
:1093D000222907D02A290FD180F87461B04811F0F2
:1093E000F1FD09E000F5D5710E7000F5AC7013F0D9
:1093F0009AFAAB4811F0E6FD606890F84E11FE292C
:1094000007D0FE2180F84E1190F8C6101B2905D018
:109410000CE040F654013120F7F750FC80F805616C
:109420009F4811F0BAFD606880F8C660606890F8E7
:10943000C510212902D032290FD014E090F8C6209F
:1094400001230B21A83010F00EFE002814BF2F209E
:109450002220616881F8C50005E080F8DD8380F88E
:10946000C56080F80061606890F8C710082904BFE3
:1094700085F8009080F84E91287910F0010F74D093
:10948000E8680123052190F803B0606890F8C620D1
:10949000A83010F0E8FD60B1ABF102000A2806D256
:1094A000DFE800F007070505070705050707082798
:1094B0008DE0E868FBF73CF858B1E86890F803B035
:1094C000BBF1000F1CBFBBF1010FBBF1160F07D0A2
:1094D0001DE06068D0F8B41011F0080F2CD139E00D
:1094E000606890F8C50010F038FE80B1616891F8AE
:1094F000C50021280BD0222804BF2F2081F8C500E9
:1095000005D0BBF1160F0CBF20274F465FE0BBF123
:109510002B0F08D2644850F82B1021B160488847BF
:10952000070022D053E0BBF1FF0F07D06068D0F8EE
:10953000B41011F0080F0DD0474648E02869002804
:10954000606818BF80F8DE830FD1D0F8B41011F036
:10955000080FF1D141F00801C0F8B410E968C978EA
:1095600080F848114E4811F00EFDA88810F0040F45
:1095700006D0616891F8C710072908BF85F80080F8
:1095800010F0020F17D0A868C0782B2806D24749E0
:1095900051F8201011B1424888470CE0FF2804D050
:1095A00040F648013120F7F789FB6068322180F8E6
:1095B000C51080F8DC63287910F0100F07D06068C0
:1095C00090F8C6100B2904BF0C2180F8C610E8786B
:1095D00010F0080F19D060680123052190F8C6200B
:1095E000A83010F040FD002818BF08270DD16946AB
:1095F00003200096F9F7F4FA009830B100F1080161
:109600000E7010226168FBF7C3F9286947EA0A0A5D
:10961000F0B300960196029603960496606890F85F
:109620006F000AF099FC4FF47A7100F5FA70B0FB04
:10963000F1F7606890F86F000AF040FC3844ADF82C
:10964000060060680188ADF80010B0F8BC10ADF8F5
:109650000410406910F0F6FCADF80200606890F864
:10966000DE0330B1E868C11C039111F0B9FA8DF83E
:109670001000606890F8DD038DF8080029696846DD
:109680008847606880F8DE6380F8DD63039900E056
:1096900029E041B390F8DC1329BB90F8C51007E02E
:1096A0006801002053B20100700100201C0200205C
:1096B000322918D09DF81010039AA1B11378FF2B0E
:1096C00006D0072B02BF02295178FF2902D00AE0F9
:1096D0001B2908D880F8DC830399C0F8E0139DF8B3
:1096E000101080F8DF135046FFF77EF96768B7F86F
:1096F0001803401CA7F8180397F81C0330B1F9F7BA
:10970000B5FA002818BFA7F8186318E0F9F72EF883
:1097100030B1606890F81E03002808BFA7F81863EE
:10972000F9F71EF858B197F82403401CC0B287F827
:109730002403022884BFA7F8186387F824636068AD
:109740000123002190F8C620A83010F08CFC20B92D
:10975000606890F8C6000C285CD160680123002185
:1097600090F8C520A83010F07EFCE0B360680123BB
:10977000002190F8C720A83010F075FC98B36068FD
:1097800090F8C910022904BF90F82403002841D1A1
:1097900005980FF0CFFE30B3616891F84E01FE28B6
:1097A00038D1B1F81203012834D981F81A83B1F8FD
:1097B000F800B1F8F620831E9A42AFBF0120801A4C
:1097C000401E80B2B1F81833EA8893422FBF0122BD
:1097D000D21A521C92B2904288BF1046012808BF8C
:1097E00081F81A6300E015E091F87B208DF80020E5
:1097F0009DF8002092B94A6F82B1B1F8F220B1F819
:10980000BC10511A09B2002908DD8142D8BF0846B0
:1098100080B203E06168012081F81A63A978002909
:1098200018BF01289CBF616881F81E6303D9606876
:1098300080F81E8301206168B1F8BC20104480B21A
:10984000A1F8140391F8C930002B18BF012B09D0DF
:10985000022B18BF032B08D040F618414FF03100FF
:10986000F7F72CFAA1F8100353E091F8C730082B52
:1098700022D0B1F8F600B1F8F8200027831C9A42F4
:1098800006D3101A801E07043F0C1CBF781E87B237
:1098900091F8F40058B191F8C52001F1A800012316
:1098A000092110F0E0FB002808BF00272BD06068DA
:1098B00090F8CB1099B90AE0B1F8F630032BD1D368
:1098C000B1F8F8001044401CA1F8100321E090F812
:1098D000C62001230621A83010F0C5FB78B16168CD
:1098E0000020D1F8EC20D1F8E8108B1C9A4203D369
:1098F000501A801E18BF401EB84238BF87B2002FD2
:109900001CBF781E87B26068B0F814133944A0F801
:1099100010132879079FC0F380100028606818BFD3
:10992000A0F8266306D1B0F82613B0F81623114428
:10993000A0F82613606890F860118DF800109DF86B
:10994000001039B990F8C72001231946A83010F04B
:109950008AFB38B16068B0F8FA10B0F816231144E9
:10996000A0F8FA10606890F8002132B1B0F8FC104D
:10997000B0F816331944A0F8FC1090F90431002B0C
:1099800006DDB0F80211B0F816C36144A0F8021168
:1099900090F8E510F1BBD7B9297802290AD001293E
:1099A0000ED0BAF1000F23D01AF0100F18BF1E21ED
:1099B0000AD03CE090F85011062918BF162136E075
:1099C00090F8C81031BB4AE01AF0080F01D03D21D1
:1099D0002DE01AF0200F18BF232128D11AF0030F11
:1099E00018BF2A2123D140F6A3513120F7F766F999
:1099F0002AB1B0F8FC10B0F8FE20914216D2002B2C
:109A000005DDB0F80211B0F8FE2091420ED2B0F898
:109A1000FA2000E00BE0B0F8F8108A420FD390F87B
:109A200060218DF800209DF8002042B1222190F89D
:109A3000E4208DF800209DF8002012BB1AE090F879
:109A4000C92032B1B0F8F6208A4228BF0821EED2F0
:109A500005E0B0F8F610062928BF3E21E7D2002124
:109A6000FDF798FE606880F81B6309B0BDE8F04F11
:109A7000F8F7B8BD80F8E51002220A49DC30FAF7A1
:109A800087FF606880F8C56080F8C66080F8C960AC
:109A900090F81B13002914BF02210321FDF77AFE61
:109AA000E0E70000B55100000C4A10B5526892F88A
:109AB0004E31FE2B04D040F6B3313120F7F7FEF8DB
:109AC00082F84E010020012904BFA2F8020110BD56
:109AD000A2F8FC00012082F8000110BD68010020FE
:109AE00070B52C4B024698881043988003F11800FB
:109AF000402A406811D012F0020F4FF000044FF0DE
:109B0000010C02F001050DD0002D08BF996026D090
:109B100040F6F6513120F7F7D1F8BDE87040042146
:109B2000FDF738BEB5B1D960C978062909D00B292F
:109B300001BF90F8C610132980F8CA4080F806C10A
:109B400008E090F8C610192904D10021C0E9481195
:109B500080F8CAC012F0020F18BF996813D0C978F4
:109B6000052907D00B2902BF90F8C610122980F8EA
:109B7000CB4008E090F8C610172904D10021C0E9B5
:109B80004A1180F8CBC012F0200F1CBF0820D870FB
:109B900070BD0000500100202DE9F0412E4C012540
:109BA000626892F8E613002914BF0127002792F893
:109BB000E703002814BF01260026002F08BF92F8F3
:109BC0006E10002E08BF92F86F0002F1660382F853
:109BD0006E1082F86F00FF20987220480368002BF7
:109BE0001CBF10469847606890F86C01012803D0AC
:109BF000002F08BF002E04D04FF00001164809F0D6
:109C00003FF96068303011F063F90646606811F082
:109C1000C0F838B1606800F5E87200F130010088E2
:109C2000FAF7B6FF05216068FDF7B4FD60683030D3
:109C300011F04EF90446A6420BD20CF0E7FA0146A9
:109C4000A01B672838BF67200CF0A6F9002818BFB2
:109C500000252846BDE8F08168010020D4020020DC
:109C600070B5044640680123002190F8C620A83052
:109C700010F0F9F9002804BF012070BD134DE86809
:109C800010F031FF01466068A0F8E4136068B0F896
:109C9000BC20891A09B247F6FE728A42A8BF002981
:109CA00009DD00F2E631E86810F015FF61680B206D
:109CB00081F8C60008E0282180F8E51060680222DB
:109CC0000349DC30FAF764FE002070BD500100202B
:109CD000B551000070B5044640680123002190F89A
:109CE000C620A83010F0BFF900284AD06068324D75
:109CF00090F87310E86810F0F9FE00283BD0EA688D
:109D00006068B2F80D10A0F8E4136068B0F8BC30D9
:109D1000C91A09B247F6FE738B42A8BF002940DD7D
:109D2000104610F010FF10F081F9064660683146C9
:109D3000C0F8EC63E868007910F08FFB6168A1F867
:109D4000E603E8683146B0F8050010F07DFB616875
:109D5000C1F8E803E86810F0F9FE6168A1F8F003C3
:109D6000E86810F0F6FE6168A1F8F20361680E2061
:109D700081F8C6001EE06168D1F8B40010F0080F49
:109D800001D0012070BD40F00800C1F8B400E868BF
:109D90006168C07881F84801084811F0F4F80020A3
:109DA00070BD282180F8E510606802220449DC308B
:109DB000FAF7EEFD002070BD500100206801002080
:109DC000B551000070B5044640680123002190F8A9
:109DD000C620A83010F047F970B9606890F8C62026
:109DE000142A09D001230521A83010F03CF90028DD
:109DF0000CBF0120082070BD03216068D0F85821F5
:109E00005AB10C221D4811F0D7F86168302081F852
:109E1000C6001A4811F0B7F82EE090F806010028A5
:109E200004BF164811F0AFF86068154D00F54A718F
:109E3000E86810F0B7FE606800F5A071E86810F0FF
:109E40009FFE60680188A0F8FE13606800F58061DD
:109E5000E86810F09DFE606800F58161E86810F028
:109E600089FE60680222074900F57D70FAF790FDCF
:109E70006168162081F8C600002070BD68010020CE
:109E80005001002081B101000149C968FBF7D4B934
:109E9000500100200149C968FBF720BA5001002099
:109EA0002DE9F8430546406890F8B40010F0300FF3
:109EB0003BD1394CE06810F0A1FE78B3E06810F0B7
:109EC00097FE0646E06810F097FE8046E06810F0C6
:109ED0008DFE0746E06810F08DFE0146009668682A
:109EE00043463A46303011F008F8207910F0020F5E
:109EF00003D0A068C078142824D0686890F8C510F2
:109F00001E291FD090F86410012927D090F8631102
:109F10008DF800109DF80010C9B11FE0FFE76968D7
:109F2000D1F8B40010F0080F02D00120BDE8F8838A
:109F300040F00800C1F8B400E0686968C07881F8B2
:109F4000480122E06968012081F8640006E090F889
:109F500062118DF800109DF8001039B16868D0F8D2
:109F6000B41041F01001C0F8B4100EE0D0F8B410F5
:109F700041F02001C0F8B4100848406800F5F372C1
:109F800000F130010088FAF767FE044810F0FBFF8B
:109F90000020BDE8F8830000500100206801002087
:109FA0000149C96811F068B85001002010B5044695
:109FB00040680123002190F8C620A83010F053F823
:109FC0000028606812D090F8CB1011B3D0F8580177
:109FD0000A21B8B10C22104810F0EEFF6168302061
:109FE00081F8C6000C4810F0CEFF12E090F8C620B1
:109FF00001230521A83010F036F8002814BF0820EE
:10A00000012010BD044810F0BEFF6168122081F8E5
:10A01000C600002010BD00006801002038B50446CD
:10A02000406801230B2190F8C620A83010F01BF8DF
:10A0300040BB60680123002190F8C620A83010F0D2
:10A0400012F838B3606890F8C50026281AD0304D51
:10A05000E86810F0F6FDB8B1E8686268417901F08F
:10A06000070182F86710007900F00701606880F846
:10A070006610606890F86D218DF800209DF8002032
:10A08000C2B13BE0202038BD6168D1F8B40010F0C7
:10A09000080F01D0012038BD40F00800C1F8B4001D
:10A0A000E8686168C07881F848011A4810F06BFFD1
:10A0B000002038BD90F86C21012A1FD090F86FC0A5
:10A0C00090F8673000F16E028C4501BF117899421B
:10A0D000022180F86C1111D00E48416801F5017021
:10A0E0000A8820F8022B91F8662000F8012B91F8DD
:10A0F000671000F80D19084910F022FE616823204E
:10A1000081F8C600034810F03EFF002038BD000073
:10A110005001002068010020C12E01002DE9F84FF8
:10A120000446406890F8C51022290CBF012500257F
:10A1300090F8C610242908BF00F1C60606D0002DED
:10A1400012BF00F1C5060220BDE8F88F954FF868F0
:10A1500010F087FD4FF0010B4FF0000900285BD095
:10A16000D7F80C80404610F08BFD0090404610F070
:10A170008BFD804610F03FF807F1180A00B3DAF8BB
:10A18000042092F86E1081421AD092F86C31012BA3
:10A190002CD092F86A3013EA080F3DD0002D04BF8E
:10A1A00092F8672012EA080F0AD129B3042918BFD0
:10A1B000042826D0082918BF082825D081422BD88A
:10A1C000DDF80080404610F016F8E8B3DAF8041025
:10A1D00091F86F20824240D091F86C01012816D08E
:10A1E00091F86B0010EA080F16D036E092F86E3145
:10A1F00013EA080FD2D10FE04FF4D0710620F6F722
:10A200005DFD814208D3DBE7814205D3D8E791F8B1
:10A210006F0110EA080F20D160684FF0000890F835
:10A220006C11012918BF80F86C9151D0002D5ED0BF
:10A23000F8686168C07881F849010BFA00F061683C
:10A2400010F0807F49D000E007E00A2081F8C500C7
:10A25000606890F80001D0B365E06A466068F9680C
:10A26000F9F740FF2825002860D0F86810F0F3FCCB
:10A2700001466068A0F8E4136068B0F8BC20891A51
:10A2800009B247F6FE728A42A8BF002977DD90F82E
:10A29000C6100E291CBF0C290B2979D09DF800107F
:10A2A00080F8E61361689DF8010081F8E7034FF03C
:10A2B00026003070606800F1C601B1420ABF3A481A
:10A2C00080F8009110F069FE0020BDE8F88F09E0E9
:10A2D0001E21354808F0D4FDA8E740F24B4131205B
:10A2E000F6F7ECFC40F253413120F6F7E7FC86F834
:10A2F00000902D4810F051FE6168D1F8B40010F0C4
:10A30000080F18BF4FF001080DD140F00800C1F848
:10A31000B400F8686168C07881F84801224810F0FC
:10A3200032FE4FF000084046BDE8F88F606890F8B4
:10A330006C11012918BF80F86C9107D0606800F19A
:10A34000C601B14208BF80F8C690B3E7B0F8BC3090
:10A3500000F5797290F86E10B0F8700110F006F800
:10A3600000281CBF606880F8C550E7D100210E4866
:10A3700008F086FD86F80090E0E700E008E080F84D
:10A38000E550606802220949DC30FAF701FB91E7E9
:10A390002A2180F8E510606802220449DC30FAF7CF
:10A3A000F7FA87E75001002068010020B55100004E
:10A3B00070B5044640680A4D90F8161141F004014A
:10A3C00080F81611E86810F06DFC0646E86810F099
:10A3D0006DFC014622463046BDE8704000F0E8B80A
:10A3E0005001002002461248C068017911484368B4
:10A3F00093F8C500222814BF2F28162015D029282D
:10A4000008BF232011D0042808BF0E200DD010282B
:10A4100008BF122009D01E2808BF142005D093F8C9
:10A42000C60024280CBF1720FE2000F0C1B8000091
:10A43000500100206801002010B50446406890F8E3
:10A44000C60019281CBF022010BD044810F0A5FD4D
:10A4500061681D2081F8C600002010BD6801002041
:10A460000149C96810F0B7BD5001002070B5494BD3
:10A4700004460025D8684FF0010C2E46027960682A
:10A48000172A90F8C5100FD007DC0E2A1CBF122A1D
:10A49000142A09D0162A4BD079E01D2A6AD0232A23
:10A4A00062D0FF2A6ED072E000250E2A0AD0122A4E
:10A4B00011D0142A16D0172A24D040F2DD313120D1
:10A4C000F6F7FCFB042962D1204610F07BFD204604
:10A4D000FAF772FF5BE0102959D1204610F0FFFE19
:10A4E000054654E01E2952D1204610F06BFD6068ED
:10A4F00090F8161121F0200180F81611264810F06E
:10A5000014FE44E090F8C610242940D180F8C660BB
:10A51000214810F042FD606890F86C01012803D1D9
:10A5200000211D4808F0ACFC606880F86C612EE0EA
:10A53000222918BF2F292AD1204610F043FD606838
:10A5400090F8C610232922D090F8171121F00101AC
:10A5500080F81711606821F0080180F817111A219E
:10A560000D4808F08DFC12E0292910D10B48016834
:10A5700029B90CE031290AD10948016839B12046CE
:10A58000884704E01969002918BF80F8DEC328460F
:10A5900070BD00005001002068010020D80200209A
:10A5A000E00200200149C968FAF722BF50010020EB
:10A5B00070B54B4D00241D286B687FD00BDCA0F1DB
:10A5C0000E0CBCF10A0F51D2DFE80CF00D88888820
:10A5D0000D880D88510D202875D023281CBF2428F4
:10A5E000252865D07AE0144652684FF000050E2801
:10A5F00092F8C5100AD0122811D0142816D01728A6
:10A600001DD040F2DD313120F6F758FB04292CD162
:10A61000204610F0D7FC2046FAF7CEFE25E01029A0
:10A6200023D1204610F05BFE05461EE01E291CD1FA
:10A63000204610F0C7FC2A4810F077FD15E092F88C
:10A64000C600242811D1002682F8C660244810F0E4
:10A65000A4FC606890F86C01012803D10021204817
:10A6600008F00EFC606880F86C612C4636E093F8C8
:10A67000C500222802D02F2804D02FE0184808F067
:10A68000FFFB0CE093F8C62003F1A80001230B2187
:10A690000FF0E9FC18B92A21114808F0F1FB6968AC
:10A6A000002081F8C50081F8000117E006E00AE00B
:10A6B0000C4A126892B1904704460FE00A4A1268A9
:10A6C00062B1904709E0094AD2F800C0BCF1000F1E
:10A6D00004D00A4601461846E0470446204670BDAD
:10A6E00068010020D0020020DC020020C802002007
:10A6F00010B541680446D1F8B40010F0100F07D02F
:10A7000010F0200F09D040F2DC713120F6F7D6FAB4
:10A7100040F2DB713120F6F7D1FA20F01000C1F8D9
:10A72000B400044810F039FC6068BDE81040052111
:10A73000FDF730B86801002010B5406890F8C610E9
:10A7400030290AD0172902BF1B2180F8C61010BD7E
:10A7500040F2A5713120F6F7B1FA002180F8C61059
:10A76000BDE81040014810F018BC0000680100204E
:10A7700070B50446406890F8C6101D2904D040F218
:10A78000B6713120F6F79AFA002580F80551606815
:10A7900090F8061181B180F80651606802220188A4
:10A7A000A0F8F41260680F4980F8F252606800F572
:10A7B0003A70FAF7EDF810E00188A0F8F41260683A
:10A7C000022280F8F2526168012081F8F602606886
:10A7D000054900F53A70FAF7DBF8606880F8C65072
:10A7E00070BD00006BB101004BB10100184910B5FC
:10A7F000896800230A79416891F8C5C0BCF10A0F45
:10A8000004BF91F849C1944505D181F8C53040682D
:10A8100080F8003110BDD1F8B4C01CF0080F08D08A
:10A820002CF00800C1F8B400BDE81040094810F051
:10A83000B4BBFF2A04D040F251713120F6F73EFA42
:10A84000322281F8C520406880F8DC3310BD00005A
:10A85000500100206801002010B5114C626892F888
:10A860007820032A04D040F657413220F6F726FA22
:10A87000022818BF032805D040F665414FF032008A
:10A88000F6F71CFA002918BF03F0ECF80020616805
:10A89000A1F8C20081F8C40081F8780010BD000062
:10A8A000EC0200200249496881F85B007047000013
:10A8B000EC02002001484068C0307047EC020020E4
:10A8C0002DE9F041384C616891F84800002816BF26
:10A8D00002280020012081F8490001F14A01F7F720
:10A8E000FBFE606890F84810022916BF0329012179
:10A8F000002180F8851090F8492000F14A034FF0BC
:10A900000007012A04BF5B7913F0C00F0AD000F1E1
:10A910004A03012A04D15A7902F0C002402A01D028
:10A92000002200E0012280F85C20002A04BF0029F8
:10A93000BDE8F08100F1A808F9F7CCF81B49A0FBAD
:10A94000016513F02EFF80196941C8E900016068B4
:10A9500090F8850000281CBF0020F8F785FE002530
:10A96000606890F85D1000291ABF90F85C1000290B
:10A97000BDE8F08190F8491000F14A02012904D1A4
:10A98000517901F0C001402905D03946BDE8F041B8
:10A990004A300FF091BAF8F73DFE61682A46BDE8EB
:10A9A000F0414A310FF099BAEC02002040420F000A
:10A9B000034810B540688C3013F027FD002010BD0F
:10A9C000EC020020044A0328526808BF516582F84F
:10A9D0005800002070470000EC020020064881B0BB
:10A9E0004068007A8DF800009DF80000002818BF2C
:10A9F000012001B070470000EC02002002494968C4
:10AA000081F8860000207047EC0200200249496866
:10AA100081F8870000207047EC0200200B48406856
:10AA2000816E002904BF0C20704700F16D01FF22E8
:10AA30000A70002282660A7090F86C00012101FA07
:10AA400000F003490860002070470000EC0200207D
:10AA500008F5014002490148C860704748D300002A
:10AA6000EC020020024610B50F480C468260C16817
:10AA7000A1B142680020A2F8C20082F8C40082F8A6
:10AA8000780002F0C5FD204600F0BCF8002808BFA1
:10AA900010BD40F6BB113220F6F710F940F6B511A3
:10AAA0003220F6F70BF90000EC02002010B5104C34
:10AAB000636893F84830022B14BF032B00280BD196
:10AAC00000291ABF0229012000201146F8F7B2FE22
:10AAD00008281CBF012010BD606890F848000028BD
:10AAE00016BF022800200120BDE81040F7F722BE63
:10AAF000EC02002010B50A4C6068416D51B1022291
:10AB00004272098841810749F9F742FF61680020D4
:10AB1000486510BD40F227413220F6F7CFF800001B
:10AB2000EC02002075B1000010B50F4C00280CBFDE
:10AB30004FF0010C4FF0000C636883F851C083F8AC
:10AB40005A004FF0080083F883000AD100291ABF89
:10AB50000229012000201146F8F76CFE616881F897
:10AB60008300002010BD0000EC02002010B5B1B140
:10AB70000D4A526882F860000868C2F8610088884F
:10AB8000A2F86500516D92F849004872506DD2F8F4
:10AB90004A10C0F80A10B2F84E10C18110BD40F63C
:10ABA000A9313220F6F78AF8EC0200200249014868
:10ABB000C860704764D30000EC0200200249496875
:10ABC00081F8480070470000EC02002070B5044690
:10ABD000F7F726FB0546F7F71DFB014628460EF062
:10ABE0006DFE010006D00648C06802682046BDE838
:10ABF0007040104740F6B1213220F6F75FF80000B0
:10AC0000EC02002070B5204D0646686890F8781078
:10AC100001291FBF90F8780000280C2070BDF7F7BD
:10AC200023FB02F0F5FC6868002490F8840030B142
:10AC300008F038FC08F0C6F9686880F884404622BD
:10AC40000021686813F0CDFF6968012081F85D403C
:10AC500081F8510081F8584081F8824081F85E60A7
:10AC600081F8B040072081F8500001F16D00FF220B
:10AC7000027081F86C408C660470463004700020CD
:10AC8000C1F8B44070BD0000EC02002005484068E7
:10AC900090F84800002816BF022800200120F7F78E
:10ACA00049BD0000EC0200200249496881F85000CB
:10ACB00070470000EC0200200178002211F0010F23
:10ACC0002349496809D042780023032A08BF4B650D
:10ACD00081F85820012281F8C520037813F0020F73
:10ACE0000ED083784FF0000C032B08BFC1F854C07E
:10ACF00081F85830022301EB020C521C8CF8C5304D
:10AD0000037813F0040F0CD0C3784FF0000C032B22
:10AD100008BFC1F854C081F858300A44082382F8AB
:10AD2000C530027981F848204279002A16BF022AEC
:10AD30000123002381F8513081F85920827981F86C
:10AD40005020C07981F85B004FF000007047000090
:10AD5000EC0200200D4A002110F0010F526802D0D1
:10AD6000012182F8C51010F0020F05D0022302EB7A
:10AD7000010C491C8CF8C53010F0080F03D01144A9
:10AD8000082081F8C500002070470000EC02002078
:10AD90000148C06840680047EC02002038B5134CF9
:10ADA0000022606890F86D108DF800109DF800107A
:10ADB00031B9816E00291CBF90F86C000CF0F4FBD7
:10ADC0006068002590F8840030B108F06BFB08F053
:10ADD000F9F8606880F884506068A0F8C25080F884
:10ADE000C45080F87850002038BD0000EC020020EC
:10ADF000064881B090F8B3008DF800009DF800007F
:10AE0000002818BF012001B070470000080A002088
:10AE1000064881B0406890F840008DF800009DF829
:10AE20000000002818BF012001B07047EC0200208C
:10AE30000948406890F8581003290CBF01210021EF
:10AE400080F8421004BF416D0988A0F84410022226
:10AE500002493830F9F79CBDEC020020E5CD000036
:10AE60000248406890F8580070470000EC0200204B
:10AE70000C48416891F85800032804D0012818BFF5
:10AE8000022807D004E091F85A00012808BF704753
:10AE90000020704791F85900012814BF03280120B1
:10AEA000F6D17047EC0200202DE9FF5F384C0646D2
:10AEB00000256068924690F8851000290CBF4FF07D
:10AEC00001094FF00009B27CB168012A06D1497925
:10AED00001F0C001402908BF012700D0002790F8E9
:10AEE000841000294AD090F858104FF0000B032925
:10AEF00006D190F85110002918BF90F8838007D12F
:10AF0000706810B911F047F818B3606890F8808045
:10AF1000B8F1FF0F18BFB8F1080F1AD04046F8F784
:10AF20007DFB002818BF4FF001093FB3606890F81F
:10AF3000890030B10FF048F80546606880F889B0A4
:10AF40001CE04046F8F776FBB1680EF0FEFF0546C0
:10AF500014E09FB1606890F8880078B90021B0686B
:10AF6000F8F72EFC616881F8840038B10FF021F801
:10AF7000FF2803D06168012581F880008AF800501D
:10AF800001980770039880F8009004B0BDE8F09F26
:10AF9000EC02002070B50C46054607F039FF10F0B2
:10AFA000040F04D1A0780221B1EB501F23D007F089
:10AFB0002FFF10F0020F04D1A0780121B1EB501F38
:10AFC00019D0207800F03F00252814D208F04EFE5A
:10AFD000217811F0800F0CBF1E214FF49671B4F848
:10AFE0000120C2F30C0212FB01F10A1AB2F5877FAD
:10AFF00028BF814201D2002070BD064821884068E8
:10B00000A0F8C210A17880F8C4102846BDE87040AE
:10B0100003F072BAEC02002000204870072008708C
:10B0200002484068406B486070470000EC02002016
:10B030002DE9F0412C4C80460D46606890F8C41014
:10B04000C230490908BF012607D0012908BF0226DE
:10B0500003D0022914BF00260826007800F03F071D
:10B06000384609F089F96068B8F1000F80F89770E8
:10B0700008D03146012008F0C5FB002808BFBDE814
:10B08000F08105E0C16F3246012008F06BFF70B11E
:10B09000606890F8900002280CBF4020FF203146E5
:10B0A00009F036F9606890F8B000B0B904E040F6F5
:10B0B00055113220F5F702FE681DF8F797FA61681E
:10B0C00081F8840048B116F00C0F0CBF50245524B1
:10B0D00007F0B8FF204608F0F3F9284608F0F4FE20
:10B0E0000120BDE8F0810000EC0200202DE9F041D4
:10B0F0001E4F05460E4678681D4990F882000C5C8C
:10B10000204609F039F9786880F8974090F8A01047
:10B11000C5300C5C012C0DD0022C08BF0D200ED0C8
:10B12000042C18BF082C05D040F626114FF0320031
:10B13000F5F7C4FDF7F76EF8402828BF40202146F8
:10B1400009F0E6F8304608F0BFFE21464FF0010056
:10B1500035B108F057FB002808BFBDE8F08101E0D9
:10B1600008F08CFA0120BDE8F0810000EC0200201C
:10B1700080ED010070B51F4E0C467068417A91B1A8
:10B1800040890021F6F7A0FC05002DD02888F7F7AC
:10B1900003FA28880021F6F7F1FDA0B140F2F7315B
:10B1A0003220F5F78BFD416DD0F80E20C1F8032059
:10B1B000428AA1F80720417B00291ABF02290121F8
:10B1C0000021406D81704FF0000565704FF0150053
:10B1D000207070684FF0210200F1090104F10400B1
:10B1E00013F085FCE57170BD40F2F3313220F5F7C4
:10B1F00065FD0000EC0200202DE9F047804C0F4671
:10B2000006464068616884B090464FF0010A072FF7
:10B2100004BF0028B8F1000F08D04FF000094D46D8
:10B2200000284ED0727C012A1AD020E081F88AA032
:10B2300091F8B3008DF800009DF80000002804BFCD
:10B2400004B0BDE8F087D1F8B400503013F08CF9A9
:10B25000002804BF606880F88BA004B0BDE8F087C8
:10B26000427902F0C002402A08BF012500D0002523
:10B27000072F2DD191F88420002A18BF002D10D05F
:10B28000B8F1000F04BF91F8C11001291AD000BF16
:10B290000EF08FFE616881F8800081F8810081F8EE
:10B2A00088A0606890F88000FF2819D06A4602A93B
:10B2B000F8F7A6FAE8B369469DF8080010F098F888
:10B2C000054645E00121F8F77BFA616881F88400C2
:10B2D000606890F88400002818BF002DE1D0D7E7FF
:10B2E000707C716810F084F862680546707C716843
:10B2F0008032F8F703FC90F0010F29D0606880F8E5
:10B300008A9080F88B9000BF4FF00002B068002850
:10B3100004BF04B0BDE8F087072F1CBF04B0BDE830
:10B32000F087616891F88010FF2914BF002A04B0EB
:10B3300000E008E008BFBDE8F087F8F7BBFB6068F5
:10B3400080F889A089E740F634513220F5F7B6FC41
:10B3500061682846072F91F8515009D3082F29D842
:10B36000B8F1000F02D091F88A1019B3716819B1C1
:10B37000002D08BF05461EE0B8F1000F05D170781A
:10B3800010F0100F18BF554615D110F004FE30B163
:10B39000606890F88A00002818BF012000D10020C2
:10B3A000284305D1F8F7EEFB002808BF002502D09E
:10B3B000012500E04D46606880F88A501148026817
:10B3C0002AB1414630469047616881F88B00706829
:10B3D00050B16068717C80F8981071680A68C0F894
:10B3E00091208988A0F89510606890F88B1000294A
:10B3F00006BF90F88A000028012287D184E7000068
:10B40000EC020020FC02002010B5F8F779FF094C8F
:10B410002070606890F8840038B108F043F807F0B5
:10B42000D1FD6168002081F8840008F077F80520DC
:10B4300010BD0000EC02002010B5F8F761FF0349D1
:10B44000087002F00FFB012010BD0000EC0200208C
:10B4500010B5F8F755FF02490870012010BD000033
:10B46000EC02002010B5F8F74BFF024908700120EC
:10B4700010BD0000EC02002010B5F8F741FF0349B1
:10B48000087008F04BF8052010BD0000EC02002009
:10B490002DE9F04F91B00E460546F8F731FFF34C19
:10B4A0002070287800F00F07072F05D002F0DAFA95
:10B4B00011B00120BDE8F08F04A9284610F063FE0A
:10B4C00061684FF0000A01F1B10391F8B10038B1A1
:10B4D0009DF81100CDF814A020F001008DF81100A6
:10B4E000587838B19DF81100CDF818A020F002006E
:10B4F0008DF811009DF8102091F8901004A8914249
:10B5000040F0A281314610F021FD012588B99DF857
:10B51000110010F0080F00F0978109980088C0F31F
:10B520000B0109984078000910F0F8FC002800F0A1
:10B530008B813246394604A8FFF75EFE606890F8BA
:10B540008A10002904BF90F88B00002800F0788151
:10B550008DF840A006988DF838A08DF83CA04FF0EB
:10B56000FF0670B110AB0EAA0FA904A8FFF79CFC50
:10B57000606890F849609DF83800002818BF46F0D0
:10B5800002060DF1100B9DF810209DF838009DF873
:10B590003C809DF84090002A74D00921012A05D0F2
:10B5A000022A70D002F05EFA00F051B9D4F804C05B
:10B5B00007469DF811209CF8B100914305D0002862
:10B5C00018BF12F0080F00F00A819CF858100329E8
:10B5D00004D012F0020F05D057B113E00126354612
:10B5E000E8BB23E0FF21584601F002FE00F0F7B867
:10B5F0009DF822209CF849000CF14A01069B0EF0B0
:10B6000034FC20B13146584601F0F2FDE7E06068B5
:10B6100090F85900032818BF02287AD1B8F1000F1A
:10B6200077D0FE21584601F0E3FDD8E00CF19101FE
:10B630009CF898009CF860200CF161030EF015FC5A
:10B64000616891F85A20012A0AD032B938B991F8C4
:10B65000800091F88310884202D0002615E0FFE7B1
:10B66000069890B167B9B9F1000F0DD06168034633
:10B670009DF8222091F849004A310EF0F6FB18B1EE
:10B68000012502E00CE045E000252E4241D0606833
:10B690008C3012F0AFFE002818BF0E2539D0D6E04E
:10B6A0006168012791F85820032A23D09DF81120C2
:10B6B000FF25C2F3400252B1354640B991F8490026
:10B6C0009DF822204A31069B0EF0CFFBA0B16068A6
:10B6D00090F88B0038B166480268002A1FBF0B98AB
:10B6E00000280D9990472946584600F039FB00285C
:10B6F00018BF03273D46AAE0606890F85900032868
:10B7000018BF0228F6D1B8F1000F18BFFE25DED110
:10B71000F0E764E0D4F804C09CF85830032B5ED006
:10B720009DF8112091435AD1022B02F0020119D049
:10B7300000293FF457AF00287FF464AF9DF8222022
:10B740009CF849000CF14A01069B0EF08EFB002884
:10B750007FF458AF606890F85900032818BF02289A
:10B760003DD168E04FF07F07D9B360B9B9F1000F60
:10B770002AD09DF822209CF849000CF14A01069B32
:10B780000EF073FB00B394F90080B8F17F0F4DD039
:10B790002770032000F03EFB606890F8811090F85D
:10B7A0009720CDE90021CDE9028590F8C13000F164
:10B7B0004A023146584601F055FF80B160688C302E
:10B7C00012F018FE58B12FE0606890F85900032875
:10B7D00018BF022803D1B8F1000F7FF422AF012572
:10B7E00035E0FFE794F90080B8F17F0F1ED0277095
:10B7F000032000F00FFB606890F8811090F897200C
:10B80000CDE90021CDE9028590F8C13000F14A026E
:10B810003146584601F026FF0028E0D060688C30A1
:10B8200012F0E8FD0028DAD00D2510E040F24D417D
:10B830003220F5F743FAB8F1000F7FF4F2AECEE70D
:10B8400002F010F9CBE700BF02F00CF901256068A7
:10B8500090F8840030B107F025FE07F0B3FB606874
:10B8600080F884A011B02846BDE8F08FEC020020DB
:10B87000000300202DE9F14F8AB04FF00108F8F7DE
:10B880003FFD484D28700A98007800F00F00082806
:10B890007DD169460A9810F0F1FB9DF80000002860
:10B8A0007BD19DF80100032131EA000075D1686861
:10B8B00000F1780490F85100002814BFE67A267A47
:10B8C0000027207B40B10EF074FBFF2804D0B0426B
:10B8D0000CBF01270027607294F820209DF811000A
:10B8E00004F1190301990EF0C0FA57EA000954D087
:10B8F000686800F14A0790F849A0607B38B130468B
:10B90000F7F72AFF00281CBF07464FF0010A002462
:10B910009DF812000299012807D1497901F0C00170
:10B92000402908BF4FF0010B01D04FF0000B3B4600
:10B93000524602990EF099FA07463BEA070018BFF3
:10B94000FF2E07D03046F7F775FE18B102990EF0BA
:10B95000FCFA044647EA040019EA000F1DD06868A3
:10B960004FF0010100F18C0012F054FD686890F86E
:10B97000840038B107F096FD07F024FB69680020C9
:10B9800081F884004FF0000801200A9900E004E0EB
:10B9900000F040F9032002F04DFA0BB04046BDE83C
:10B9A000F08F0000EC02002070B58AB00646012539
:10B9B000F8F7A6FC174C2070307800F00F0007282D
:10B9C00025D16946304610F0DEFB002002909DF83C
:10B9D0000000E0B99DF8010010F0010F17D0606879
:10B9E0009DF811C000F1910390F8982060460199EC
:10B9F0000EF03BFA58B1606801218C3012F00AFD5C
:10BA0000FF21684600F0ACF9002818BF032528463E
:10BA10000AB070BDEC02002070B58AB00446F8F799
:10BA20006FFC3C4E69463070207800F00F052046D0
:10BA300010F0A9FB0024072D2AD170689DF8001092
:10BA400090F8C100022908BF9DF801001AD0012911
:10BA500001D079B11CE09DF80110029421F002019F
:10BA60008DF80110022813D021F001008DF801009B
:10BA700001940DE010F00C0F1CBF9DF8010010F0B8
:10BA8000100F05D020F0030001948DF801000294FE
:10BA9000002229466846FFF7AFFB706890F8C100A6
:10BAA00001280BD0022816D0042818BF082819D066
:10BAB00041F2C6314FF03200F5F700F9082D13D2EC
:10BAC000DFE805F004040412121204162946684641
:10BAD00000F0A4FB0FE0072D04BF9DF80000012833
:10BAE00002D105E0072D03D007F018FD052503E07E
:10BAF000684600F039FA0546706890F8840030B165
:10BB000007F0D0FC07F05EFA706880F884400AB055
:10BB1000284670BDEC02002070B58AB00646F8F7E2
:10BB2000EFFB114D69462870307800F00F04224673
:10BB3000304602F02FF9002221466846FFF75CFBF1
:10BB40002146684600F06AFB6968044691F8841053
:10BB500039B107F0A7FC07F035FA6868002180F8D2
:10BB600084100AB0204670BDEC02002010B50178A8
:10BB70008CB001F00F04224602A902F00BF907F085
:10BB8000CDFCF8F7BDFB224B042C187038D103997B
:10BB90000A78596891F891C0624531D1039A91F8B9
:10BBA00092C0527862452BD1039A91F893C0927853
:10BBB000624525D1039A91F894C0D27862451FD18D
:10BBC000039A91F895C01279624519D1039A91F8B8
:10BBD00096C05279624513D19DF8192091F898C00A
:10BBE00062450DD17F280ED07F221A70009091F807
:10BBF000973091F8B02091F8811002A801F094FCE0
:10BC00000CB0052010BD40F24D413220F5F756F83A
:10BC1000EC0200202DE9F0414D4C074682B06068EF
:10BC2000002688464672416D6D460A884281486901
:10BC30000EF008FA014660680184416D8A8B4284E7
:10BC4000C98B818480F82660FF2180F827104FF689
:10BC5000FF71018547B1012140460EF04AFD0546BE
:10BC600098F80000C10907E06946A0680EF0C9FD18
:10BC7000A0680078C0F38011606890F88520002AE1
:10BC800018BF002904D06A7902F0C002402A2AD0E5
:10BC900090F85D20002A18BF002903D0697911F0BF
:10BCA000C00F20D04661068390F88130FF2B24D04E
:10BCB00000F10E02511E1846F7F7A2FDC0B16068F0
:10BCC000002F417B41F00201417308BF913003D046
:10BCD000002140460EF00DFD61680268C1F81A208F
:10BCE0008088C88316E029684161A9880183DBE761
:10BCF00041F2AC513220F4F7E1FF90F89810417313
:10BD0000D0F89110C0F80E10B0F8951041821A309A
:10BD100012F00AFD606890F95E10406D0EF09CFA1A
:10BD200002220C496068F8F733FE63680222586DFE
:10BD3000018809488186416D91F8CD1080F8361050
:10BD4000064903F12A00F8F787FE02B0BDE8F0814A
:10BD5000EC02002075B10000080A002019B00000B4
:10BD6000F0B52B4C064685B0626892F88A00002830
:10BD700004BF05B0F0BD002792F8B000002830D015
:10BD800092F87800082808BF032503D0092814BFBB
:10BD90000125022594F900007F282AD07F232370F3
:10BDA00092F8813092F897C0CDF800C00395CDE9A4
:10BDB000013092F8C13030464A3201F053FCE8B10C
:10BDC000707810F0100F20D00220B169FFF7E2F870
:10BDD000B0B161680020012781F8900007F09EFB58
:10BDE00010E03078002814BF0220012082F8B00053
:10BDF000C6E740F24D413220F4F760FF022D01D03A
:10BE000001F030FE05B03846F0BD01F0EBFDF9E77A
:10BE1000EC0200202DE9F041524C064600216068FA
:10BE2000032E00F17807A068018002D0052E04D00F
:10BE300057E003210EF0A7FD53E005210EF0A3FD0E
:10BE4000D4E90115486D8069C5F80F00486D006A96
:10BE5000E874020A2A75000C6875486D4169008D06
:10BE6000F8F7FEF9A875D4E90105406D4169406A0B
:10BE7000F8F7CCF9E875000A2876D4E90105406D99
:10BE800040690EF0DFF86876000AA876D4E9012050
:10BE9000516D898BC176090A0177516DC98B417744
:10BEA000090A8177516D1F30CE3112F038FCD4E988
:10BEB0000105406D95F8241090F8D90001F0E001DB
:10BEC00000F01F00084385F8240006F0D1FF95F824
:10BED0002410E02201F01F0102EA4010084385F817
:10BEE000240007F11901A0680EF06FFD97F82010EB
:10BEF000A0680EF071FD606800F14A0590F8497085
:10BF000090F88510A1B190F858104FF0010803295E
:10BF100006D190F85110002918BF90F8830001D184
:10BF200090F88000F7F718FC00281CBF474605462C
:10BF30002946A0680EF059FD3946A0680EF05CFD58
:10BF4000A06807F0C1FF052E18BFBDE8F08160684A
:10BF50002A68416DC1F80A20AA88CA81406D4772DB
:10BF6000BDE8F081EC0200202DE9F04FAA4C87B02B
:10BF70004FF0050A616891F85B20C2B191F88A2000
:10BF8000002A04BF91F88B10002910D001784FF0DF
:10BF90007F064FF001084FF0000571B14FF0020726
:10BFA0004FF0180901297CD0022900F0FD8007F02C
:10BFB000B5FA07B05046BDE8F08F074607F0AEFA75
:10BFC000606890F85800032800F01C817878C0F36E
:10BFD0000019B9F1000F0CBF0121082131EA00005E
:10BFE00040F01081B868002818BF01208DF810506B
:10BFF0008DF814508DF81850002808BFFF2117D075
:10C0000006AB04AA05A93846FEF74EFF61689DF805
:10C01000102091F84900002A804618BF48F0020815
:10C0200005D1BA7C4A31BB680DF01FFF38B34146D9
:10C03000B9F1000F36D094F900007F2871D0267036
:10C04000626892F8813092F897C0CDF800C00395ED
:10C05000CDE9013092F8C13038464A3201F002FB96
:10C0600000287DD00120B969FEF794FF002877D021
:10C07000606880F8905007B00320BDE8F08F6068DA
:10C0800090F85900032818BF022869D19DF81400C0
:10C09000002865D09DF81000002808BFFE21C7D0F9
:10C0A000B0E003E0384601F0A3F8ABE0824607F0C9
:10C0B00035FA606890F8C11002299AF8011003D08F
:10C0C00039EA010104D09DE0192232EA010147D189
:10C0D00090F8581003293FD1DAF80410002914BF52
:10C0E000002101214FF0010BD946D9B990F898C031
:10C0F00000F1910190F8602000F1610360460DF0BD
:10C10000B4FE616891F85A20012A0BD032B948B9BF
:10C1100091F8800091F88310884203D04FF0000B13
:10C1200006E073E0DAF80800002818BF4FF00009B5
:10C130001BEA090F66D0DAF81800807810F0E00FDB
:10C1400003D1616891F8861051B1B7EB501F03D14C
:10C15000606890F8870018B194F900007F2800E02B
:10C1600050E053D02670616891F8812091F89730A3
:10C17000CDE90032CDE9020591F8C13001F14A0262
:10C18000FF21504601F06EFAE0B30120DAF81810F2
:10C19000FEF700FF00281CBF606880F8908031D057
:10C1A00007B00320BDE8F08F804607F0B7F960685C
:10C1B00090F85810032925D098F8011039EA0101A8
:10C1C00020D194F900107F2920D0267090F881208A
:10C1D00090F89730CDE90032CDE9021590F8C130E2
:10C1E00000F14A02FF21404601F03CFA50B1012023
:10C1F000D8F81810FEF7CEFE00281CBF606880F843
:10C200009070CDD107B00520BDE8F08F40F24D41D0
:10C210003220F4F753FD0000EC0200202DE9F04F2E
:10C22000EE4C7F260127002594F90030626883B028
:10C23000002967D001297CD00527022907D00629CB
:10C240002AD007F06BF903B03846BDE8F08F0546F9
:10C2500007F064F9606890F88A10C9B190F8581036
:10C26000012918BF022913D194F900107F2900F089
:10C27000B081267090F8972090F88130CDE9003297
:10C28000029100F14A02FF230221284601F0A8F89A
:10C2900003B03846BDE8F08F92F88A1029B192F8C1
:10C2A0005810022907D001291DD007F037F903B033
:10C2B0000520BDE8F08F7F2B00F08B81267092F86F
:10C2C000971092F881C0CDF800C0CDE90113FF238B
:10C2D00006214A3201F084F861680B2081F8B050E1
:10C2E00003B0BDE8F08F7F2B00F07381267092F8C9
:10C2F000971092F881C0CDF800C0CDE90113FF235B
:10C30000062139E092F88A10002900F0418192F864
:10C310005810022908D0012920D003292ED040F638
:10C32000E5613220F4F7CAFC7F2B00F052812670C1
:10C3300000E05EE092F8971092F881C0CDF800C05E
:10C34000CDE90113FF2300214A3201F049F860686A
:10C3500080F8B07003B00B20BDE8F08F7F2B00F0A9
:10C360003881267092F8971092F881C0CDF800C0FD
:10C37000CDE90113FF2300214A32A6E0416892F87B
:10C3800061C00B7863451FD14B7892F862C063455A
:10C390001AD18B7892F863C0634515D1CB7892F8A7
:10C3A00064C0634510D10B7992F865C063450BD129
:10C3B000497992F86630994206D1407C92F8601033
:10C3C000884208BF012000D0002092F85A100129AD
:10C3D0007ED000287CD1824890F88310082978D03C
:10C3E00090F88000884273D0D2E003B00520BDE809
:10C3F000F08F054692F8850092F88AA0002814BFB5
:10C400004FF000094FF001090027A87CA968012816
:10C4100007D1487900F0C000402808BF4FF001085C
:10C4200001D04FF0000892F85800032806D192F886
:10C430005100002818BF92F8830001D192F88000C3
:10C440000090F7F7F7F85FEA000B43D00098F7F792
:10C45000E5F8002818BF4FF00109B8F1000F39D0F6
:10C460005846A9680DF071FD0700606890F849B062
:10C4700018BF4BF0020B014690F8580003282DD04E
:10C4800007F04CF8BAF1000FAFD06068AA7C00F159
:10C490004A0190F849C0AB6860460DF0E6FC002800
:10C4A00008BF002F77D094F900007F286FD0267046
:10C4B000616891F8972091F88130CDE900320290BF
:10C4C00001F14A025B460121284600F089FF8CE712
:10C4D00058E05DE0606890F849B0CCE7686891F892
:10C4E000613002789A4220D1427891F862309A42C3
:10C4F0001BD1827891F863309A4216D1C27891F8B4
:10C5000064309A4211D1027991F865309A420CD187
:10C51000407991F86620904207D1687C91F86020BC
:10C52000904208BF4FF0010801D04FF000082C4C9A
:10C5300094F88000082805D094F88320904208BF22
:10C54000012600D0002657B9B9F1000F09D091F8A3
:10C550004900AA7C4A31AB680DF087FC08B1012183
:10C5600000E00021BAF1000F09D094F85A00012828
:10C5700003D020B958EA060001D0012000E00020D5
:10C58000014205D003B00C20BDE8F08F03E020E0AD
:10C5900006F0C4FF29E7606890F85910032918BF16
:10C5A00002297FF422AFB8F1000F3FF41EAF94F9D7
:10C5B00000107F290DD0267090F8972090F88130D8
:10C5C000CDE900320291FE2300F14A020121284602
:10C5D0007BE740F24D413220F4F770FBEC02002083
:10C5E000080A00202DE9F0413D4C8046606890F833
:10C5F000C410490908BF012507D0012908BF022539
:10C6000003D0022914BF00250825C06F68B1F5F7D3
:10C6100007FE0646F5F7FEFD014630460DF04EF9E1
:10C62000010015D00020FEF703FD6068D0F89C00E3
:10C6300007F048FA60680126002790F85810022990
:10C640000CD0032904BF90F8901001290AD016E0FD
:10C650004FF4BE614FF03200F4F730FB90F89010C9
:10C6600002290CD12A4615F00C0F04D090F85F0077
:10C67000012808BF04220021084607F0BDFD6068BC
:10C68000B8F1000F09D000F8B16F4670606880F80B
:10C69000C15080F88870BDE8F08190F8901000F1EA
:10C6A000B106022904BF37707770EFD0012908D096
:10C6B0000029EBD10FF06FFC30700FF07EFC707032
:10C6C000E4E790F8C110022914BF00210121317064
:10C6D00090F8C10002280CBF012000207070D5E73F
:10C6E000EC02002010B5F7F70BFE0A4C20706068D2
:10C6F00090F8840038B106F0D5FE06F063FC61685E
:10C70000002081F8840006F009FFBDE8104000F029
:10C71000DBBB0000EC0200202DE9F0410746F5F7F5
:10C720007FFD0446F5F776FD014620460DF0C6F87C
:10C7300005000ED0324C606890F8580001281CBFEC
:10C74000022803280AD041F25D514FF03200F4F77D
:10C75000B5FA41F257513220F4F7B0FA6FF01306F0
:10C7600027B328460DF0A5FE18B928460EF0B4F8F8
:10C77000E0B16168284691F87820052A04D241F298
:10C78000DC413220F4F79AFA91F878200B2A04D38E
:10C7900041F2DD413220F4F791FAE26891F8781025
:10C7A000526906EB8101515888471AE0606890F899
:10C7B0007810052904D241F24D513220F4F77EFA67
:10C7C00090F878100B2904D341F24E513220F4F73F
:10C7D00075FAE16890F87800896906EB80000858DE
:10C7E00080470F2804D341F272513220F4F766FAE1
:10C7F000E168096951F82000BDE8F04100470000F8
:10C80000EC02002010B518B1BDE8104000F012BBDA
:10C81000002908BF10BD1048416891F878200B2A04
:10C8200004D241F22D613220F4F748FA91F87820D1
:10C830000F2A04D341F22E613220F4F73FFAC06888
:10C8400091F8781080686FF02B0202EB810140585C
:10C85000BDE8104000470000EC02002070B51D4C00
:10C86000606890F8C1100E2007F052FDF5F7D8FC73
:10C870000546F5F7CFFC014628460DF01FF80500E8
:10C8800023D007F021FB606890F8C10010F00C0085
:10C8900018BF282007F04CF9606890F8C160681D47
:10C8A000F6F7A4FE616881F8840048B116F00C0F19
:10C8B0000CBF5025552506F0C5FB284606F000FEA6
:10C8C00061680A2081F8780070BD40F2446132202E
:10C8D000F4F7F4F9EC02002070B50E4C0025606806
:10C8E00090F8840030B106F0DDFD06F06BFB606867
:10C8F00080F884506068A0F8C25080F8C45080F876
:10C9000078500020A168FFF785F9BDE8704002204B
:10C9100001F090BAEC02002070B5134C606890F8FA
:10C92000C110FF2007F0F4FCF5F77AFC0546F5F797
:10C9300071FC014628460CF0C1FF78B107F0C4FA3B
:10C94000606890F8C10010F00C0018BF282007F0B4
:10C95000EFF86168092081F8780070BD40F25B61F2
:10C960003220F4F7ABF90000EC02002010B5F5F727
:10C9700057FC0446F5F74EFC014620460CF09EFF9E
:10C9800050B107F0A1FA002007F0D2F805490620BF
:10C99000496881F8780010BD4FF4C6613220F4F781
:10C9A0008DF90000EC020020104910B5486890F89D
:10C9B0007820052A04D241F261613220F4F77EF931
:10C9C00090F878200B2A04D341F262613220F4F708
:10C9D00075F9C96890F87800C9686FF0130202EB26
:10C9E00080000858BDE8104000470000EC0200201D
:10C9F00010B5F7F785FC03490870BDE8104000F05A
:10CA000019BA0000EC02002010B501F02BF8F7F77E
:10CA100077FC03490870BDE8104000F00BBA000035
:10CA2000EC02002010B5F7F76BFC054A00211070EE
:10CA300050688C3011F0EEFCBDE8104000F0FAB9FF
:10CA4000EC02002010B5F7F75BFC054A00211070DE
:10CA500050688C3011F0DEFCBDE8104000F0EAB9FF
:10CA6000EC02002010B5F7F74BFC0449087006F003
:10CA700055FDBDE8104000F027BA0000EC02002090
:10CA8000F8B5554D04460E46686890F878100029B0
:10CA900018BF012903D003291CBF0C20F8BD217B3E
:10CAA00080F8A010A168C167217B00F1C502895CF4
:10CAB00080F8C1102168C0F89C10207902282FD07E
:10CAC00007F05AF906F0EEFC06F07CFA434806F04F
:10CAD000E3FF434807F016FC424807F009FC68688A
:10CAE00090F8700000280CBF012002200CF0BAF86A
:10CAF000207903281CBF304607F0E6F92079032887
:10CB00000ED16868C06F20B140F678213220F4F76A
:10CB1000D5F831460120FEF78BFA002808BFF8BD92
:10CB2000607B78B16868012290F86D108DF8001074
:10CB30009DF8001031B9816E00291CBF90F86C007F
:10CB40000AF032FD207930B1012822D0022818BF26
:10CB500003282DD035E06A68DFF88CC04FF0000064
:10CB600092F8501092F8823003F10103ACFB037489
:10CB70004FEA5404A4EB8404234482F8823021FA5F
:10CB800003F313F0010F04D100F10100C0B2032838
:10CB9000E8D3686890F95E0007F08AF93146012011
:10CBA000FEF7A4FA002808BFF8BD00F0BDFA08E0BF
:10CBB000686890F95E0007F07BF96968042081F8E5
:10CBC00078000A48006803281CBF0020F8BD40F622
:10CBD000A4213220F4F772F8EC02002080D3000088
:10CBE00055555500D6BE898EABAAAAAA501500404D
:10CBF000F8B5464D04460E46686890F8781000294E
:10CC000018BF012903D003291CBF0C20F8BD217BCC
:10CC100080F8A010A168C167217B00F1C502895C82
:10CC200080F8C1102168C0F89C10207902281DD01E
:10CC300007F0A2F806F036FC06F0C4F9344806F016
:10CC40002BFF344807F05EFB334807F051FB686860
:10CC500090F8700000280CBF012002200CF002F8B0
:10CC6000207903281CBF304607F02EF9607B78B18D
:10CC70006868012290F86D108DF800109DF8001082
:10CC800031B9816E00291CBF90F86C000AF08CFC51
:10CC90002079032801D028B11EE040F6522132202D
:10CCA000F4F70CF86A68DFF874C0002092F85010AE
:10CCB00092F882305B1CACFB03746408A4EB840420
:10CCC000234482F8823021FA03F313F0010F03D1D9
:10CCD000401CC0B20328EBD3686890F95E0007F0EF
:10CCE000E7F831460120FEF701FA002808BFF8BD39
:10CCF00000F01AFA0A48006803281CBF0020F8BD9B
:10CD00004FF426613220F3F7D9FF0000EC02002037
:10CD100080D3000055555500D6BE898EABAAAAAA6D
:10CD20005015004038B51B4C0022606890F86D101B
:10CD30008DF800109DF8001031B9816E00291CBFDC
:10CD400090F86C000AF030FC606890F878100529C3
:10CD50001ED2DFE801F003030603090000F06AF8C1
:10CD600014E000F0B1F811E090F8B00038B1012003
:10CD7000FFF738FC6168082081F8780006E00020A1
:10CD8000FFF730FC6168072081F87800002038BD8B
:10CD90000C2038BDEC02002038B5114C0022606830
:10CDA00090F86D108DF800109DF8001031B9816E6B
:10CDB00000291CBF90F86C000AF0F6FB606890F840
:10CDC0007800002818BF012807D002281CBF0C20BB
:10CDD00038BD00F079F8002038BD00F02BF8FAE7F4
:10CDE000EC02002010B5002048701920087010488F
:10CDF0004068D0F8420048600879012818BF10BD8B
:10CE0000CC8800212046F4F75FFE002808BF10BD43
:10CE10002046F5F7C1FB00212046F4F7AFFF0028BC
:10CE200008BF10BD40F215413220F3F747FF000064
:10CE3000EC02002070B50C4C0025606890F884006E
:10CE400030B106F02FFB06F0BDF8606880F8845022
:10CE50006068012180F87810A0F8C25080F8C450B2
:10CE6000BDE8704001F0EABCEC0200200349032059
:10CE7000496881F8780001F0D9B80000EC02002080
:10CE8000044841680020A1F8C20081F8C40081F87C
:10CE900078007047EC02002010B50020FFF7A2FBDD
:10CEA00002490720496881F8780010BDEC02002093
:10CEB00010B50120FFF796FB02490820496881F868
:10CEC000780010BDEC0200202DE9F041F5F7A8F93B
:10CED0000446F5F79FF9014620460CF0EFFC0500EB
:10CEE00037D000F055FA334C606800F1C50290F875
:10CEF000A0108E5C80F8C160002001F0FDFA0028CF
:10CF00002DD0606890F87800022803D029460020D0
:10CF1000FEF7ECF8012E07BF0127032000270520AC
:10CF20002844F6F763FB6168002581F8840040B16E
:10CF3000002F18BF402616D006F084F8304606F0C1
:10CF4000BFFA606890F85810032918BF02291CD155
:10CF50000FE040F21E514FF03200F3F7AFFEBDE894
:10CF6000F041FFF767BF16F00C0F14BF552650268F
:10CF7000E2E790F8A01000F1C500085C012804D198
:10CF800000210122084607F037F96068FF2180F888
:10CF9000801080F8811080F8895080F8885080F8DF
:10CFA0008A5080F88B5080F8B050052180F87810B6
:10CFB000BDE8F081EC02002070B5F5F731F90446C8
:10CFC000F5F728F9014620460CF078FC040025D03E
:10CFD000062001F091FA30B3154E0E2086F8780045
:10CFE000012000F027FF134D0121686890F8C1204F
:10CFF000002007F001F920786968C0F3401081F83B
:10D0000099000520FEF706FF716D012081F8CD0023
:10D01000A868017801F0DF01017070BD40F2C561C0
:10D020003220F3F74BFEBDE87040FFF703BF00006E
:10D03000080A0020EC02002010B5052001F05CFA7F
:10D0400060B1084C0121606890F8C120002007F011
:10D05000D3F861680D2081F8780010BDBDE810405C
:10D06000FFF7E8BEEC02002070B5F5F7D9F80446EA
:10D07000F5F7D0F8014620460CF020FC04002CD037
:10D080001A4D686800F17806042001F035FA48B3BB
:10D090000C203070002000F0CDFE20786968C0F3CD
:10D0A000401081F899000520FEF7B4FE1049A868E9
:10D0B0004FF0200C4A6D037892F8CD2003F0DF0387
:10D0C0000CEA42121A430270486D96F8212090F83B
:10D0D000CD10114080F8CD1070BD40F29F6132201C
:10D0E000F3F7ECFDBDE87040FFF7A4BEEC020020B2
:10D0F000080A002010B5032001F0FEF968B10320F2
:10D10000FEF788FE01221146002007F075F8054958
:10D110000B20496881F8780010BDBDE81040FFF78A
:10D1200089BE0000EC0200202DE9F0412E4C0021C8
:10D13000606880F8B01090F85C10002904BF90F887
:10D140008510002942D000F1A8056FF00042D5E912
:10D15000000181EA02014FF0010771EA000035D0B9
:10D1600011F01FFBD5E90023801A71EB03002DD3CA
:10D17000606800F1A808F6F7ADFC1C49A0FB01654A
:10D1800011F00FFB80196941C8E90001606890F84F
:10D19000850000281CBF0120F6F766FA01216068AF
:10D1A00090F85D20002A1CBF90F85C20002A0DD06A
:10D1B00090F8493000F14A02012B04D1527902F073
:10D1C000C002402A08D04A300CF076FE6168022086
:10D1D00081F87800BDE8F081F6F71CFA61683A46FC
:10D1E0004A310CF07AFEF1E7EC02002040420F00D9
:10D1F00030B5184A85B092F900C0BCF17F0F24D039
:10D200007F231370526892F87830052B08BF0023F3
:10D2100005D092F87830082B0CBF0323012392F835
:10D22000815092F89740CDE902C3CDE9004592F8CC
:10D23000C1304A3200F016FA002804BF05B030BDF4
:10D2400005B0BDE8304000F0CDBB40F24D4132208A
:10D25000F3F734FDEC02002081CE000035CE000053
:10D260000FBF01000FBF01000FBF0100C9CE0000BA
:10D270000FBF01000FBF01000FBF01000FBF010072
:10D280000FBF0100F5D0000069D000000FBF010002
:10D290000FBF010081CE000035CE00000FBF01009E
:10D2A0006DCE00000FBF0100C9CE00000FBF01000E
:10D2B00099CE0000B1CE00000FBF01000FBF0100EA
:10D2C000F5D0000069D0000039D00000B9CF0000CF
:10D2D0006DC90000D9C8000019C900005DC8000070
:10D2E0006DC90000D9C80000E5C6000065CA00008D
:10D2F000F1C9000009CA000045CA000025CA0000A3
:10D30000E5C6000065CA000009B4000079B4000059
:10D3100039B4000039B4000065B4000051B4000015
:10D3200009B4000079B4000019BA00006DBB000018
:10D3300003BF010009BF0100A9B9000075B80000D2
:10D3400019BB00006DBB000081CA000025CD0000A4
:10D35000D0D20000E8D2000094D2000028D3000010
:10D3600008D30000F1CB000099CD0000E0D200000E
:10D3700000D3000058D2000040D3000020D30000AA
:10D38000A9C9000019C7000005C8000019BF0100A5
:10D3900010B582B0F4F744FF01AA69460CF0A5F974
:10D3A00000980CF03CF904461C220021123011F0C8
:10D3B00018FC7F2084F82C00FF2184F82010E174F1
:10D3C00084F82510207F054920F060002030207768
:10D3D00000208860888002B010BD00000403002097
:10D3E0002DE9FF4F83B01D46DDE910890E46074643
:10D3F000DDF848B0F4F714FF04460CF012F90128E8
:10D4000004BF07B0BDE8F08F204601AA69460CF0C2
:10D410006CF900980CF003F904461C22002112302C
:10D4200011F0DFFB4FF0010A84F812A056B1012E73
:10D430000DD0022E10D0062E13D040F20B31332027
:10D44000F3F73CFC207F40F0130020770DE0207FB5
:10D4500040F01500207708E0207F40F01000207792
:10D4600003E0207F40F01200207704F11402561EE2
:10D470004046B8F1FF0F0CD03146F6F7C1F920B1A4
:10D48000307840F0020030700AE0DC213320F3F7FE
:10D4900015FC787C30707868016811608088908015
:10D4A00084F81BB084F81EA00026E677FF2084F8DD
:10D4B0002000217F11F0040F08BF84F8250012D04E
:10D4C00004F12600411E022D18BF032D05D0BA68B5
:10D4D000136803609288828004E0059A13680360F1
:10D4E000928882800D704FF07F0084F82C0084F8C1
:10D4F0002D90F4F795FE0546F4F78CFE01460122C7
:10D5000028460CF043F840B12046067207B00622C8
:10D51000BDE8F04F0349F7F73BBA40F22B31332017
:10D52000F3F7CCFB41DB00002DE9F04F83B01F4641
:10D5300090460D460646DDF830A0F4F771FE04462D
:10D540000CF06FF8012804BF03B0BDE8F08F20464F
:10D5500001AA69460CF0C9F800980CF060F804467E
:10D560001C220021123011F03CFB4FF0010984F81D
:10D57000129004F1140204F1130BFF2D0FD0594641
:10D580002846F6F73DF930B19BF8000040F0020064
:10D590008BF800000BE0DC213320F3F78FFB707C6D
:10D5A0008BF800007068016811608088908084F8B2
:10D5B0001BA0207F002568F3000040F01A002077B0
:10D5C00084F81E90E577FF2084F8200084F8250079
:10D5D0007F2084F82C0084F82D70F4F721FE064695
:10D5E000F4F718FE0146012230460BF0CFFF40B1A0
:10D5F0002046057203B00622BDE8F04F0349F7F755
:10D60000C7B94FF456713320F3F758FB41DB0000E4
:10D6100010B582B0F4F704FE01AA69460CF065F873
:10D6200000980BF0FCFF04461C220021123011F080
:10D63000D8FA7F2084F82C00FF2184F82010E174B0
:10D6400084F82510207F064920F0600020302077E4
:10D650000020886008708880487002B010BD00000B
:10D66000040300202DE9FF4F85B090F80080159E3F
:10D670001F4605464FF000094FF0010BD6B14FF0A1
:10D68000010AF4F7CDFD04460BF0CBFF01280DD0C5
:10D690002878022813D0D14895F8109040F2726291
:10D6A00081884944914298BF818008D909B00020FF
:10D6B000BDE8F08F4FF0000AF4F7B2FD04462046B3
:10D6C00001AA69460CF011F800980BF0A8FF044677
:10D6D00080F812B01498E07696B1012F08BF0120AF
:10D6E0001DD0022F08BF022019D0042F14BF082F0D
:10D6F000032014D040F2D7214FF00600F3F7DEFAF2
:10D70000012F08BF012008D0022F08BF022004D03B
:10D71000042F14BF082F0320ECD1A07700E0E0779E
:10D72000129884F82D00686920B3F4F779FD01AAF6
:10D7300069460BF0DAFF00980BF071FF16B1032E6B
:10D7400008D00BE02878002804BF687810F0100F8C
:10D7500004D114E0007F10F0080F10D16869407800
:10D760004FEA101084F8200068690088C0F30B00AD
:10D77000A4F82100012E04BF2878002801D04FF022
:10D780000100E96921B1002804BF4888A4F82300FA
:10D790002978207F01290CBF40F0010020F0010012
:10D7A000207710F0020F2CD1022918BF20F00200C0
:10D7B00027D0207710F0020F04D0002908BF40F0D6
:10D7C000080001D020F008002077A86800B3CDE958
:10D7D0000215B3460197022E21D0F4F721FD04AAC9
:10D7E00069460BF082FF00980BF019FF0199CDE913
:10D7F000001BDDE90221012312300EF0F1FB18B10C
:10D8000006E040F00200D4E7207F40F004012177D9
:10D81000012E04D1B8F1000F18BF012100D1002161
:10D82000A869491E084205D1207F20F060002077BA
:10D830009EB90BE0B0F80100C004C00C207F20F0BE
:10D8400060000CBF403020302077F1E717F00C0F5C
:10D850001CBF687810F0100F05D1286A00281CBF83
:10D86000007884F82C00686810B3F4F7D9FC01AA9A
:10D8700069460BF03AFF00980BF0D1FECDE9007637
:10D8800000234246294612300EF0AAFB80B91398B5
:10D8900004F1140204F1130BFF280ED05946F5F7DA
:10D8A000AFFF30B19BF8000040F002008BF80000A1
:10D8B0000BE0DC213320F3F701FA687C8BF80000E1
:10D8C00068680168116080889080A868002818BF87
:10D8D000022E2AD0F4F7A4FC01AA69460BF005FF3A
:10D8E00000980BF09CFECDE90076012342462946C4
:10D8F00012300EF075FBC0B904F1260106984A1EDD
:10D9000002281CBF0346032807D0AB68D3F800C029
:10D91000C1F800C09B888B8006E0079BD3F800C04D
:10D92000C1F800C09B888B801070BAF1000F4BD0FB
:10D930002A4DAE689EB195F8018000273772062205
:10D9400027493046F7F724F8B8F1000F06D077746E
:10D950000622234906F10900F7F71AF8AF60B9F17A
:10D96000E50F8CBF01260026F4F75AFC0746207FFE
:10D97000C0F34110012804BFAC606E700ED00025CA
:10D980002572062216492046F7F702F836B165746B
:10D990000622134904F10900F6F7FAFFF4F73AFCFE
:10D9A0000146012238460BF0F1FD88B1384601AA44
:10D9B00069460BF09AFE00980BF031FE1C2204F130
:10D9C0001201123011F093F809B00120BDE8F08F78
:10D9D00040F209213320F3F771F90000040300201D
:10D9E00041DB000070B582B0F4F71AFC054601AACD
:10D9F00069460BF07AFE00980BF011FE0446C07FDA
:10DA0000002678B128460BF00CFE10B300252EB18D
:10DA10002046057206221149F6F7BAFF10488580A4
:10DA200002B070BD28460BF0FCFD012804BF02B017
:10DA300070BDF4F7EFFB0146012228460BF0A6FD6E
:10DA4000002818BF0126DDD140F2B1213320F3F7C1
:10DA500035F940F2B5213320F3F730F941DB00000E
:10DA6000040300202DE9F04182B0F4F7D9FB01AAAC
:10DA700069460BF03AFE00980BF0D1FDC07F0025FF
:10DA8000002804BF02B0BDE8F0812B4EB468ACB1F1
:10DA9000207F20F0600040302077777825720622C2
:10DAA00026492046F6F774FF37B1657406222349EC
:10DAB00004F10900F6F76CFFB5607570F4F7B0FB80
:10DAC000074601AA69460BF010FE00980BF0A7FD6F
:10DAD0000446C07F4FF0000880B138460BF0A1FD2E
:10DAE00028B3B8F1000F05D020460572062213496D
:10DAF000F6F74EFFB58002B0BDE8F08138460BF076
:10DB000090FD012804BF02B0BDE8F081F4F782FB6C
:10DB10000146012238460BF039FD002818BF4FF0AE
:10DB20000108DAD140F2B1213320F3F7C7F840F20F
:10DB3000B5213320F3F7C2F80403002041DB0000D5
:10DB40002DE9F04F8DB00C46F4F76AFB00900BF016
:10DB5000BAFD060010D001464FF0010901AA009855
:10DB60000BF0D1FD0546F4F755FBA84209D040F271
:10DB7000AB113320F3F7A2F840F2A1113320F3F7F1
:10DB80009DF802A901980EF0FEFA251D30460BF013
:10DB900046FD834600F112011C22284610F0A7FF23
:10DBA0009BF81C00784E10F0100F4FF001084FF05A
:10DBB000030A4FF000070FD010F0040F18BF2F72A8
:10DBC0003AD19DF8182005F11C00059910F08FFF3F
:10DBD0009DF8180028722FE0307828B99BF82D00A6
:10DBE000252838BF86F80080307800281ABF9DF8B5
:10DBF000080002282F7218D0B3784FF0E50205F123
:10DC00001C0101980CF0B1FC2872B1780844B07086
:10DC100001980CF0A2FCB178884206D0A87A4FF0A7
:10DC2000000920F060002030A872A87AC0F34111EA
:10DC3000012918BF37700DD067700520207005F0DE
:10DC40000BF8002863D02078052817D0482133200E
:10DC5000F3F734F83178002908BF86F80080EBD05C
:10DC6000012902D0022906D0E6E710F0020F1CBFFE
:10DC700002203070E0D186F800A0DDE7A07B10F034
:10DC8000100F28D01C22211D404810F030FF227BAD
:10DC900004F120013E4810F02AFF3C48817A11F03F
:10DCA000040F02D0C17CFE2919D04FF0040222706B
:10DCB000016861604168A1600189A181817A11F0E8
:10DCC000080F18BFA27323D0027A1F2A40D98D21D2
:10DCD0003320F2F7F3FF49213320F2F7EFFF13214E
:10DCE00021700178217184F805804178A171D0F804
:10DCF0000210C4F80710C188A4F80B10FE2161734C
:10DD00004169C4F80E10018B6182407A207524E0CD
:10DD100011F0010F1CBF11F0020FA773D4D111F045
:10DD2000040F18BF84F80E80CED111F0010F05D179
:10DD300011F0020F1CBF0221A173C5D111F0030F16
:10DD400008BF84F80EA0BFD08A213320F2F7B6FFB7
:10DD50000F4904F10F0010F0CAFEB9F1000F04BF23
:10DD60000DB0BDE8F08F00980BF074FC38B10021C5
:10DD700000980BF077FDB7700DB0BDE8F08F4FF451
:10DD8000F8713320F2F79AFF0403002058150020A1
:10DD90007415002070B516460C4605460CF038FD8B
:10DDA000607428460CF02AFDA074EB1CDFF880C0DC
:10DDB000981D0021072E34D2DFE806F004131B3330
:10DDC000273304009CF800206270C4E901316A78AE
:10DDD000921F12F0FF02227401D0E06070BDE1607A
:10DDE00070BD9CF801206270C4E901302174E160CB
:10DDF00070BD9CF802206270C4E901316A78921FFC
:10DE000012F0FF022274EAD0E7E79CF80320627068
:10DE1000C4E901316A78921F12F0FF022274DED049
:10DE2000DBE761706160A1602174E16070BD00009A
:10DE300083ED01002DE9F04F784C83B04FF0000BDB
:10DE4000002808BF4FF0000A12D0012808BF4FF089
:10DE5000010A0DD0022808BF002000F0BA80032874
:10DE600008BF01207DD040F6B4012120F2F726FF43
:10DE7000D4E9067805F0E8FE0646FCF71BFD457878
:10DE8000A06A80F86E5080F86F506630FF21817272
:10DE900015F00C0F14BF01210021A06A30300CF0E6
:10DEA000E8FF504629460CF0BEF98146284606F0A8
:10DEB00053F80146BAF1000F08BF4FF4FC7019D0B7
:10DEC000082D04BF4FF4C87040220DD0042D04BFAC
:10DED0004FF4BF70102207D0022D07BF0BF11800BE
:10DEE00004220BF128000822C2EBC20303EB42120A
:10DEF00010449830BA1948EB0B0380184BEB03031E
:10DF000010EB0902464801F2E731D4F8289030F8C6
:10DF1000150043EB0B0308444FF47A71B0FBF1F0AA
:10DF2000161A63EB0B05D9F814A003F0B5FD3D49B3
:10DF300088420DD0CDE90065D9E9C20152460EF004
:10DF4000FBFA50451CD940F20C412120F2F7B6FEF5
:10DF500099F87300A0B1D4E9147803F0F7FC40B944
:10DF600000E036E0B9F92403A9F824B3C71948EB57
:10DF7000E078CDE900655246384641460EF0DCFABD
:10DF8000294907460968884203D2A16A48690744BB
:10DF900005E0A06A41693846F6F74AF9A16A486285
:10DFA000A06A416905200CF058FAA16A0885A16AA7
:10DFB0004A6ABA1A904204D840F645012120F2F785
:10DFC0007DFEF01945EB0B02C1E9C20203B0BDE8CA
:10DFD000F08F012184F82C1084F82D00A06A80F8BD
:10DFE00028B32178052904D040F657012120F2F703
:10DFF00065FE0EF01FF9C4F828B0207D002804BF8C
:10E0000003B0BDE8F08F05F053FE09F01FF984F866
:10E0100014B084F815B003B0BDE8F08FD00A00202A
:10E02000FCF30000200B0020100300202DE9F04F2E
:10E0300087B0FCF73FFC861C00794FF000054009D3
:10E0400008BF01240AD0012808BF022406D00228F4
:10E0500011BF2C460424FE4880F84450317811F05A
:10E06000800F0CBF1E204FF49670B6F80120C2F34B
:10E070000C0212FB00F7C80908BF4FF01E0A04D0BB
:10E08000002818BF4FF4967A3CD005F0EFFD81468A
:10E0900005F0DAFD80463078A7EB090BC0F380105D
:10E0A0000BEB0A07002808BF4FF4FA7602D018BF1E
:10E0B00032262CD010F0E0F9E649304400FB07107E
:10E0C000491CB0FBF1F905F0C5FD05F045FF4FF423
:10E0D0007A7100F2E730B0FBF1F0ABEB0000A0EB9F
:10E0E0000900A0F1100B59384FF4C8764FF4BF77F0
:10E0F000B0F5EA7FC0F0E680D5494978002940F0C4
:10E10000CB8009E040F23D310620F2F7D7FD40F226
:10E1100063310620F2F7D2FDCB468146204605F05A
:10E12000CDFE0AEB4B01DFF830B301444AF2A132D5
:10E130005BF82400C84402444FF47A70B2FBF0F05C
:10E14000084400F1600A204605F0B8FEAAEB000979
:10E150005BF824B0204605F0FFFEABEB00014FF466
:10E160007A70B1FBF0F0A9EB0002082C2BD0042C44
:10E1700022D0022C2FD0282005F514731A4400F564
:10E180009C73082101EB0111084483422AD2082C18
:10E1900004BF314640200CD0042C04BF3946102067
:10E1A00007D0022C07BF05F11801042005F1280152
:10E1B000082000EB00102BE0384640F2EE3310212F
:10E1C00002F2CE52DEE741F2D0231A4430464FF439
:10E1D00035634021D6E705F596731A441820783B3D
:10E1E0000421CFE7082C04BF314640200CD0042C7A
:10E1F00004BF3946102007D0022C07BF05F11801D3
:10E20000042005F128010820C0EBC00303EB4010F7
:10E210000844104414F00C0118BF282100EB410001
:10E22000082C08BF40210CD0042C04BF3E4610210E
:10E2300007D0022C07BF05F11806042105F12806B6
:10E24000082101EB811106EB8101084400F225262B
:10E2500001208DF800508DF80B000DF09DFF7C4CD7
:10E26000ADF80800D4E9080110EB080069410196F7
:10E27000CDE9040107F0CAFF8DF80A00A663DDE9C5
:10E280000401C4F848A0C4E90801FCF713FB0078B6
:10E29000694608F0C9F880B16D4C207D002804BFA4
:10E2A00007B0BDE8F08F00BF05F002FD08F0CEFF1B
:10E2B0002575657507B0BDE8F08F40F23F712120EC
:10E2C000F2F7FCFC204605F0F9FD0BEB0801059187
:10E2D00001EB4901DFF880915144014459F82400D1
:10E2E00000F2E7324FF47A70B2FBF0F008442030CD
:10E2F0000490204605F0E2FD0146049859F8249068
:10E30000A0EB0800A0EB0B00A0EB010A204605F0F3
:10E3100023FEA9EB00014FF47A70B1FBF0F0AAEBF9
:10E320000002082C2CD0042C23D0022C30D0282022
:10E3300005F514731A4400F59C73082101EB0111D3
:10E34000084483422BD2082C04BF304640210CD015
:10E35000042C04BF3846102107D0022C07BF05F15A
:10E360001800042105F12800082101EB01110844DF
:10E370002CE0384640F2EE33102102F2CE52DDE7B7
:10E3800041F2D0231A4430464FF435634021D5E79B
:10E3900005F596731A441820783B0421CEE7082C23
:10E3A00004BF314640200CD0042C04BF3946102055
:10E3B00007D0022C07BF05F11801042005F1280140
:10E3C0000820C0EBC00303EB40100844104414F0D5
:10E3D0000C0118BF282100EB4100082C08BF402188
:10E3E0000CD0042C04BF3E46102107D0022C07BFDE
:10E3F00005F11806042105F12806082101EB811119
:10E4000006EB81010844124C00F5967058444044D4
:10E41000A76B00F1F906B7422AD207F0F7FEF61B08
:10E420008046672E38BF672607F0A6FE864261D871
:10E43000B819B0F1807F04D24146304607F0ACFDF8
:10E4400078B101210220FCF707FA207DF0B305E046
:10E45000D00A00203F420F0010F40000607848B35B
:10E460003CE0A06B3044A063E838206408F0CAFFA9
:10E47000059802900498009094F82E008DF80C00F6
:10E4800002208DF804008DF80D506846FCF79EFBC5
:10E4900020B140F285712120F2F710FCFCF778FCE6
:10E4A000002804BF07B0BDE8F08F40F2867121203C
:10E4B000F2F704FC00231A461946684600F056FCA1
:10E4C000002804BF0120A07008D000E006E0FCF79F
:10E4D000F1F90078694607F0A7FF30B1207D0028E8
:10E4E00004BF07B0BDE8F08FDEE640F2BC7121202A
:10E4F000F2F7E4FB06469BE770B5064610F051F9CB
:10E500002A4DA969441AFCF7D5F940780022072E54
:10E5100046D2DFE806F0044343282F43430008288F
:10E520000ED0042810D0022814D00821012804BFDE
:10E530002A20282311D04FF482710520F2F7BEFB68
:10E54000402114200A4602E0102114202E224FF40C
:10E55000A87302E00421122018231A4411FB0020A2
:10E5600080B2983008E010F00C0018BF282000F5A9
:10E57000577001E04FF4FC70A96B0444F9398C42E8
:10E5800009D3002600F08CFB30B1A86BF938844227
:10E5900028BF002600D20126304670BD012070BD84
:10E5A00040F2D6312120F2F789FB0000D00A00208A
:10E5B000F0B52B4C054687B020780F4600281EBFCB
:10E5C0000C2007B0F0BDFCF775F90646A56295F87A
:10E5D000280320B14FF43F712120F2F76FFB052093
:10E5E00020700020607084F82C0084F82E00A4F8BD
:10E5F0006C0005460DF0F5FD94F82FC0002200BF19
:10E6000004EB82012B188968CD18511CCAB29445BD
:10E61000F6D200211348A56508F0F4FD30702028DB
:10E6200014D03B4600220121684600F09FFB90B1C8
:10E630003078694607F0F8FE00281EBF002007B0BA
:10E64000F0BD40F20E312120F2F738FB40F20A31E2
:10E650002120F2F733FB40F20D312120F2F72EFB9F
:10E66000D00A0020C1E900000249896A016000F077
:10E6700059B80000D00A002000291CBF11207047A3
:10E68000F0B5264C074687B0207800281EBF0C2026
:10E6900007B0F0BDFCF70EF90646002060700421BB
:10E6A000217084F82E00A4F86C0005460DF099FD49
:10E6B000014694F82F20002004EB8003401C9B6847
:10E6C00005EB010CC0B203EB0C058242F4D2002131
:10E6D0001348A56508F096FD3070202814D03B46FD
:10E6E00000220121684600F041FB90B13078694674
:10E6F00007F09AFE00281EBF002007B0F0BD40F2D0
:10E7000065312120F2F7DAFA40F262312120F2F786
:10E71000D5FA4FF459712120F2F7D0FAD00A00202F
:10E72000C1E900002DE9F0410026FCF7C3F83F4C99
:10E730000746207804281FBF207805280C20BDE854
:10E74000F0814FF001006070207D4FF00005B0B106
:10E75000EFF3108872B6207D00281CBF607D002872
:10E7600009D0FCF71BFB207D28B105F0A1FA08F0C9
:10E770006DFD25756575B8F1000F0ED10CE0387888
:10E7800008F0B0FAB7F80300C004C00C05D00021AF
:10E790000320FCF761F800E062B6387808F01AFC54
:10E7A00094F82C00002820782FD0052804D040F2BF
:10E7B00057212120F2F782FAA06E20B104F1500017
:10E7C00003F0D6F803E004F1500003F02BF9657074
:10E7D00094F82C00002818BF0C26FCF71FF9A57030
:10E7E00084F82C50A5622078042808BFFFF73AF976
:10E7F0002570FCF75FF80446007808F0C9FB78B193
:10E80000202020703046BDE8F0810528DBD1A06EC5
:10E810000028D8D1A06A00F5427003F003F9D2E7CE
:10E8200040F292312120F2F749FA0000D00A00208C
:10E830000148007870470000D00A002010B5154C40
:10E8400086B0207D98B1607888B900231A461946B1
:10E85000684600F08BFA002804BF0120A07006D0A3
:10E86000FCF728F80078694607F0DEFD68B1207DE6
:10E87000002804BF06B010BD05F01AFA08F0E6FC47
:10E8800000202075607506B010BD40F2BC712120DB
:10E89000F2F714FAD00A002070B570220021124855
:10E8A00010F09FF9FCF706F8202101700F480025B1
:10E8B0000560006841F66A01884204D340F6D5013C
:10E8C0002120F2F7FBF9084C2078002818BFFFF749
:10E8D00029FFA4F86C5042F21075A81060600DF08A
:10E8E00080FC281AA06070BDD00A00201003002010
:10E8F00010B5054C2078002818BFFFF713FF002043
:10E90000A4F86C0010BD0000D00A0020F0B52B4C1C
:10E9100083B0217821B14FF447712120F2F7CEF96D
:10E9200000220092019202920378154613F0010F23
:10E9300011466B4604D0D0E90121012500912946FA
:10E9400090F800C01CF0020F06D0D0E9032C43F869
:10E9500021C045F00205491C90F800C01CF0040FCE
:10E9600006D0D0E9052043F8210045F00805491CF0
:10E97000481E84F82F001F46002662600DF031FC0F
:10E9800015F0010F03D00099091A0126A16015F0B6
:10E99000020F06D057F8262004EB8601121A761CC7
:10E9A0008A6015F0080F05D057F8261004EB860290
:10E9B000081A906003B00020F0BD0000D00A0020CB
:10E9C0002DE9F04786B00D46FBF774FF01268A4C0F
:10E9D00007464FF00008092D80F00881DFE805F0B8
:10E9E000057EA5A5A0FCCCF9FB0026756078002863
:10E9F0001CBF06B0BDE8F087387807F017FCC4E903
:10EA00000601216D0546401A6168B0FBF1F000284F
:10EA100014BF4FF001094FF00009CDF8088094F8B9
:10EA20002F00002808BF404622D00DF0DAFB8446B4
:10EA3000206D6268291AB1FBF2F102FB01F194F832
:10EA40002F30411803F10103691A4FF0000004F15F
:10EA50000802DBB2D2F800A0E2448A4503D8401C89
:10EA6000A1EB0A01C0B2121D5B1E13F0FF03F1D12E
:10EA700084F82E008DF80C00B7F80300C004C00C19
:10EA80000FD0A06C009003208DF804008DF80D804D
:10EA90006846FCF79BF8C8B14FF4E7712120F2F704
:10EAA0000DF9B9F1000F14BF8DF804808DF80460E2
:10EAB000206D6168281AB0FBF1F201FB12000028FA
:10EAC0000CBF012000208DF80D00E1E7A06BE838B5
:10EAD000206408F097FC06B0BDE8F087607890B13C
:10EAE000FCF75CF9207D002804BF06B0BDE8F08784
:10EAF00005F0DEF808F0AAFB84F8148084F815808D
:10EB000006B0BDE8F0876675FCF742F9002804BF3F
:10EB100006B0BDE8F08740F2E1112120F2F7CEF80F
:10EB200006B0BDE8F04705F02DBC3D78FBF7C2FE0E
:10EB3000B0F80300C004C00C03D001210320FBF790
:10EB40008BFE002301221946684600F00FF968B1D8
:10EB50002846694607F068FC00281CBF06B0BDE8DF
:10EB6000F08740F2D7712120F2F7A8F8A67000F0E4
:10EB700045F806B0BDE8F087B7F80300C004C00C44
:10EB80001BD0787810F00C0F1ED094F84400D8B940
:10EB900084F84460012144F2365007F0FDF998B939
:10EBA000A16B44F236500144A163216C08442064F7
:10EBB00006B0BDE8F04708F025BC00F071F8002869
:10EBC0001CBF06B0BDE8F08706B0BDE8F0470DF009
:10EBD00096B906B001E004E008E0BDE8F04700F0B7
:10EBE0000DB840F213212120F2F768F840F2172106
:10EBF0002120F2F763F80000D00A002070B5274CFE
:10EC0000207870B194F82C10204600250029806EE1
:10EC1000217839D0052909D040F257212120F2F777
:10EC20004DF840F27B112120F2F748F820B104F1B1
:10EC3000500002F09DFE03E004F1500002F0F2FEED
:10EC4000A07828B194F82C00002808BFFCF7F0F851
:10EC5000FBF7E4FEA57084F82C50A5622078042808
:10EC600008BFFEF7FFFE2570FBF724FE0446007880
:10EC700008F08EF900281EBF2020207070BD40F2E1
:10EC800092312120F2F71AF8052908BF0028D3D1C4
:10EC9000A06A00F5427002F0C5FECDE7D00A002060
:10ECA0002DE9F0410FF07DFD2F4C05460F462178F0
:10ECB000A069042909D16168226D01EB8101490035
:10ECC000801A884238BF022600D30126304607F05A
:10ECD00053FA67283AD3B0F1FF3F08BFE06B21D069
:10ECE000D4F838C0E26B0CEB00018A4298BFA2EB6B
:10ECF0000C00B5F13D0147F1FF330246D4E90C07A2
:10ED0000401A67EB03010027B8463B463F1A78EBF1
:10ED1000010705DA171A73EB0107A8BF024613466D
:10ED20000CEB0300A16B471A41F28830874288BF81
:10ED300041F288370FF035FD401B00F1A1008742FA
:10ED400004D33146384607F027F910B10020BDE85A
:10ED5000F081A06B3844A063206C3844206408F034
:10ED600051FB0120BDE8F081D00A00202DE9FF4FC2
:10ED700095B016468146FBF79DFD09900FF011FDF9
:10ED80004FF0000ADFF82C8405918DF810A007469B
:10ED90005546D8F808400DF024FA014698F82F207F
:10EDA000002000BF08EB8003401C9B6805EB010CB2
:10EDB000C0B203EB0C058242F4D2FE4840688542A3
:10EDC0000CBF012100210E42119108D0F9490A78A7
:10EDD000002A1ABFB1F86C100029012101D04FF0B0
:10EDE00000011091169900297ED0059817F5FA6850
:10EDF00040F10000039002F0AFFD02F053FE054623
:10EE0000EC480078052841D1EA4EB06AD0F81003EA
:10EE100002F028FE0090A8421ED0B06A009900F5CA
:10EE2000427002F0C9FD0020C6F86800D6F828B08C
:10EE3000009EBBF1000F1CD02EB302F087FDE8B19D
:10EE4000D6E90002B168401842EB0A01CBE9C201E1
:10EE5000B08BABF8240319E0B16A01F54271B166D9
:10EE6000B16AB06DD1F81013884238BF0846B0655A
:10EE7000DCE740F293712120F1F720FF40F2997115
:10EE80002120F1F71BFF0020CBE9C200C94E294623
:10EE900006F1500002F090FD002D1CBFA88BA6F8D3
:10EEA0006C00B3467668039808BF002012D0D5E9FD
:10EEB00001212B68CDE900805B1842EB0A01324644
:10EEC00018460DF039FBB04204D940F2F931212047
:10EED000F1F7F4FE054602F045FD039918EB05062F
:10EEE00041EB0A08594600E01DE0DBF80400321A45
:10EEF00068EB0A00C1E91420189868B142F2107159
:10EF000048430BF13002301848EB0A01C2E9000116
:10EF10004FF0010B00F09CB94FF0FF3250080A632C
:10EF2000CBF83400F4E71099002974D0DFF884821C
:10EF30000998059D98F82E10401D095C082908D0F5
:10EF400004290AD002290ED00822012911D000F08C
:10EF50008DB940221420134602E0102214202E23E3
:10EF60004FF4A87C09E00422122053464FF0180CFD
:10EF700003E02A2053464FF0280C634412FB003074
:10EF800086B2084604F0E8FF4AF2A13101444FF48A
:10EF90007A70B1FBF0F0304400F1F90608F130006E
:10EFA0006FF00042D0E90010504070EA010026D016
:10EFB0008DF828A00B960DF0EFF8ADF83000012089
:10EFC0008DF833000DF0E8F800F5837081B2C819B0
:10EFD0004AEB0501CDE90E0102208DF832000AA8A6
:10EFE00007F0C6FC90B1DDE90E02801942EB0A0180
:10EFF000D8E90C23101A73EB010048BF00243E46E9
:10F00000D346DDF8148000F023B904E040F2355116
:10F010002120F1F753FEEEB3664DD5E914137A1AA9
:10F02000B2FBF0F200FB02F2891843EB0A020E1861
:10F0300042EB0A000390B6EB07080DF0ADF800F5BF
:10F04000837080B2804510DA2B6D286AC11A686817
:10F05000B1FBF0F100FB01F15918711AB1FBF0FBA3
:10F06000039980194AEB01012EE08DF828A0E86B86
:10F070000B900DF091F8ADF8300001208DF83300C1
:10F08000D5E91402296A0B1A6968B3FBF1F301FB95
:10F0900003F300E01BE0C31842EB0A02CDE90E3295
:10F0A0002A78042A07D101EB81025200181A9042F3
:10F0B00038BF022000D301208DF832000AA80BF0DF
:10F0C00070F98346DDE90E0106468846C0E004A9D2
:10F0D0000A913849D1E91423B91AB1FBF0F100FBC8
:10F0E00001F0101843EB0A01CDE90B103C1AFBF7B5
:10F0F000E1FB83460DF050F800F5837080B22518CF
:10F1000000262C460DF06DF880462A484068A04243
:10F1100098BF241A274B93F82F00002818BF03F13B
:10F1200008010AD00A684244A24202D8A41A721CFA
:10F13000D6B2401E01F10401F4D11E4800EB860056
:10F140000F9080680D900BEB06004079082807D0DF
:10F15000042809D002280DD00822012810D085E00B
:10F1600040221421134602E0102214212E234FF4D2
:10F17000A87C09E00422122153464FF0180C03E04A
:10F180002A2153464FF0280C634412FB01311FFA29
:10F1900081FB04F0E1FE4AF2A13101444FF47A70A0
:10F1A000B1FBF0F00BEB000108190D99F930884222
:10F1B00006D801E0D00A00200F988068041B12E0F6
:10F1C0008C4890F82F10B14219D9711CCEB2416809
:10F1D000A9420FD900EB8601896801EB080500BF41
:10F1E00000EB86008468002C19DA40F2FA412120F5
:10F1F000F1F764FD40F2D4412120F1F75FFD416851
:10F200002A468D4238BF0D46EAD3B2EB410F38BFD4
:10F210004D00E5D340F2F1412120F1F74FFD0A986E
:10F22000744B0670DDE90B014E1940EB0A08D3E977
:10F23000140C99695D68091AB1FBF5F101FB05F140
:10F2400040184CEB0A01C3E91401301AB0FBF5FB7E
:10F250009DF8101009980844407908280BD004281C
:10F260000DD0022811D00823012814D04FF4827148
:10F270000520F1F723FD40231422194602E0102354
:10F2800014222E214FF4A87C09E0042312225146B7
:10F290004FF0180C03E02A2251464FF0280C61442D
:10F2A00013FB02118DB204F057FE4AF2A131014462
:10F2B0004FF47A70B1FBF0F02844F9304D4A0990D0
:10F2C0002046D2E90C13891B63EB080500239C46FA
:10F2D0005B1A7CEB0503A8BF504605DA431A7AEBAC
:10F2E0000503A8BF0C4620469DF8101002EB8101D3
:10F2F0008968814298BF08461446D063109830BB95
:10F30000BBF1000F23D04FF6FF7000EA4B01B4F9B8
:10F310006C000BF02DFEB4F86C10091A0AB2A4F8B8
:10F320006C20A16A41B1A1F82423D1E9C2231218AB
:10F3300043EBE073C1E9C223D4E914234FEAE0713F
:10F34000361848EB010810185941C4E91401169801
:10F35000002818BFC4E90668C4E9086811980028A5
:10F3600014BF0998E06B0125A06389F80B500CF0DD
:10F3700013FFA9F808002078042809D16068226DDD
:10F3800000EB80004000B11A814238BF022000D358
:10F39000012089F80A00A06BC9F804001098002821
:10F3A00004BF89F800A0C9E904681AD089F80050A0
:10F3B000D4E90C020599C01B62EB0101002213463F
:10F3C000121A73EB010207DA0B4A0023121A73EBCD
:10F3D0000102B8BF084882460998AAEB0000C9F8A4
:10F3E0001000E16B099881422CBF0120002019B068
:10F3F000BDE8F08FD00A00200040420F00002CA68C
:10F40000E0A1000020A800000000000020A80000EB
:10F4100000000000141E0000301100000000000079
:10F4200060EA000000000000000000000000000092
:10F4300060EA000010B504F007FC05494A68824202
:10F4400024BF0878002814BF0020012010BD000050
:10F45000140300202DE9F04104224A4E86B04FF4F7
:10F460007A7705297DD2DFE801F00C3303396A0091
:10F4700080F8282304F01CFC06B0BDE8F04107F03A
:10F48000E5BE044640480078002818BF84F82823C9
:10F4900007D000BF04F00CFC06B0BDE8F04107F057
:10F4A000D5BE012200232146684600F0C7F994F832
:10F4B0002903694606F0B8FF28B1B4F8BC00401C27
:10F4C000A4F8BC00E6E74FF435713520F1F7F6FB00
:10F4D000032180F8281306B0BDE8F0810446406996
:10F4E000C4F83003D4F84C036062B4F848032085B4
:10F4F000D4F850036061B4F85403A083B4F8560301
:10F50000E08394F86F5094F86E80284604F024FD50
:10F5100036F8181000F29D700844B0FBF7F015F0B3
:10F520000C0118BF2821084400F1BF0120460BF050
:10F53000D1FC022084F8280306B0BDE8F08190F8E1
:10F540006F40804690F86E50204604F005FD36F876
:10F55000151000F29D700844B0FBF7F014F00C0198
:10F5600000E00AE018BF2821084400F1BF0106B0FE
:10F570004046BDE8F0410BF0ADBC40F22B313520E8
:10F58000F1F79CFB90C2010014030020074810B55E
:10F5900000210160416000F00BF8002808BF10BD99
:10F5A00040F245113520F1F789FB000014030020DB
:10F5B0002DE9F0412A4F82B00120387000250095D6
:10F5C0004FF6FF76019525E0009800281CBF90F8C3
:10F5D000281300291ED00088B04218BF4FF0200821
:10F5E00038D00021F2F770FA040019D094F82903FA
:10F5F00007F0F0FC84F8285394F8290307F0C8FCBE
:10F6000098B184F8298304F5427002F00BFA009552
:10F6100001951AE06846F2F761FB0028D4D019E0A2
:10F620004FF4E8713520F1F749FB40F2BF11352066
:10F63000F1F744FB009800281CBF90F8281300291C
:10F6400003D00088B042CCD104E06846F2F746FB14
:10F650000028EFD03D7002B00020BDE8F08100002E
:10F660001403002010B5040007D094F8280348B113
:10F6700040F2A3113520F1F721FB4FF4D171352071
:10F68000F1F71CFB94F82903202804D04FF4D27121
:10F690003520F1F713FB2146044807F0B3FD84F849
:10F6A0002903202814BF00200D2010BDEDF6000016
:10F6B00001494870704700001403002070B50546EA
:10F6C00009494FF47A70B1FBF0F40CF08AFD204444
:10F6D00000F1BF0128460BF0F0FBB0F5296F28BF01
:10F6E0004FF4296080B270BDF92201002DE9F0418C
:10F6F00086B0040008D009297ED2DFE801F00A5D57
:10F70000676762977C86920040F201113520F1F71D
:10F71000D5FA94F82803D8B1204600F03BFA002827
:10F7200004BF06B0BDE8F081254694F86F400CF0A8
:10F7300058FDC03080B214F00C0118BF282100EB36
:10F7400001083D4F7878002818BF6C690AD104E0A1
:10F7500040F209113520F1F7B1FA2C6B6869A0422B
:10F7600038BF044605F130000BF0B2FB06460CF042
:10F7700038FD0644A41B002CD8BF0024022006F04C
:10F78000FBFC844228BF04460221204606F004FC0C
:10F79000002808BF26440CF024FD301AA0F1AF0465
:10F7A0004246314628460BF0DBFA786006B0204628
:10F7B000BDE8F04107F026BE06B0BDE8F04100F01C
:10F7C0005DBB06B0BDE8F04104F0DCBD00220123C2
:10F7D0002146684600F032F894F82903694606F09D
:10F7E00023FE00281CBF06B0BDE8F0814FF4357140
:10F7F0003520F1F763FA00E018E0012006F0BCFBC9
:10F8000006B0BDE8F0410AF0D2BB94F82803042802
:10F8100004BF06B0BDE8F08140F22F113520F1F7AA
:10F820004DFA4FF49A713520F1F748FA4FF49C7174
:10F830003520F1F743FA0000140300202DE9F84FBA
:10F840000027994616460C460546B8460CF0A4FC1F
:10F85000009094F8C5000E2816BF0F284FF0010A3B
:10F860004FF0000AB9F1000F03D00121204600F04B
:10F870002DFA94F8280350B1012833D002282BD058
:10F8800003282FD04FF419713520F1F717FAF6B18C
:10F89000012084F8280394F86F6094F86EB0304625
:10F8A00004F05AFB684900F29D7031F81B100844BF
:10F8B0004FF47A71B0FBF1F016F00C0118BF28215B
:10F8C000084400F1BF0120460BF004FB0BE04FF4AD
:10F8D0000B713520F1F7F2F90320D4F8307384F876
:10F8E000280300E0676902F031F858B9B4F924033D
:10F8F00002210BF03DFBB4F824138046A1EB080075
:10F90000A4F82403D4E9C210002617EB080346EB41
:10F91000E872C9185041C4E9C210C5E904102E703C
:10F920000098288194F8C5000E2818BF0C282CD008
:10F93000262818BF4FF0000827D020460CF0D2FC34
:10F94000A8F10101084208BFAE7205D094F828035F
:10F95000012818BF0220A8720120E87204F13000CB
:10F960000BF0B6FA686039EA0A0008BFBDE8F88F04
:10F97000394628460AF015FD1FFA80F920460CF09A
:10F98000B1FCB8F1000F03D017E04FF00108D4E745
:10F99000484512D8AE72D4E9C212804607FB08F07F
:10F9A000081842EB0601C5E9040177B1394628463B
:10F9B0000AF0F7FC40441FFA80F94946204600F05F
:10F9C00085F901F0C3FF28B11EE040F2A6213520E1
:10F9D000F1F774F94FF48030B0EB490F94BF4FF654
:10F9E000FF704FEA490081B2B4F924030BF0C0FA6A
:10F9F000B4F82413C317091AA4F82413D5E9042171
:10FA000010185941C5E90401D5E90401C4E9C2014E
:10FA1000606F002808BFBDE8F88FB4F8BC00B4F8E8
:10FA2000F220801A01B20029D8BFBDE8F88FB4F8DF
:10FA300078000144491E91FBF0F189B201FB0020DE
:10FA4000A4F8F200BDE8F88F90C20100064805490D
:10FA50000165064941650748054901650649416553
:10FA600070470000BD110100300300209512010015
:10FA700051B00100DC03002047C401001D481C49AF
:10FA800081601D49C1611D49C1621D4901611D4956
:10FA900041611D4941641D4981611D4901631D4941
:10FAA00041621D49C1641D4981641D4941631D496D
:10FAB00081631E481C4981601D49C1611D49016265
:10FAC0001D4941601D4901601D4981621D49C16296
:10FAD0001D49C1601D4981611D4901631D49816442
:10FAE0001D49C1641D4941641D49416270470000C0
:10FAF000A915010030030020B515010055C3010010
:10FB0000F510010075C30100A914010025150100BD
:10FB10003116010031110100DFB2010065B20100B0
:10FB2000DD140100A112010009B00100DC03002076
:10FB300017C5010043C40100B5C30100DFC30100C4
:10FB40007FC40100B1C4010009C40100F9C401006F
:10FB500035C50100AFB2010009B30100D7C40100EF
:10FB60007BC401000648054981650649C16507480F
:10FB7000054981650649016670470000AD12010024
:10FB800030030020F5130100ADE40100DC03002088
:10FB900029170100F8B5494E0025A6F10C0735706C
:10FBA00070607D807D7004463D700088F2F76EFDC8
:10FBB00070680088F2F710FDB4F82A037168401CE1
:10FBC00082B201F1A800F4F743FC20B14FF4E171D7
:10FBD0003620F1F773F8A4F82A5394F8C6002628C3
:10FBE0000DD1B4F8BC00B4F84013401A00B200289C
:10FBF00005DB84F8C65001F0FBF9B0B952E094F887
:10FC0000C50026281CBF272828280ED1B4F8BC0020
:10FC1000B4F84013A0EB010000B2002805DB84F823
:10FC2000C55001F0E5F900283CD0706890F800114B
:10FC300029B1B0F8FC10B0F8FE20914230D290F813
:10FC4000041129B1B0F80211B0F8FE20914227D278
:10FC5000B0F8FA20B0F8F8108A4221D290F8C92002
:10FC600032B3B0F8F6208A421AD200BF90F84E01A3
:10FC7000FE2818BF00F048FB11480090D7E90301A7
:10FC8000104B114AF2F798FD70680023052190F897
:10FC9000C520A8300AF0E7F9002818BFF2F786FD62
:10FCA0000120F8BD0021084600F0CCFC0020F8BD82
:10FCB000B0F8F6100629F3D2D8E700002803002098
:10FCC00045060100D5FE0000C90E01002DE9F843EC
:10FCD0000446481E85B238BFBDE8F8834FF00108DE
:10FCE00004F1CE074FF0FF095FF00006B4F82A03D5
:10FCF000401CA4F82A03B4F8F600401CA4F8F6004F
:10FD000094F8CB0040B994F8C5200023062104F1F3
:10FD1000A8000AF0A8F9D0B1D4F8E800401CC4F853
:10FD2000E800D4F8EC1081422CBF0A1A0022A38B01
:10FD30005B1D934228BF84F8F480884207D30222D7
:10FD40004C4904F5E370C4F8E860F4F785FE94F8D4
:10FD5000000120B1B4F8FC00401CA4F8FC0094F8A9
:10FD6000040120B1B4F80201401CA4F8020194F887
:10FD700060018DF800009DF8000040B994F8C7209C
:10FD80000023012104F1A8000AF06DF920B1B4F8B4
:10FD9000FA00401CA4F8FA0094F8C5000C2818BF1B
:10FDA0000D280AD1B4F8BC10B4F83E23A1EB02012F
:10FDB00001F101010904090C04D00E2818BF0F2815
:10FDC0004CD11DE0D4F8380300F1010138460EF0A3
:10FDD000A6FC03212046F3F7FBFFD4F83803007894
:10FDE00048B10121FE2001F035FD204684F8C560B0
:10FDF00080F81E9132E040F252213620F0F75EFF8B
:10FE0000B4F8BC10B4F84603081A401C0004000CF7
:10FE100024D12188A4F83812D4F850030AF012F93A
:10FE2000A4F83A02B4F85413A4F83C12B4F85613E8
:10FE3000A4F83E1284F8366202220F4904F50B70D2
:10FE4000F4F70AFE204684F844630221F3F7C0FF6A
:10FE500003212046FFF7FEFA84F8C560B4F8BC0021
:10FE6000401C691EA4F8BC008DB2BFF43FAFBDE8D2
:10FE7000F883000053B2010029B001001448406823
:10FE800090F8001129B1B0F8FC10B0F8FE209142B2
:10FE90001AD290F8041129B1B0F80211B0F8FE207E
:10FEA000914211D2B0F8FA20B0F8F8108A420BD281
:10FEB00090F8C920B0F8F60022B1884204D200BF01
:10FEC000F2F7EABE0628FBD30020014600F0BABBD9
:10FED000280300200F4A5178D1B902F10C01012802
:10FEE000496809D0907810F0040F03D091F8C7004A
:10FEF00007280DD001207047486941F64C529042C6
:10FF000006D3B1F85420088F904201D3FFF792BA7C
:10FF1000002070471C03002030B5FA4C83B06068A5
:10FF200090F84E11FE291CBF03B030BD90F8C720D9
:10FF300000230121A8300AF096F800281CBF03B066
:10FF400030BD606890F860118DF800109DF80010C9
:10FF500029B103B00220BDE8304001F099B890F813
:10FF6000C52000231946A8300AF07DF848B1606822
:10FF700090F8F40028B103B01220BDE8304001F041
:10FF800087B86068002590F8C5201A2A30D006DCB2
:10FF9000032A33D0132A26D0142A1ED005E0252A9E
:10FFA00036D02E2A3CD0302A40D000230421A8305D
:10FFB0000AF059F800281CBF03B030BD606890F803
:10FFC000C6101F296BD03CDC072980F01681DFE8C2
:10FFD00001F0B5525F47FCB5FB0003B00B20BDE854
:10FFE000304001F055B803B0BDE8304000F02ABF02
:10FFF00003B00620BDE8304001F04AB890F849113E
:020000021000EC
:1000000080F8501103B00720BDE8304001F040B83F
:10001000182001F03DF86068A0F8FC5003B030BD36
:1000200003B02120BDE8304001F032B8012180F852
:100030005011112001F02CF8606880F8C55003B011
:1000400030BD292900F03F8104DC202927D0232955
:1000500065D0D2E0302972D0312900F03981CCE06E
:1000600090F8481180F85011072001F011F86068ED
:1000700080F8C650C1E00C2001F00AF86068A0F8D2
:10008000025190F8071141F0010180F80711B2E028
:10009000132000F0FDFF6068A0F80251ABE090F87B
:1000A00063218DF800209DF80020002A46D190F8A9
:1000B00062218DF800209DF80020C2B126291CBFC6
:1000C00090F8C510262910D0272918BF00230CD07E
:1000D00000F2423200F5B171F4F784FD606820212E
:1000E00080F8C61080F8625103E00123F0E7202970
:1000F00024D160680AF04DFE82480BF016F8606863
:10010000B0F84E10A0F85011B0F85210A0F85211EB
:10011000152000F0BDFF6068A0F802516BE090F878
:100120006C11012906D190F86D118DF800109DF821
:10013000001029B190F86C11022928D05DE045E04B
:10014000D0F86E21D0F86610B0F86E00ADF800005F
:1001500010460AF0A5F89DF80020C1B28A4219BFE6
:10016000626882F84213616881F842539DF8011079
:10017000C0F30720814203D0616881F8430302E0A5
:10018000606880F84353182000F082FF35E0D0F813
:100190006A20D0F86610B0F86E00ADF80000104686
:1001A0000AF07EF89DF80020C1B28A4219BF626849
:1001B00082F84213616881F842539DF80110C0F340
:1001C00007208142DCD0D7E711E009E0002180F868
:1001D0005011112000F05CFF606880F8C6500CE000
:1001E000092000F055FF606880F8C65005E01B202C
:1001F00000F04EFF606880F8C650606890F84E11BD
:10020000FE291CBF03B030BD90F8C520002319465D
:10021000A83009F028FF002818BF00F03FFC6068F4
:1002200090F84E11FE291CBF03B030BD90F8C520D8
:1002300000231946A83009F016FF002804BF03B0B8
:1002400030BD606890F83C138DF800109DF80010E8
:10025000002904BF03B030BD90F8C60009F07DFF4F
:1002600000281CBF03B030BD6068B0F8BC000A288D
:100270009CBF03B030BD6846F4F762F8002804BFA5
:1002800003B030BD6068052200F1CE0168460EF073
:100290001CFC0028606802BF80F83C5303B030BDEE
:1002A000D0F838030178C1B1411C052268460EF030
:1002B0000CFC00281CBF03B030BD6068D0F83803C8
:1002C000007888B909E0242000F0E2FE606892E737
:1002D0001E2000F0DDFE60688DE760686946D0F89A
:1002E0003803401C0EF01BFA6068D0F83803017820
:1002F000491C0170012000F0CBFE606880F83C537F
:1003000003B030BD2803002030B583B004466846F2
:10031000F2F7A6F960B33222002100980EF061FCDA
:10032000009D032128460AF0DFFC0098017801F0C7
:10033000EF0101702146F4F70BF92B2C80F060815E
:10034000DFE804F033291B5EF6F69321A0A4939313
:1003500094F6F6F6F6FE9393A9A9C3F6CEF6F679CF
:10036000F4F3F2F1F6F0EFF7F7F7F6F6F6F6ED0044
:1003700040F614213620F0F7A1FCAF4900984968F7
:1003800091F8611104E0AC490098496891F8501166
:10039000017100F021B9A8484068D0F83803411C29
:1003A00000980AF09DFB00F017B9A34C009D60680F
:1003B000D0F85013B0F84803F3F752FF2871606883
:1003C000009DD0F85013D0F84C03F3F71FFF68716D
:1003D000000AA8716068009DD0F8500309F032FE51
:1003E000E871000A287262680098B2F854134172EA
:1003F000090A8172B2F856130AF0AEFB00F0ECB8AD
:100400008D4C606800F2593100980AF0C6FB6068B4
:1004100000F2613100980AF0B0FB606800F27331BD
:1004200000980AF0C6FB606800F5A07100980AF019
:10043000ABFB00F0D1B800200190012128460AF062
:1004400039FC7D48406810F8102F032A08BF0022AD
:100450009DF80410407862F3871160F304018DF871
:10046000041001A928460AF02EFCB5E000980D21E1
:10047000017159214171002181717721C1711021D0
:100480000172A9E00098F4F719FFA5E06A48009905
:10049000F4F77CFFA0E0684C6068B0F84C1000985E
:1004A0000AF032FC6068B0F8501100980AF030FC95
:1004B0006068B0F8501000980AF01EFC6068B0F850
:1004C000521100980AF01CFC86E05B4900984A68CB
:1004D00092F86E210271496891F86F1141717BE0C9
:1004E000554C606890F8430309F094FE014600986B
:1004F0000AF0CCFB616891F8420310F00C0F1CBFAE
:1005000091F86E1011F00C0F02D0884218BF002035
:1005100009F080FE014600980AF0B4FB5CE034E08C
:1005200007E052E04BE042E03DE038E025E007E044
:1005300066E0424B404A20461B68009998474BE0D2
:100540003D4C606890F8501159B190F84D110098E9
:100550000AF0AAFB606890F84C1100980AF0A8FB1A
:100560003AE090F84B1100980AF09EFB606890F812
:100570004A1100980AF09CFB2EE02F48406800F2D8
:10058000791100980AF04BFB26E02B48406800F2F6
:100590009B1200F2791100980AF045FB1CE00098CC
:1005A0000EF058F818E000980EF05CF814E02448BB
:1005B00002688AB120484168284690470CE01E48EE
:1005C000416800980CF0C4F806E01B48406800F54C
:1005D000B07100980CF0BFF9F2F71AF8A8B10098C2
:1005E000C178012916D0F1B118291CBF03B030BD64
:1005F00011494968B1F840130AF02FFB03B030BD30
:1006000040F6EA213620F0F759FB4FF42F613620EF
:10061000F0F754FB08494968B1F83E134172090AE2
:10062000817203B030BD04494968B1F84613417383
:10063000090A817303B030BD280300209404002010
:10064000880400202DE9F843FE4F804607F10C0591
:1006500078880C4610F4807F68684FF0000618BF59
:10066000A0F8F66004D1B0F8F610491CA0F8F61016
:1006700090F8CB104FF0010939B990F8C52000234C
:100680000621A83009F0EFFC48B3788810F4006F19
:1006900007D0686890F8CB10002918BFC0F8E86050
:1006A0001DD16868D0F8E810491CC0F8E810D0F8EF
:1006B000EC208A422CBF511A0021828B521D8A42A3
:1006C00028BF80F8F490D0E93A12914207D3C0F8DD
:1006D000E8600222DC4900F5E370F4F7BDF97888A0
:1006E00010F4407F08D0686890F8C91021B980F8EC
:1006F000C9900121FEF7AEFE58EA040040F01781D0
:10070000798811F0040F0CD0686890F8C520032A8E
:1007100037D090F8C720072A04BF87F8009080F8E8
:10072000C76011F0020F09D07868C0782B282DD24D
:10073000C64951F8201049B3C5488847B87810F029
:10074000080F37D06868002190F84E0101F082F858
:10075000686890F84E11FE291DD0FE2180F84E11D8
:1007600090F8C5100C2904BF0D2180F8C51019D0D0
:100770000E2908BF0F2113D0262908BF27210FD02B
:1007800010E040F291613620F0F798FA40F29D7146
:100790003620F0F793FA40F2A9713620F0F78EFA7E
:1007A00080F8C51090F8C710082903D102213970CC
:1007B00080F8C760B978002011F0010F2AD0B8681E
:1007C00000230521C478686890F8C520A83009F096
:1007D0004AFC002818BF062C0ED008DC022C1CBFD7
:1007E000042C052C08D000BF4FF0080012E00B2CA1
:1007F0001CBF0D2C112CF7D1B868F3F799FEE0B1AE
:10080000B868C0782B2818D2924951F82010A1B1AD
:100810008F4888478146787810F0080F1FD06868A5
:100820000023052190F8C520A83009F01CFC002801
:1008300018BF4FF0080904D011E0002000F07EFC42
:10084000E8E7694603200096F2F7CAF9009830B14C
:1008500000F108010E7010226968F4F799F86C68CD
:1008600094F8C5000C281CBF01460D280AD1B4F825
:10087000BC10B4F83E23A1EB020101F1010109040F
:10088000090C04D00E2818BF0F284DD11EE0D4F853
:10089000380300F1010104F1CE000DF040FF032107
:1008A0002046F3F795FAD4F83803007848B10121CF
:1008B000FE2000F0CFFF84F8C560FF2084F81E0101
:1008C00032E040F252213620F0F7F8F9B4F8BC00DB
:1008D000B4F84613401A401C0004000C24D12088B0
:1008E000A4F83802D4F8500309F0ACFBA4F83A029B
:1008F000B4F85403A4F83C02B4F85603A4F83E023A
:1009000084F836620222544904F50B70F4F7A4F817
:1009100084F8446302212046F3F75AFA0321204663
:10092000FEF798FD84F8C5604C46FFF7F5FAC1461E
:100930006868A04600F1A80490F860018DF80000F6
:100940009DF8000030B9E27F00230121204609F024
:100950008AFB20B1B4F85200401CA4F8520094F86D
:10096000581021B1B4F85400401CA4F8540094F974
:100970005C0020B1B4F85A20521CA4F85A20B9F1F6
:10098000000F17D13A78022A08BF162044D0012A56
:1009900008D0B8F1000F1ED018F0100F18BF1E209D
:1009A00005D039E0686890F8C800A8BB67E018F087
:1009B000080F01D03D202FE018F0030F18BF2A20A8
:1009C0002AD118F0200F18BF232025D140F601515D
:1009D0003620F0F773F929B1B4F85410B4F8562062
:1009E000914218D828B1B4F85A00B4F85610884289
:1009F00011D8B4F85200B4F85010884207D36A688E
:100A000092F860218DF800209DF800201AB9B4F802
:100A10005620904224D3222084F83D0002220F4920
:100A200004F13400F3F7B4FF6677A67784F8216009
:100A300002216868FEF70EFD686890F84E110129E2
:100A400021D124E01C03002053B20100DC0300206C
:100A5000280300203003002029B00100B551000018
:100A600094F821000028B4F84E0004D0884228BF32
:100A70000820D1D203E0062828BF3E20CCD2002196
:100A80006868FEF7E7FCBDE8F843F1F7ABBDD0F8C6
:100A900038030178491E0170F5E7000038B5E54CD0
:100AA000606890F844138DF800109DF8001021B193
:100AB00090F8C60009F051FB70B1606890F85813C7
:100AC000C1B190F8CA1089B190F8CB0048B1BDE827
:100AD00038400A2000F0DCBABDE83840002000F0C1
:100AE000D7BA4FF403613620F0F7E8F8BDE8384094
:100AF00000F0A8B990F8731121B1BDE83840082082
:100B000000F0C6BAD0F8841369B3B1F5AC7108D05F
:100B100091F81021012A09D040F648013620F0F75B
:100B2000CDF840F644013620F0F7C8F891F83111BD
:100B30008DF800109DF8001021B140F649013620D3
:100B4000F0F7BCF890F81911490911F0010F04D021
:100B5000BDE838401F2000F09BBAB749096801B0D2
:100B6000BDE83040084790F87211002591B190F827
:100B7000070110F0030F18BF38BD0C2000F088FAF1
:100B8000606890F8071141F0010180F8071180F8C2
:100B9000725138BD90F862118DF800109DF8001068
:100BA00031B190F863118DF800109DF8001021B15B
:100BB00090F86C11012932D125E090F8C610262951
:100BC0001CBF90F8C51026291BD0272918BF002369
:100BD00017D000BF00F2423200F5B171F4F702F80D
:100BE000606800F5B1710D70B0F84E10A0F85011AA
:100BF000B0F85210A0F85211BDE83840142000F0AF
:100C000047BA0123E6E790F86D118DF800109DF8C2
:100C1000001021B990F8C60009F09FFAC0B16068D1
:100C200090F874118DF800109DF8001000297BD009
:100C300090F878010BF052F90028606865D07F4B7E
:100C400090F8782100F279111B687A48984768E09B
:100C5000606890F86E10012908BF01230ED00229A8
:100C600008BF02230AD0042914BF0829032305D092
:100C700040F2D7214FF00600F0F720F890F86F20EF
:100C8000012A18BF022A04D0042A14BF082A03220A
:100C9000EED190F86EC1012B07D0022B09D0032BA7
:100CA00008BFBCF1040F07D016E0BCF1010F13D14F
:100CB00002E0BCF1020F0FD190F86F31012A06D08B
:100CC000022A07D0032A08BF042B0AD004E0012B14
:100CD00002D106E0022B04D0BDE83840162000F017
:100CE000D7B9B0F8BC3000F55072B0F8700109F017
:100CF0003DFB20B16168282081F8C50038BDBDE802
:100D0000384000214B4802F0BBB8DFF834C190F8FE
:100D1000783100F29B1200F27911DCF800C04548EE
:100D2000E04750B1012800E017E008BF38BD0228B5
:100D300004BF606880F8745138BD606890F878012D
:100D40000BF0CCF820B1BDE838401C2000F0A0B971
:100D5000BDE838402A2000F09BB990F8A9118DF821
:100D600000109DF8001021B1BDE83840232000F0AC
:100D70008FB990F8A6118DF800109DF8001031B1D0
:100D8000252000F085F9606880F8A65138BD90F8FC
:100D9000B2118DF800109DF8001021B1BDE8384067
:100DA0001D2000F075B990F8AA118DF800109DF87B
:100DB0000010002908BF38BDB0F8AC010821F0F7D9
:100DC00083FE00B390F830118DF800109DF80010EC
:100DD00069B190F81011B1B101290DD002291BD0D1
:100DE000032922D04FF412613620EFF767FF4FF44A
:100DF0000F613620EFF762FF90F831018DF80000A7
:100E00009DF8000018B1606880F8AA5138BD40F61E
:100E100008113620EFF752FF616891F8B01180F8A1
:100E20003111606880F8AA5138BDBDE838402220F1
:100E300000F02EB92803002090040020AC0400200C
:100E4000B004002010B51F4C626892F854010828C5
:100E50000DD2C0F1080100F27330C9B21044F0F7AE
:100E600015F8616891F85421104481F854016268C2
:100E700092F85401A0F1080104290ED20838C0F1FB
:100E8000040100F5A070C9B21044EFF7FFFF6168DC
:100E900091F85421104481F85401606890F854117D
:100EA0000C2938BF10BD05D040F661314FF0360037
:100EB000EFF704FF002180F85411BDE81040032033
:100EC00000F0E6B82803002070B5484B4FF0000C46
:100ED0004FF001045A8800F0010502435A8003F1E3
:100EE0000C0210F0020F526808D0002D08BF5960A4
:100EF0000AD040F66F413620EFF7E0FE002D18BF14
:100F0000996010F0020F14D0CD78062D07D00B2D6C
:100F100002BF92F8C540142C82F8CBC009E092F8C9
:100F2000C5C0BCF11A0F04D10025C2E94A5582F8A8
:100F3000CB4010F0200F1CBF4FF0080C83F801C00D
:100F400010F0800F08BF70BDB2F8BC405369B2F812
:100F50001CC0062041F64C559D4284BF4AF6C8701D
:100F6000B0FBF3F02044CB78604480B2012B08BF83
:100F7000A2F83E031FD0002B08BFA2F846031AD0E8
:100F8000182B18D192F84233002B04BF92F843C3B8
:100F9000BCF1000F0BD013F00C0F1EBF92F86EC007
:100FA0001CF00C0F634504D092F843330BB94FF09B
:100FB0000000A2F840030846C978012909D071B1A0
:100FC000182918BF70BDB2F84013BDE8704009F091
:100FD00044BEB2F83E134172090A817270BDB2F884
:100FE00046134173090A817370BD00001C03002081
:100FF00070B5254C0125626892F84213002908BF9C
:1010000092F86E1092F84303002808BF92F86F0020
:1010100002F1660382F86E1082F86F00FF2098726A
:101020001A480368002B1CBF104698470021164839
:1010300001F026FF6068303009F04AFF064660681C
:1010400009F0A7FE38B1606800F5E87200F13001E0
:101050000088F3F79DFD04216068FEF7FBF96068E6
:10106000303009F035FF0446A6420BD205F0CEF829
:101070000146A01B672838BF672004F08DFF0028B9
:1010800018BF0025284670BD280300209C040020BE
:1010900017490C28496881F84E0114BF132870477E
:1010A0001B2814BF182870474FF00002112815D0D4
:1010B000072814BF09287047152816D0242814BF04
:1010C0001E28704701281ABF002802287047A1F87F
:1010D000FC204FF0010081F80001704791F85001A9
:1010E00000281CBFA1F8FC207047A1F8022170471E
:1010F0002803002070B50446406890F8C5101529F3
:101100001CBF022070BD00F27B31084DA86809F0B9
:101110005DFD606800F5A271A86809F051FD616885
:10112000182081F8C500002070BD00001C030020BD
:1011300001498968F4F7D2B81C0300202DE9F04179
:10114000DFF87480002608F10C0503276968012484
:10115000A8B1D8F80800C07881F8490104FA00F075
:1011600010F4000F06D081F8C570A1F8FC6081F87A
:1011700000411DE04FF4C4613620EFF79FFD91F868
:10118000C62001F1A8000023194608F06CFF0028D2
:1011900004BF0120BDE8F081D8F80800C178686874
:1011A00080F8481180F8C670A0F8026180F8044108
:1011B0000020BDE8F08100001C0300202DE9F84369
:1011C000044640680023194690F8C620A83008F06D
:1011D0004AFF002804BF0120BDE8F8832B4DA86812
:1011E00009F00CFD50B3A86809F002FD0646A86896
:1011F00009F002FD0746A86809F0F8FC8046A868D7
:1012000009F0F8FC0146009660683B4642463030E3
:1012100009F073FE6068012590F8C5101E2916BFFD
:1012200090F8641080F86450012914D090F863118C
:101230008DF800109DF8001031B10CE0BDE8F843C6
:101240004FF00000FFF77ABF90F862118DF80010A0
:101250009DF8001021B16168202081F8C6000BE0E4
:101260001F2180F8C6100A48406800F5F37200F1AB
:1012700030010088F3F7F0FC61680020A1F802015A
:10128000606880F804510020BDE8F8831C0300204A
:10129000280300200149896809F0EEBE1C030020E4
:1012A00001498968F3F7C8BF1C0300202DE9F0410C
:1012B00004464068002586B090F8C6202B46294693
:1012C000A83008F0D0FE002802BF012006B0BDE81B
:1012D000F081606890F8C500252819BF26282728C6
:1012E000202006B008BFBDE8F0816846F1F7A4F9F8
:1012F000002808BF002104D0009803A9C0788DF809
:101300000C00606802AB162290F8C50008F0A8FF38
:101310000126002798B19DF808201621324809F0CF
:101320004BFE6168302081F8C600606880F8046177
:101330006068A0F8027106B00020BDE8F081DFF817
:10134000AC80D8F8080009F07CFCB0B1D8F80800EF
:101350006268017901F0070182F86610407900F0B7
:101360000702606880F86720606890F86D118DF85A
:101370000C109DF80C1029B128E00020FFF7DEFECC
:1013800005462DE090F86C1101291FD090F86630C9
:1013900090F86FC000F16E019C4501BF0978914241
:1013A000022180F86C1111D00F48416801F50170DD
:1013B0000A8820F8022B91F8662000F8012B91F89A
:1013C000671000F80D190A4909F0BAFC616823207A
:1013D00081F8C600606880F804616068A0F8027156
:1013E00006B02846BDE8F081280300201C03002039
:1013F000C12E0100F8B50446406890F8C5002128C8
:101400001CBF0120F8BD264EB06809F041FC002841
:101410003CD0B06862680179407901F0070161F35E
:101420000705294600F0070060F30F21012082F82C
:10143000000160680025A0F8FC506268252082F851
:10144000C500606806F10C046268D0F86E01B2F85D
:101450006E20ADF8002008F023FF9DF80020C1B2F7
:101460008A4207BF616881F84253626882F842137A
:101470009DF80110C0F30720814219BF616881F80F
:101480004303606880F843530020F8BD0120FFF754
:1014900055FE04461E21034801F0F2FC2046F8BD2B
:1014A0001C0300202803002070B5044640680A4D44
:1014B00090F8161141F0040180F81611A86809F09F
:1014C000F1FB0646A86809F0F1FB014622463046CA
:1014D000BDE8704000F0B2B81C03002002460F487F
:1014E000806801790E48406890F8C500A0F11103AA
:1014F0000C2B98BF03200FD9292808BF23200BD01D
:101500001E2808BF142007D0052808BF122003D0CA
:1015100021280CBF1620FE2000F090B81C030020EC
:101520002803002070B50446406890F8C5101C29B7
:101530001CBF022070BD002580F80551606880F84E
:101540000051606880F85853606890F8061181B1C6
:1015500080F80651606802220188A0F8F4126068E1
:101560000F4980F8F252606800F53A70F3F710FA0C
:1015700010E00188A0F8F4126068022280F8F252AC
:101580006168012081F8F6026068064900F53A704A
:10159000F3F7FEF9606880F8C550002070BD0000C8
:1015A0006BB101004BB101000149896809F013BD1D
:1015B0001C03002002461A4810B5806851680024B8
:1015C000037991F8C5001D2B18D005DC122B1CBF28
:1015D000142B162B22D106E01F2B17D0232B08BF6C
:1015E000292807D01AE04FF00101184600F0E2F870
:1015F000044613E00B48016829B90FE031280DD1EA
:101600000948016851B11046884707E02D2805D1E7
:1016100006480268002A1CBF08469047204610BDB5
:101620001C030020A0040020A80400209004002037
:1016300001498968F3F7DCBE1C03002038B5354D3D
:101640000346002468681F2B58D00CDC142B12D0E2
:1016500004DC032B14D0122B0DD059E0162B0AD02A
:101660001D2B45D054E0232B1CBF242B252B39D018
:10167000FE2B0ED04CE00021184600F09BF835E020
:1016800090F8C520182A12BF152A90F80621002AC2
:1016900002D04FF002043BE04FF0000480F8054117
:1016A00080F8004190F8F0228DF800209DF800208D
:1016B0002AB14FF47A714FF03600EFF7FFFA028843
:1016C000A0F8F42280F8F21280F8F64280F858432D
:1016D0000222114900F53A70F3F75AF9686880F868
:1016E000C54015E00D4802682AB911E004460FE034
:1016F0000B48026862B118469047F7E7094AD2F8EA
:1017000000C0BCF1000F03D00A461946E047EDE7E0
:10171000204638BD280300204BB10100980400206A
:10172000A40400208C04002070B54268044692F89E
:101730004203002805BF92F843030028002001203F
:1017400092F8C6304FF026014FF00005232B08D049
:1017500092F8C530252B1BD040F22F713620EFF7C1
:10176000ADFA002808BF82F8C6100DD082F8C65026
:10177000606890F86C01012803D100210C4801F049
:101780007FFB606880F86C51606880F8045170BD20
:10179000002808BF82F8C51005D0294682F8C55038
:1017A000034801F06DFB606880F8005170BD0000D7
:1017B0002803002070B50E460146506814460025E7
:1017C00090F8C52022481229406808D0142911D069
:1017D000162924D040F2C9513620EFF76FFA0921BB
:1017E0000023A83008F03FFC78B3204609F077FDCD
:1017F00005462AE00A210023A83008F034FC20B373
:10180000134809F0DFFB36B1606890F8161121F03B
:10181000200180F816110E4809F087FC15E0212AF6
:1018200013D10B4809F0CEFB5EB1606890F8171138
:1018300021F0010180F81711606821F0080180F89B
:1018400017111A21024801F01BFB284670BD000049
:10185000280300203C4A10B55268012914D0002109
:101860001C2824D01CDC40B3012831D0032818BF29
:1018700010BD92F8C500152814BF182810BD1A28ED
:1018800018BF82F8581310BD92F84E01012808BF06
:1018900010BD00BFD2F838030178491E017010BD99
:1018A00021281FD0222842D02A2818BF10BD02F5B7
:1018B000BA70017082F8001110BDB2F8BC00B2F825
:1018C0004633C01A00B20028A8BF82F8441310BDE6
:1018D000B2F8BC00B2F83E13401A00B20028B8BFFC
:1018E00010BDD7E7D2F88403002818BFB0F5AC705C
:1018F00013D090F81011012904BF022180F81011B3
:10190000D2F8841302F5617261B109681160D0F8F0
:101910002011891DC0F8281110BD40F2AB213620DE
:10192000EFF7CCF94FF42D713620EFF7C7F902F538
:10193000D5700170014652380AF0F5FFBDE810403D
:10194000014809F03FBB000028030020014800794E
:1019500070470000B404002001490120087170475D
:10196000B40400200149002008717047B40400202D
:1019700010B5816919B182688B689A4203D2C62179
:101980003720EFF79BF942694A6103690B61002A2E
:1019900012BF1161074A11600A69002A08BF0020BE
:1019A00005D05161D0E9022010448A68801AC860CD
:1019B00010BD0000B404002010B500234161C1B186
:1019C0000A6908610261002A18BF50614169C36059
:1019D000002908BF10BDCA687AB1D0F808C06245B6
:1019E00024BFA2EB0C02C26007D22B213720EFF7F5
:1019F00065F9034903610860E8E7CB6010BD0000AA
:101A0000B40400204169002904BF0169002905D1FF
:101A10000349096881421CBF0020704701207047BC
:101A2000B4040020416949B1D0E902231A44CB68CB
:101A30001A44CA60D0E90412116102E0084A01693F
:101A4000116002690021002A1CBF4369536103D160
:101A50004269002A18BFD1600161416170470000EE
:101A6000B40400200B498446002009680246431E46
:101A700069B1CA68624528BF934284BF13460846CD
:101A80000A4609690029F4D1002818BF704710469A
:101A900070470000B404002001480068704700004F
:101AA000B4040020054801680020002908BF7047E1
:101AB000084609690029FBD170470000B4040020E2
:101AC000024800210160416070470000B40400201A
:101AD000044900200A68002A12BF0C2000224A6034
:101AE00070470000B404002070B5006815460E462B
:101AF000002818BFB0F5AA7417D000BF94F8FC00F6
:101B0000A8420BD1B4F8F6000721EFF7DDFF28B1AA
:101B1000007DB04202D1B4F8F80070BDD4F8540191
:101B2000002818BFB0F5AA74E8D14FF6FF7070BD59
:101B3000074902888B889A4208D3B0F803202AB15B
:101B40004A83B0F8030008830020704711207047D3
:101B5000701200202DE9FC41124C0746E07D10B1C7
:101B60000026354610E00C20BDE8FC8107EB850817
:101B70006946B8F8010008F041FA68B9B8F80300FE
:101B80006D1C304486B2ADB23878A842EED8208BB6
:101B9000618B3044884201D91220E5E72083002080
:101BA000E2E700007012002000B5417995B041B124
:101BB000012906D0022904D0032902D0122015B031
:101BC00000BD01798DF80010017B8DF8011042797C
:101BD00000210123F2B3022A3DD08DF8023000BF6C
:101BE000D0F80620CDF803204289ADF807208DF803
:101BF000093030F8012B40F271235A430392B0F8B8
:101C000001205A4306928289ADF82420C289ADF89A
