:04000005080000ED02
:020000040800F2
:10000000304A0020CD010008FB010008211700083C
:10001000FF0100080102000803020008E494FFAF9A
:10002000939D939B08999697020100000502000892
:10003000070200089C6F000809020008B1170008B9
:100040000D0200080D0200080D0200080D02000854
:100050000D0200080D0200080D0200080D02000844
:100060000D0200080D0200080D0200080D02000834
:100070000D0200080D0200080D0200080D02000824
:100080000D0200080D0200080D0200080D02000814
:10009000993200080D0200080D0200080D02000848
:1000A0000D0200080D0200080D0200080D020008F4
:1000B0000D0200080D0200080D0200080D020008E4
:1000C0000D0200080D0200080D0200080D020008D4
:1000D0000D0200080D020008611A00080D02000858
:1000E0000D0200080D0200080D02000800F002F8E1
:1000F00000F05AF80AA090E8000C82448344AAF168
:100100000107DA4501D100F04FF8AFF2090EBAE865
:100110000F0013F0010F18BFFB1A43F0010318473B
:100120008C7E0000AC7E00000A444FF0000C10F8FA
:10013000013B13F0070408BF10F8014B1D1108BF65
:1001400010F8015B641E05D010F8016B641E01F805
:10015000016BF9D113F0080F1EBF10F8014BAD1C55
:100160000C1B09D16D1E58BF01F801CBFAD505E073
:1001700014F8016B01F8016B6D1EF9D59142D6D3CD
:10018000704700000023002400250026103A28BFF5
:1001900078C1FBD8520728BF30C148BF0B607047F9
:1001A0001FB51FBD10B510BD00F051FA1146FFF785
:1001B000F7FF04F025FC00F06FFA03B4FFF7F2FF3D
:1001C00003BC00F077FA00008546084713484FF05B
:1001D00001010160124A134B1360134B1360134B60
:1001E0001360134B9361134C4FF0A53525604FF00E
:1001F00000011148804711480047FEE7FEE7FEE78F
:10020000FEE7FEE7FEE7FEE7FEE7FEE7FEE70000AB
:100210000B480C490C4A0D4B70470000F01002408F
:10022000006C0140863AD9A7CDDF12AB2635EDCD63
:10023000FF8301208C22024029180008ED000008ED
:1002400030440020304A0020304600203046002054
:10025000B2F120030AD5C2F1200320FA02F001FA1C
:1002600003F321FA02F140EA0300704721FA03F098
:100270004FF00001704740EA010310B59B070FD112
:10028000042A0DD310C808C9121F9C42F8D020BA06
:1002900019BA884201D9012010BD4FF0FF3010BDBE
:1002A0001AB1D30703D0521C07E0002010BD10F88C
:1002B000013B11F8014B1B1B07D110F8013B11F852
:1002C000014B1B1B01D1921EF1D1184610BD10B578
:1002D000431C02E010F8011B71B18107FAD14FF005
:1002E000013202C88C1A8C4314EAC211F9D0C01A28
:1002F0000A0603D0C01E10BDC01A10BD0A0401D0EA
:10030000801E10BD0902FCD0401E10BD40EA010352
:1003100070B59B072ED14FF00136042A2AD308C8A6
:1003200010C99D1B9D43121F15EAC61517D0D8B2E0
:10033000E1B2401A50EA056110D198B2A1B2401A58
:1003400050EA05410AD123F07F4024F07F41401A52
:1003500050EA052102D1180EA0EB146070BDA34233
:10036000DBD018BA21BA884201D9012070BD4FF004
:10037000FF3070BD0AB9002070BD10F8013B11F8C4
:10038000014B63B1A3420AD1521E08D010F8013BC1
:1003900011F8014B1BB1A34201D1521EEDD1181B24
:1003A00070BD421E12F8013F002BFBD111F8013B3A
:1003B000002B02F8013BF9D17047032A40F230804C
:1003C00010F0030C00F0158011F8013BBCF1020F96
:1003D000624498BF11F801CB00F8013B38BF11F817
:1003E000013BA2F1040298BF00F801CB38BF00F82E
:1003F000013B11F0030300F06780083AC0F0088069
:1004000051F8043B083A51F804CBA0E80810F5E78E
:10041000121D5CBF51F8043B40F8043BAFF3008071
:10042000D20724BF11F8013B11F801CB48BF11F8E6
:10043000012B24BF00F8013B00F801CB48BF00F8B6
:10044000012B7047431A28BF9A427FF6B6AF032AA2
:100450001044114440F2268010F0030F1EBF11F823
:10046000013D521E00F8013D10F0030F7FF4F6AF7E
:1004700011F0030300F0C180083AC0F00B8051F87E
:10048000043D083A51F804CD40F8043D40F804CD4D
:10049000FFF7F3BF121D5CBF51F8043D40F8043D67
:1004A000AFF30080D20724BF11F8013D11F801CD50
:1004B00048BF11F8012C24BF00F8013D00F801CD20
:1004C00048BF00F8012C704710B5203AC0F00B80EF
:1004D000B1E81850203AA0E81850B1E81850A0E848
:1004E0001850BFF4F5AF5FEA027C24BFB1E81850A2
:1004F000A0E8185044BF18C918C0BDE810405FEA12
:10050000827C24BF51F8043B40F8043B08BF70478D
:10051000D20728BF31F8023B48BF11F8012B28BF92
:1005200020F8023B48BF00F8012B704702F0FF03A0
:1005300043EA032242EA024200F002B84FF000020E
:100540000429C0F0128010F0030C00F01B80CCF1E5
:10055000040CBCF1020F18BF00F8012BA8BF20F853
:10056000022BA1EB0C0100F00DB85FEAC17C24BFA7
:1005700000F8012B00F8012B48BF00F8012B704751
:100580004FF0000200B5134694469646203922BF2C
:10059000A0E80C50A0E80C50B1F12001BFF4F7AF77
:1005A000090728BFA0E80C5048BF0CC05DF804EB59
:1005B000890028BF40F8042B08BF704748BF20F8C7
:1005C000022B11F0804F18BF00F8012B70477047C5
:1005D00070477047431A28BF9A427FF675AF1044A0
:1005E00010F0030F11441EBF11F8013D521E00F818
:1005F000013D10F0030F7FF4F6AF103AC0F00A800F
:1006000010B531E91850103A20E91850BFF4F9AF8D
:10061000BDE81040530724BF31E9081020E9081055
:1006200044BF51F8043D40F8043D12F0030F08BFE9
:100630007047D20728BF31F8023D48BF11F8012C9E
:1006400028BF20F8023D48BF00F8012C70477546CE
:1006500000F02CF8AE4605006946534620F007002E
:10066000854618B020B5FFF7D3FDBDE820404FF018
:1006700000064FF000074FF000084FF0000B21F08C
:100680000701AC46ACE8C009ACE8C009ACE8C00959
:10069000ACE8C0098D46704710B50446AFF3008042
:1006A0002046BDE81040FFF788BD000000487047B5
:1006B000D043002001491820ABBEFEE7260002000F
:1006C000704700002DE9F84F1E4D824601209046EC
:1006D0008B464FF00009C5F8F0001C4C1A4820600A
:1006E0001B4820601B482060184E18363068009068
:1006F00019483060194F4FF0A530C7F88C021848E0
:1007000001230022D0F80CC04146584607F5237754
:10071000E047686820F4403040EA0A0068600098CA
:100720003060C5F8F0900848C04320600848C043D6
:1007300020600848C04320604FF05A3038600120E4
:10074000BDE8F88F00100240863AD9A7006C01403E
:10075000CDDF12AB2635EDCDFF8301200020024016
:1007600000D0FF1F01078A0E07490A44D2F8001C77
:10077000000602D548F6CF7001E04CF68F700140BC
:10078000C2F8001C70470000005000400207930EA2
:100790000C4A30B51344D3F8002C000648F68F7489
:1007A00002EA040048F2800582EA010202D502F062
:1007B000300101E002F4405108432843C3F8000C23
:1007C00030BD00000050004030B585B00546002423
:1007D00000F03CF90120002103900091CDE90115C2
:1007E00004A9684600F092F800B1012400F0E2F894
:1007F00005B0204630BD000006490020C86106480B
:10080000016941F004010161016941F040010161A8
:10081000704700007019002000200240064A0021A5
:10082000D16106490A6942F002020A614861086919
:1008300040F040000861704770190020002002401D
:10084000044B0022DA61044A136943F00103136187
:100850000180704770190020002002400E49C868CE
:10086000C2060E4803D5C26942F00202C261CA68DC
:10087000520703D5C26942F00102C261CA69D207B8
:1008800007D0C26942F00402C261C86920F00100C9
:10089000C8611420C8607047002002407019002011
:1008A00070B5044600F0CEF90546114E09E0601C13
:1008B00007D024B100F0C6F9401BA04201D90320A3
:1008C00070BDF068C007F2D1F068800601D5202025
:1008D000F060F068C00605D4F069C00702D1F06886
:1008E000400703D5FFF7BAFF012070BD002070BD9F
:1008F0000020024031B500F0A5F9044600F0A2F94D
:100900000099001B8842F9D338BD00002DE9F0475B
:10091000054626480F460126017E01290FD00121F8
:10092000814601762868DFF888804CF2503402282E
:1009300008D0A2462046FFF7B3FFA8B131E002205D
:10094000BDE8F0872046FFF7ABFF08BB0120FFF7AB
:1009500053FF2046FFF7A4FFD8F81010064621F0F9
:100960000401C8F810101CE04FF0FF303860AC688C
:1009700011E02046FFF752FF5046FFF791FFD8F8ED
:100980001010060021F00201C8F8101001D03C60E0
:1009900007E004F58064D5E9020100EB8120A04264
:1009A000E7D8002189F818103046C9E770190020EF
:1009B000002002400348016941F0800101610020EC
:1009C00070470000002002402DE9F05F05461D48F9
:1009D00088460024017E16461F46012909D00121C0
:1009E000814601764CF2503A5046FFF759FF18B154
:1009F00023E00220BDE8F09F012D02D0022D00D09F
:100A00000425D346DFF840A015E0220130463946E0
:100A1000FFF71EFC81B208EB4400FFF711FF5846B8
:100A2000FFF73EFFDAF8102022F00102CAF810208A
:100A300018B9641CE4B2AC42E7D3002289F818204C
:100A4000D8E7000070190020002002400548016925
:100A5000090605D5044941600449416000207047FA
:100A6000012070470020024023016745AB89EFCD8C
:100A70002DE9F84FDFF8A091002309F1040A0AF1EB
:100A8000040B1C464FF00F080BF1040E01270A68F7
:100A9000A7403A40BA4272D1DFF880C14D68A5EB59
:100AA0000C0665452BD00DDC032D34D005DC35B3A9
:100AB000012D19D0022D2FD11BE0112D16D0122D92
:100AC0002AD119E0B6F5881F19D006DCB6F5803FAB
:100AD00015D0B6F5801F1FD111E0B6F5001F0ED05E
:100AE000B6F5041F18D10AE0CB6815E0CB681B1DD2
:100AF00012E0CB6808330FE0CB680C330CE08B6856
:100B00002BB1012B4FF0080303D0476104E004230D
:100B100002E0076100E00023FF2A01D8064601E059
:100B200000F104064FEA840501D9A5F120053768D4
:100B300008FA05FC27EA0C0703FA05F547EA05075A
:100B400037604D68ED0060D5354DAE6946F0010661
:100B5000AE61AD6924F0030605F001050095314D45
:100B60007719BE68A5072D0F08FA05FC26EA0C06C2
:100B7000DFF8B4C0604503D14FF0000C17E044E04B
:100B8000DFF8A8C0604502D14FF0010C0FE0DFF89C
:100B9000A0C0604502D14FF0020C08E0DFF894C01D
:100BA000604502D14FF0030C01E04FF0040C0CFA49
:100BB00005FC4CEA060CC7F808C04D68D9F800607F
:100BC000ED034D4601D5164300E096432E604D6877
:100BD000DAF80060AD03554601D5164300E09643B0
:100BE0002E604D68DBF80060ED025D4601D51643CE
:100BF00000E096432E604D68DEF80060AD02754659
:100C000001D5164300E096432E60641C102CFFF4BF
:100C10003DAFBDE8F88F0000000401400000111056
:100C2000001002400000014000080140000C01409B
:100C300000100140001401400AB10161704709042D
:100C4000FBE70000EFF3108172B607480068406AC6
:100C5000064B82081868121AC2F30D02104481F381
:100C6000108818607047000030190020C002002072
:100C7000074810B5016841F010010160032000F041
:100C80005DF80F2000F006F800F056F8002010BDC7
:100C90000020024010B588B005A9684600F020F990
:100CA0000398B0F5806F08D0B0F5A06F35D0B0F5DF
:100CB000C06F34D0B0F5E06F33D001201A494FF047
:100CC000804200240968B1FBF0F04FF47A61B0FB78
:100CD000F1F11648491E02604FF6FF72C0E9032485
:100CE000C0E9011444611248C16941F00101C161C8
:100CF000C06900F0010006900C4800F012FC0028CA
:100D000009D10C480460094800F027FC002802D1F2
:100D1000064800F03FFC08B010BD0220CEE70420DA
:100D2000CCE70820CAE70000C402002030190020E8
:100D300000100240C002002070470000064A00F088
:100D4000070110684FF6FF03184040EA01200349ED
:100D500008431060704700000CED00E00000FA0549
:100D60002DE9F047DFF8688104460E46D8F8000008
:100D700000F00700B0420CD2D8F8001021F00701B3
:100D80003143C8F80010D8F8000000F00700B04266
:100D900073D120784F4F800705D57868A16820F07F
:100DA000F000084378602078C00755D060680122C1
:100DB00001280CD0022828D0022393FAA3F1B1FA1B
:100DC00081F141F02001490904D0396803E04FF472
:100DD0000033F2E7796A93FAA3F3B3FA83F303F0EB
:100DE0001F039A40114248D0796821F00301014362
:100DF0007960FFF727FF0546606841F288310128D6
:100E00000CD00228894615D022E04FF00073D4E7B9
:100E1000FFF718FF411B494501D916E0894678685C
:100E2000C0F381000128F3D116E0FFF70BFF411B4F
:100E300049450AD87868C0F381000228F5D10BE053
:100E4000FFF700FF411B494502D90320BDE8F087A9
:100E5000786810F00C0FF3D1D8F80010404601F07C
:100E60000701B1420BD9016821F00701314301604C
:100E7000006800F00700B04201D00120E6E72078CA
:100E8000400705D57868E16820F4E06008437860A1
:100E90002078000706D57868216920F4605040EA80
:100EA000C100786000F03CF87968F02292FAA2F272
:100EB00001F0F001B2FA82F2D140074A515CC84019
:100EC000064908600F20FFF7E5FE0020BEE700009E
:100ED000002002400010024050740008C4020020AC
:100EE0000F2202600C4A536803F003034360536807
:100EF00003F0F0038360536803F4E063C360526857
:100F00004FF4E06303EAD20202610448006800F093
:100F100007000860704700000010024000200240F7
:100F200010B519A085B00FC88DE80F001AA01B4B93
:100F30000068049059681A4801F00C02042A1DD078
:100F4000082A1BD14FF4701494FAA4F401F470121F
:100F5000B4FA84F4E240C9031DF8022010D55968A0
:100F60004FF4003393FAA3F301F40031B3FA83F39F
:100F7000D94004AB595CB0FBF1F0504305B010BD53
:100F800008485043FAE70000020304050607080971
:100F90000A0B0C0D0E0F1010010200000010024091
:100FA00000127A0000093D002DE9F84F0446007850
:100FB000FE4EC0074FF001057FD070684FF4003837
:100FC000C0F38100012807D07068C0F381000228B7
:100FD0001BD17068C00318D598FAA8F0B0FA80F059
:100FE00040F02000400901D0306800E0706A98FAB3
:100FF000A8F1B1FA81F101F01F0105FA01F10842EF
:101000005BD06068002879D057E06068B0F5803F19
:101010000BD010B1B0F5A02F11D0306820F4803083
:101020003060306820F4802002E0306840F4803086
:101030003060606818B3FFF705FE074609E03068C6
:1010400040F480203060F0E7FFF7FCFDC01B64280F
:1010500070D898FAA8F0B0FA80F040F0200040096B
:1010600001D0306800E0706A98FAA8F1B1FA81F115
:1010700001F01F0105FA01F10842E5D01DE0FFF77C
:10108000E1FD074604E0FFF7DDFDC01B6428DFD863
:1010900098FAA8F0B0FA80F040F02000400901D0A2
:1010A000306800E0706A98FAA8F1B1FA81F101F0B5
:1010B0001F0105FA01F10842E5D12078DFF8F0823E
:1010C00080074FF0000A4FF002075AD570684FF0C2
:1010D000F80B10F00C0F07D07068C0F381000228E5
:1010E0001CD17068C00319D497FAA7F0B0FA80F049
:1010F00040F02000400902D0306801E08AE0706AC8
:1011000097FAA7F1B1FA81F101F01F0105FA01F197
:1011100008422BD0206901287CD127E0206988B3C0
:1011200095FAA5F0B0FA80F048F82050FFF78AFD54
:10113000814606E04DE1FFF785FDA0EB090002289E
:1011400086D897FAA7F0B0FA80F040F02000400966
:1011500001D0306800E0706A97FAA7F1B1FA81F126
:1011600001F01F0105FA01F10842E4D030689BFA52
:10117000ABF220F0F8016069B2FA82F290400143CC
:10118000316025E0FFE795FAA5F1B1FA81F148F861
:1011900021A0FFF757FD814605E0FFF753FDA0EBC7
:1011A00009000228CCD897FAA7F0B0FA80F040F0F6
:1011B0002000400901D0306800E0706A97FAA7F17A
:1011C000B1FA81F101F01F0105FA01F10842E4D101
:1011D000207800076DD5A069B8B395FAA5F0B0FAEC
:1011E00080F008EB8000C0F88054FFF72BFD8146AB
:1011F00005E0FFF727FDA0EB09000228A0D897FA29
:10120000A7F0B0FA80F040F06000B5EB501F02D1BB
:1012100030680CE063E197FAA7F0B0FA80F040F094
:101220006000B7EB501F01D1306A00E0706A97FA96
:10123000A7F1B1FA81F101F01F0105FA01F21042A4
:10124000D7D00120FFF756FB33E0FFE795FAA5F171
:10125000B1FA81F108EB8101C1F880A4FFF7F2FC3B
:10126000814605E0FFF7EEFCA0EB0900022899D8C3
:1012700097FAA7F0B0FA80F040F06000B5EB501F8D
:1012800001D130680BE097FAA7F0B0FA80F040F097
:101290006000B7EB501F01D1306A00E0706A97FA26
:1012A000A7F1B1FA81F101F01F0105FA01F2104234
:1012B000D8D12078400763D5F06940F08050F061C4
:1012C000F069DFF8F0B000F080500090DBF800101B
:1012D00041F48071CBF80010FFF7B4FC814605E0C3
:1012E000FFF7B0FCA0EB0900642872D8DBF800001F
:1012F000C005F5D5E06801280AD008B1052813D04B
:10130000306A20F001003062306A20F0040002E010
:10131000306A40F001003062E06841F2883B80B3FF
:10132000FFF790FC81460AE0306A40F0040030622A
:10133000EEE7FFF787FCA0EB0901594549D897FA7A
:10134000A7F0B0FA80F040F04000B5EB501F01D19B
:1013500030680BE097FAA7F0B0FA80F040F0400058
:10136000B7EB501F01D1306A00E0706A97FAA7F11D
:10137000B1FA81F101F01F0205FA02F10842D8D05A
:1013800033E0FFE7FFF75EFC814605E0FFF75AFC1C
:10139000A0EB090159451CD897FAA7F0B0FA80F0E4
:1013A00040F04000B5EB501F08D105E000100240AE
:1013B000000042420070004030680CE097FAA7F04D
:1013C000B0FA80F040F04000B7EB501F02D1306A15
:1013D00001E08AE0706A97FAA7F1B1FA81F101F0B1
:1013E0001F0205FA02F10842D0D1E06998B3716892
:1013F000C1F38101022972D002284FF080714FF0B1
:10140000007B50460AD091FAA1F1B1FA81F148F877
:101410002100FFF717FC04465F4669E08A4691FA0F
:10142000A1F1B1FA81F1C14648F82100FFF70AFCA9
:10143000A84607465D4604E0FFF704FCC01B0228EF
:1014400053D895FAA5F0B0FA80F040F0200040099A
:1014500002D0306801E060E0706A95FAA5F1B1FA57
:1014600081F101F01F0208FA02F10842E4D1206A7A
:10147000B0F5803F05D17068A16820F400300843C2
:101480007060D4E908010843716821F474110843BD
:1014900070609AFAAAF0B0FA80F0474649F82080C6
:1014A000FFF7D0FB044604E0FFF7CCFB001B02284B
:1014B0001BD895FAA5F0B0FA80F040F02000400962
:1014C00001D0306800E0706A95FAA5F1B1FA81F1B7
:1014D00001F01F0107FA01F10842E5D01DE01EE00E
:1014E000FFF7B0FB001B022802D90320BDE8F88FEC
:1014F00097FAA7F0B0FA80F040F02000400901D040
:10150000306800E0706A97FAA7F1B1FA81F101F052
:101510001F0105FA01F10842E2D10020E6E70120AF
:10152000E4E710B50446022084F839002068016A17
:1015300041F21112114207D1016A9210114203D1F6
:10154000016821F001010160204600F021F800202F
:1015500084F8390084F8380010BD10B5040003D0B9
:1015600094F8390010B107E0012010BD002084F884
:101570003800204600F00DF8022084F83900211DC3
:10158000206800F087F9012084F83900002010BDA0
:1015900070477047022180F8391001680A6842F0EC
:1015A00001020A60012180F839100020704770B5EF
:1015B000044690F838000D4601280DD0012684F825
:1015C0003860022084F8390042B1042A18D0082A71
:1015D0002AD00C2A4DD139E0022070BD206800F0DD
:1015E00097F92068816941F008018161206881696B
:1015F00021F004018161206881692A69114311E0A9
:10160000206800F0B1F92068816941F400618161CE
:101610002068816921F480618161206881692A697B
:1016200041EA0221816124E0206800F0CBF92068C2
:10163000C16941F00801C1612068C16921F004015C
:10164000C1612068C1692A69114311E0206800F076
:10165000E5F92068C16941F40061C1612068C16990
:1016600021F48061C1612068C1692A6941EA0221CF
:10167000C16184F83960002084F8380070BD10B56D
:101680000446022084F839002068016A41F21112F0
:10169000114207D1016A9210114203D1016821F071
:1016A00001010160204600F021F8002084F8390093
:1016B00084F8380010BD10B5040003D094F8390048
:1016C00010B107E0012010BD002084F8380020464A
:1016D00000F00DF8022084F83900211D206800F088
:1016E000D9F8012084F83900002010BD70477047F8
:1016F00010B504460068012200F0FEF80749206892
:10170000884203D1416C41F4004141642068016882
:1017100041F001010160002010BD0000002C0140DB
:1017200001F02EFE002070472DE9F04117460D46CE
:1017300080460026FFF78AF9A80706D000206E220F
:101740000DA101F073FE00240DE00120F7E757F82A
:10175000242008EB840100230220FFF735F908B1AB
:10176000012603E0641CB4EB950FF0D3FFF722F9D8
:101770003046BDE8F08100002866696C65290000EC
:10178000034600205909094A01290AD002290AD032
:10179000516A03F01F02012393400B4200D0012045
:1017A00070471168F5E7116AF3E700000010024086
:1017B00010B50B4CE16849B1206938B12268B2FB21
:1017C000F0F300FB132008B9002088472068401C74
:1017D0002060A068002802D0A068401EA06010BD54
:1017E000E80200200B4B58680B4A0C4910F00C0023
:1017F00003D0042801D0082801D00A6001E008487D
:1018000008605868074AC0F30310105C0A68C240B9
:101810000A6070470010024000127A00C4020020E3
:1018200000E6DF0C507400080D48016841F001012A
:10183000016041680B4A1140416001680A4A114049
:101840000160016821F480210160416821F4FE01FA
:1018500041604FF41F0181600449C0030860704774
:10186000001002400000FFF8FFFFF6FE08ED00E068
:10187000BFF34F8F05480168054A01F4E061114349
:101880000160BFF34F8F00BFFDE700000CED00E0EB
:101890000400FA05F0B50268144C154D154E4FF0D2
:1018A0008047A04205D0B84203D0A84201D0B04240
:1018B00003D122F070034A681A43A04205D0B8420F
:1018C00003D0A84201D0B04203D122F44073CA68C9
:1018D0001A4302608A68C2620A688262A04201D129
:1018E0000969016301214161F0BD0000002C014044
:1018F000000400400008004010B50123046A8B403A
:101900009C430462036A8A401343036210BD0000D3
:1019100030B5026A22F001020262036A42688469F9
:1019200024F073050C682C4323F002058B682B43CD
:101930000C4DA84206D123F00805CB6843EA050305
:1019400023F0040307D14D6922F4407245EA0205F1
:101950008A6942EA05024260846149684163036220
:1019600030BD0000002C014030B5026A22F01002A8
:101970000262026A436884690D6824F4E64444EA1A
:1019800005248D6822F0200242EA05120C4DA8427F
:1019900006D1CD6822F0800242EA051222F0400210
:1019A00007D14D6923F4406343EA85038D6943EA17
:1019B00085034360846149688163026230BD000031
:1019C000002C014030B5026A22F480720262036A80
:1019D0004268C46923F4007324F073050C682C4337
:1019E0008D6843EA05230C4DA84206D1CD6823F447
:1019F000006343EA052323F4806307D14D6922F491
:101A0000405242EA05128D6942EA05124260C46101
:101A10004968C163036230BD002C014030B5026AE1
:101A200022F480520262036A4268C4690D6824F499
:101A3000E64444EA05248D6823F4005343EA053361
:101A4000064DA84204D14D6922F4804242EA851233
:101A50004260C46149680164036230BD002C0140EA
:101A600070B515480468154DA00612D52868C6B291
:101A7000134801F03DFD132804D93146104801F008
:101A800081FD06E005D14FF013020EA10C4801F0D4
:101A9000A7FD200607D5104801F037FD20B10E48FC
:101AA00001F042FD286070BD0448083001680B4A0F
:101AB0001140016070BD000000440040044400403B
:101AC000A02D00203C4441504C696E6B3A4F766526
:101AD00072666C6F773E0A00901900207FFFFFEF5F
:101AE00000B50346FEF73EFE43F2300118465DF8AE
:101AF00004EBFEF74BBE0000F0B58278204D02F0FB
:101B00000F0316066F6881882C8802F00F0207EB1E
:101B1000021204D5491C21F00101146011E0946007
:101B20003E2909D91F3121F01F014FF0FF3404EB8A
:101B3000411444F4004403E0491C21F001014C022B
:101B4000D4602A880A442A80C07810F0030006D0A6
:101B5000012807D0022808D003280AD107E04FF453
:101B6000007106E04FF4806103E0002101E04FF4D2
:101B7000C061044A194302EB8300C0F8001CF0BDA9
:101B8000D402002000500040002802D10149B020BA
:101B900008807047D40200200949CA1350B10120BF
:101BA0000860002008600B1D18604FF4E0500860CA
:101BB000044803E0032008600248001D02607047EB
:101BC000405C00401008014010B50B4C0B48A28847
:101BD0000078824200D902461AB907490020143918
:101BE00008718020216801F025FB216801442160F3
:101BF000A188081AA08010BD140300206374000897
:101C000010B5064C0020A288216800F0ADFF2168C5
:101C100001442160A188081AA08010BD140300208F
:101C200070470021FEF7B2BD43F22001FEF7AEBDC2
:101C30002DE9F0476E4F0446A7F1080580074FF0E5
:101C40000009A5F1140622D501F0BEFA3878C009C2
:101C5000FFF7E6FFF888A8803878C0F3411121B17A
:101C600001295AD002296FD165E07978DFF88481A3
:101C70000C2969D2DFE801F0060C681368182768A0
:101C80002B31384601F050F81FE0FFF79DFF67E069
:101C9000002005E001F0A8FAD8F8000039E00120A2
:101CA00001F080F8C0B3F5E710F01F0F4CD1B87801
:101CB000012140F08000307000F07F0001F076FAE2
:101CC00001F092FA4CE000F077FF28B3DDE710F066
:101CD0001F0F39D146481B3812E001F0B3F8D8B1D4
:101CE00001F082FA444813E000F01F0001282BD1D4
:101CF000707888B13879B178884225D23F49084454
:101D00002860C2E701F062F930B101F06DFA3C4899
:101D1000006828B3804723E016E010F01F0013D0BE
:101D2000012811D100F074F8D0B900F073F8B8B9F7
:101D300000F06CF807E010F01F0F05D100F098F8E4
:101D400070B900F097F858B93878000603D4F888CD
:101D500008B1002000E0802001F032FAA5F80490DC
:101D6000600721D5387800061CD4A888E0B1FFF7B9
:101D700047FFA888C0B93878C0F3411161B1012983
:101D80000AD110F01F0007D0012805D100F03CF85F
:101D900050B900F037F838B9802001F011FAA5F8F1
:101DA000049001E001F026FA200712D538780006E9
:101DB00006D5A888317908430BD0FFF705FF08E066
:101DC0003078010605D500F07F003070002101F069
:101DD000EDF9600602D50020FFF782FE200604D54B
:101DE000BDE8F0478020FFF77BBEBDE8F08700002C
:101DF0001C030020C8740008C0740008D202002030
:101E0000C47400080020704700207047002070470D
:101E10000020704710B51248124A01791278914299
:101E20001BD142784188C088FE2A09D0FF2A14D1EC
:101E300099B990B900F0EAFD78B101F0D5F90AE05E
:101E400059B9012809D100F00BFB30B10749064808
:101E50000860FFF7B9FE012010BD002010BD000092
:101E60001C030020D102002078420020140300202F
:101E700000207047002070472DE9F041EFF31080FB
:101E800072B6DFF8D8800022D8F8104080F31088AE
:101E9000C8F81020600507D501F02EF904F064FAA7
:101EA0002F48006800B18047200505D501F0ACF946
:101EB0002C48006800B18047E00405D501F0B0F976
:101EC0002948006800B18047A00503D5274800686D
:101ED00000B18047264D600403D5296809B102206E
:101EE0008847244FA00427D5296829B3012022E080
:101EF000EFF3108372B62048072250F82100491CE6
:101F0000B1FBF2F602FB161183F3108886B2050CC2
:101F1000C8F80810280604D557F8261009B108207B
:101F20008847280408D557F8261029B1280501D577
:101F3000022000E00420884720040DD5EFF3108232
:101F400072B6D8E90210814201D1012000E00020E0
:101F500082F310880028CBD0BDE8F081D4020020A5
:101F60006C740008707400087474000878740008B9
:101F70007C74000880740008F84200200A4810B5FC
:101F800041680A4A114041604168094A1143416071
:101F9000C16941F40001C161142001F0E3F9054970
:101FA0004FF40040086010BD00100240FFFF3F7F6B
:101FB000000080801408014070B500F0F5F800289A
:101FC0001CD00F4802220F4D027042700E4C0320AD
:101FD0002A632870A068022803D9A4F11F00826038
:101FE000A2600A480649007840F0800001F022F91A
:101FF000A068296B401AA0600120207370BD00000A
:10200000B842002024030020C1430020647400086B
:10201000114910B50878022808D0032810D00428E8
:1020200012D0052801D10020087010BD0B48C07BDC
:10203000282801D0A828F8D1BDE8104000F054BAF3
:10204000BDE8104000F018BD0548007840F0800061
:1020500000F02AFDF4E7000024030020A243002042
:10206000647400081F4A10B51178B1B301290ED06D
:102070001D48052900781BD0072929D000F014FD40
:102080001A4902200873BDE8104000F0F5BC17485B
:102090001F38C07B2A2803D02F2805D0AA2820D19A
:1020A000BDE8104000F0F4BABDE8104000F086BA78
:1020B000012181400E480068014201D0012000E06A
:1020C0000020BDE8104040F23F420AA101F0AEB945
:1020D00000201070106B1F2803D1BDE8104000F0E5
:1020E000C7B810BD2403002065740008C143002058
:1020F0000C0300202866696C65290000104910B5A2
:102100004868C86008B1012010BD0E4800F11F04E6
:1021100082687AB1007B000604D50B48007840F055
:10212000800005E0A068096B884203D0074800786A
:1021300000F0BAFC0120207300F09EFC002010BDCE
:1021400024030020A2430020647400086574000882
:102150001048007900F08F01080605D501F00F0046
:102160004FF48032824001E001228A400A48007820
:1021700040F0800088420CD108490968114208D01B
:102180000749084A0968914203D10D22044901F028
:1021900051B870471C030020647400080C03002031
:1021A000C14300205553425370B50A48022400F140
:1021B0001F05816831B1007B000608D4064800780D
:1021C00000F072FC2C7300F057FC002070BD012061
:1021D00070BD0000A24300206574000810B50E48D1
:1021E0000E4C8068216B884202D82063032000E0F7
:1021F000042020700A480B49226B007840F08000D0
:1022000001F018F80448226B1F308168891A816038
:102210000021017310BD0000A24300202403002010
:1022200064740008B8420020064810B502880748C8
:102230000549007800F098FC05490863BDE81040A6
:10224000FFF710BF6A740008B842002065740008E8
:102250002403002010B50446400702D50020FFF7F4
:10226000E3FF200703D5BDE81040FFF7D1BE10BD46
:102270002DE9F047734E326B1F2A01D2134600E05E
:102280001F230020704D714902E00C5C2C54401C4F
:102290009842FAD3DFF8BC910127DFF8B4A199F88E
:1022A00000001F2A40F080007ED129686A4A9142CE
:1022B0007AD1654C69681F346160A968A160697B47
:1022C00019B9A97B09B1102901D927738AE0E97BE3
:1022D0004FF002082A293ED022DC1A294FD00FDC09
:1022E0000429F2D006DCE9B30329EED1BDE8F047BA
:1022F00000F04ABB1229E8D1BDE8F04700F0B8B8B9
:10230000232944D007DC1B2935D01E29DDD1BDE8A7
:10231000F04700F0DBB825293DD02829D5D148E089
:102320009E2940D00FDC5529CFD004DC2F2954D072
:102330003529CAD103E05A2925D09129C5D1BDE854
:10234000F04700F0E1BBA12929D0A3295DD0A8293D
:102350002FD0AA29B9D100F067FA002805D0287B30
:10236000000600E003E04BD43770BDE8F087BDE81D
:10237000F04700F0D1BBBDE8F04700F0ABBBBDE8D3
:10238000F04700F029BABDE8F04700F0F9B9BDE820
:10239000F04700F0C3BABDE8F04700F097BABDE8D7
:1023A000F047FFF709BE00E032E0BDE8F04700F07B
:1023B0003DBB00F039FA0028D7D0287B000605D5B0
:1023C00086F80080BDE8F04700F08EB89AF800006B
:1023D00000F06AFB84F80C8004E0287C800705D4B8
:1023E00000202073BDE8F04700F046BB00F01CFA67
:1023F0000028BAD0287B000602D437703762B4E7D1
:1024000099F8000040F08000E2E700F04DFB5CE747
:102410004C4600F049FB2078104C00F00F014FF4BF
:102420008030884021685546084320609AF80000B3
:1024300000F03AFB28788740206807430620276091
:10244000307092E724030020A2430020B84200200D
:10245000657400086474000855534243100300205B
:1024600002490020087001207047000078420020D7
:1024700010B5FFF799FE002820D0114B00208021D5
:102480001870597002219970D97020241C715871EC
:102490009871D8710B48016808200A7812B11A5453
:1024A000491C00E01C54401CC0B22428F5D3064946
:1024B00024200863BDE81040FFF790BE10BD000067
:1024C000B8420020CC020020240300200548C07C34
:1024D000C107044800F11F0000D00121017300F082
:1024E000CBBA0000A24300202DE9F0412E4D2F4F22
:1024F0000026A969686ADFF8B88088420AD338786C
:10250000002440F0800000F0CFFA88F80C6000F062
:10251000B3FA08E028492748097830F81140E86AFA
:10252000844200D30446FFF7E9FD00B90024A86AFD
:1025300048B374B1A96AE86922460144387840F08A
:10254000800000F077FEA86A2044A862E86A001BB9
:10255000E862D5E90410AA6A4143914203D1AE6210
:10256000696A08446862D8F808104046091BC8F830
:102570000810002C05D0E96A002902D10321297036
:102580000673BDE8F081002CE3D0E96A28690144B4
:10259000491EB1FBF0F26869824200D90246E9693E
:1025A000686A03F099FEC5E72403002064740008FC
:1025B000C143002066740008030300202DE9F041A8
:1025C0002F4C00252F4EA169606A884207D32E4800
:1025D0002563007800F068FA357300F04DFAFFF7D4
:1025E0008DFD20B1206B08B3A06A10B10FE0256308
:1025F00020E0E16A20690144491EB1FBF0F2606904
:10260000824200D90246E169606A03F065FE00205B
:102610001E49A36A226B0BE0D4F81CC01F181CF8DB
:10262000077011F800C0674501D0256202E0401C28
:102630009042F1D3A16A206B0A18A262E16A0B1AD8
:10264000E362D4E904714F43974203D1A562626A01
:1026500011446162B168091AB16000280DD013B14C
:102660002078052809D1206A28B100203073BDE800
:10267000F04100F001BA0120F8E7BDE8F081000068
:1026800024030020C143002065740008B8420020E4
:102690002DE9F041344D0026344FA969686A88421B
:1026A00007D333482E63007800F0FEF93E7300F044
:1026B000E3F9FFF723FD00B92E63296BA86A0844EC
:1026C0002969884206D9BDE8F041FE2229A10020EF
:1026D00000F0ACBE0020294905E0AB6AEC690A5C59
:1026E0000344401CE2542A6B9042F6D3A86A1100BE
:1026F0000844A862EA6AA2EB0102EA6222D092B917
:1027000088B129690844401EB0FBF1F4686984422D
:1027100000D904462246E969686A03F0F7FDAE6213
:10272000686A20440DE0D5E9041202FB01F38342FC
:1027300008D1E969686A03F0E9FDAE626969686A0F
:1027400008446862B968286B091AB960002809D082
:10275000E86A10B12878052804D13E73BDE8F0413D
:1027600000F08AB9BDE8F08124030020C1430020B5
:10277000657400082866696C65290000B84200206D
:1027800010B5FFF711FD00281FD0FFF7B7FC002898
:102790001BD00E480021062201700D4B4270817043
:1027A0001A7AD201C270017141718171C1710949F6
:1027B000082018638A68082A03D9A1F11F029060D3
:1027C0008860BDE81040FFF709BD10BDB842002089
:1027D00024030020C143002010B5FFF7E5FC0028CA
:1027E0001BD0FFF78BFC002817D00C4803210022D8
:1027F00001700B4942700B7ADB018370C2700420B8
:10280000086308498A68042A03D9A1F11F0290606D
:102810008860BDE81040FFF7E1BC10BDB842002061
:1028200024030020C143002070B5244C244DD4F86B
:10283000110000BA20F0FF01207D01430020C5E90E
:102840000910E07B2F280AD004DC28280BD02A2886
:1028500017D104E0A8280DD0AA2812D106E0FFF76E
:102860004DFC002827D0E08A41BA0AE0FFF746FC79
:10287000002820D0D4F8150000BA20F0FF01207EF7
:10288000014328690D4E4143E962A06801251F36C6
:1028900068B1884210D0207B000604D50948007832
:1028A00040F0800001E00848007800F0FDF8357342
:1028B00000F0E2F8002070BD012070BDA2430020AE
:1028C00024030020647400086574000810B5FFF745
:1028D0006BFC00281CD0FFF711FC002818D00D4A13
:1028E0000D489169491E0B0E03700B0C43700B0AC7
:1028F0008370C17011690B0E03710B0C43710B0ACD
:102900008371C17108201063BDE81040FFF766BCF9
:1029100010BD000024030020B842002010B5FFF7CE
:1029200043FC002829D0FFF7E9FB002825D01348F5
:102930000021134A0170417081700821C1709169B2
:102940000B0E03710B0C43710B0A8371C1710221D1
:10295000017211690B0C43720B0A8372C17209492F
:102960000C2010638A680C2A03D9A1F11F02906021
:102970008860BDE81040FFF731BC10BDB8420020B0
:1029800024030020C143002010B5FFF70DFC0028F0
:1029900035D01B4870211B4B017000214170DC6851
:1029A0005A6832EA040406D006248470282404738A
:1029B0004173DA6008E0DAB1134A127BE2B1052212
:1029C0008270202202734173C17001714171817163
:1029D0000A22C271017241728172C1728173C17324
:1029E0000174417412201863BDE81040FFF7F6BB74
:1029F000022282703A22E5E781700173E3E710BD9D
:102A0000B842002024030020C143002004490020D4
:102A100008600449086004490720087001207047D5
:102A200010030020C14300202403002010B5FFF74D
:102A3000BBFB002817D00C482022002102704170F7
:102A40000A4CC177032022632070094806490078A8
:102A500040F0800000F0EEFB0648226B8168891A86
:102A600081600121017310BDB842002024030020C1
:102A700064740008C1430020084910B50648086086
:102A800007480D22007840F0800000F0D3FB054994
:102A90000520087010BD000055534253C14300206B
:102AA000647400082403002010B5044600F088FB7D
:102AB000200605D504F00F014FF48030884001E076
:102AC0000120A04002490A681043086010BD0000C0
:102AD0000C0300200A4810B5817C00F11F0429B1C5
:102AE00001202073BDE81040FFF7C6BFC07C054938
:102AF00000F00100486003F007FC0020F1E700004F
:102B0000A243002024030020024900200873FFF79D
:102B1000B3BF0000C14300200F4810B5816800F129
:102B20001F0469B1007B000604D50C48007840F012
:102B3000800001E00A480078FFF7B6FF012004E0BA
:102B4000FFF7DCFA002805D000202073BDE8104014
:102B5000FFF792BF10BD0000A2430020647400087C
:102B6000657400087047000070B5104C00F00F034A
:102B70000F4D646804EB03139C689B8905EB4404C8
:102B8000C3F30905954200D9154600236A1C04E0E9
:102B900034F8046B21F8026B5B1CB3EB520FF7D3D4
:102BA0004FF44051FDF7F2FD284670BDD4020020DD
:102BB00000600040FFF7CCBA2DE9FC414E4BA3F179
:102BC0001C051878A3F1080410F01F0002D001289A
:102BD0006DD179E04949D878494E0A784649494F3C
:102BE0001C390628C97810D006DC012809D0022833
:102BF00014D003287ED141E007282AD00F2879D1AC
:102C000056E04148206012205CE0002A72D019B1E1
:102C10003E4820600A2055E03D48FAE70AB90129FC
:102C200068D0022021B10097787000209A7809E0DE
:102C300000967070F9E700990B7813B14B8819442E
:102C40000091401C8242F6D10098017879B320604F
:102C500037E062B3072021B10096707000209A78A7
:102C600009E000977870F9E700990B7813B14B8869
:102C700019440091401C8242F6D1E5E725480090B6
:102C80009878032801D0002008E001F0C9FD0BE08E
:102C900000990A780AB111440091401C9978814248
:102CA000F6D10098017811B1206000780AE021E0A7
:102CB0001948007800281BD018480090206001783F
:102CC000C1B14088019005E001A9684600F02AF8EA
:102CD00000280DD0A1880198814208D9104980B2FE
:102CE000A0800978491E084201D1012028710120E5
:102CF000BDE8FC810020FBE71C0300206174000894
:102D0000B0410020D0020020CC740008DF7400081D
:102D1000DE740008E274000862740008E0740008C1
:102D2000637400080020704770B51C481B4C007885
:102D3000A4F1080410F01F000AD0184AA4F11403EB
:102D4000174D59781279012806D0022824D109E0BC
:102D50001248163820601DE0F1B1987882421BD2EB
:102D6000002015E002F08F00020605D500F00F06E6
:102D70004FF48032B24001E00122824009B90007DD
:102D80000AD19868104207D0D868104000D00120BE
:102D900028802560012070BD002070BD1C0300202C
:102DA0007842002070B5264B0246194618784988AB
:102DB00010F01F00A3F11C0604D0012829D002281E
:102DC00027D111E0012924D132B1012000F030FADD
:102DD000F08840F0020005E0002000F029FAF088B9
:102DE00020F00200F08029E0187900F08F0420061E
:102DF00005D504F00F004FF48035854001E0012532
:102E0000A540707828B1200703D0B068284200D0D0
:102E100009B1002070BD2AB1204600F0D1F9F06858
:102E200028430AE03069284208D12046FEF758FEC0
:102E30002046FFF7BFFEF068A843F060012070BD98
:102E40001C0300202DE9F05F5A480026017811F09C
:102E50001F0F7DD1574F80781C3FB1464FF0010ABC
:102E60004FF4803B00287AD0534801783846C07828
:102E700009B901286CD008B1504C6CE0504C6AE0A4
:102E80006078022805D0042845D0052845D00728B9
:102E90005CD148486179807881423AD17870207954
:102EA0004949B8700020474A098802E002F80090BA
:102EB000401C8842FAD30125B8460AFA05F0D8F832
:102EC0000810084202D02846FEF7ABFED8F80810DA
:102ED0000BFA05F0084203D045F08000FEF7A1FE92
:102EE0006D1C102DE9D34FF00110C8E90209012033
:102EF000C8F81090FEF748FEE0794006B8F80600E2
:102F000002D540F0010001E020F00100A8F8060021
:102F10001CE060881BE0E67818E0BEB9A07800F0FD
:102F20008F05280604D505F00F010BFA01F001E02A
:102F30000AFA05F0B96801432046B960FEF7DCFDE6
:102F40002846FEF771FE284600F02EF9207801E0B1
:102F50002BE004E004442078002891D120E04D4685
:102F600087F8019001245E46B9680AFA04F0084225
:102F700002D02046FEF755FEB96806FA04F0084272
:102F800003D044F08000FEF74CFE641C102CEBD301
:102F90004FF00110C7E9020500203D61FEF7F4FD86
:102FA000044879788078884202D00020BDE8F09FFC
:102FB0000120FBE71C03002061740008D002002000
:102FC000B0410020D2020020C80200202DE9F84FB5
:102FD000444800273E460078BA4600F01F00B94634
:102FE00001287CD13F491C394878002874D0002042
:102FF00000903D4802780846C0780AB901286ED092
:103000008B4608B1394C63E0394C61E060780228A6
:1030100005D004280AD005281AD0072856D161798E
:103020009BF80100814251D0608850E02D48A7787C
:10303000E67801794FF00009B94247D18078B04273
:1030400044D1012000902B4810F807A0C6553DE060
:1030500024490879B84239D1A07800F08F085FEA96
:10306000086005D508F00F004FF48035854002E078
:10307000012505FA08F58878B04215D1DBF808106B
:1030800020462943CBF80810DBF80C10A943CBF8F5
:103090000C10FEF731FD4046FEF7C6FD404600F03D
:1030A00083F849EA050911E056450FD119EA050FE1
:1030B0000CD1DBF808104046A943CBF80810DBF828
:1030C0000C10A943CBF80C10FEF7ABFD207804449C
:1030D000207800289AD10098BDE8F88FFFE70020FB
:1030E000FAE700001C03002061740008D0020020F1
:1030F000B0410020D20200204FF0E0214FF48010B8
:103100000023C1F88001BFF34F8FBFF36F8F1E48BC
:1031100003601E48006818B14FF40050410001E000
:103120000020014608431A490968002901D04FF4DC
:10313000007140EA010002D04FF4807101E04FF0CD
:10314000000140EA0100134940F41C4008601348A4
:1031500011494FF030020360486802604FF070027E
:1031600082604FF0B0020A8048F2FF71C1600C49E2
:103170004FF4485008600B494FF0800008604FF052
:10318000140000F0EFB80000445C00407C740008BC
:1031900078740008405C0040D4020020505C00407D
:1031A000005C00404C5C0040FDF7DCBA002903D114
:1031B000024940F080000860704700004C5C00400D
:1031C00041F21001FDF7E2BA082202490020FFF7A0
:1031D000CBBC00001C03002002484FF40071806843
:1031E00001F0FDBCF801002000221146802000F013
:1031F00021B800000248034902780020FFF7B4BC60
:1032000063740008784200200448016841F0080116
:103210000160016841F0040101607047405C0040BA
:103220000248016821F0080101607047405C0040DD
:1032300070470000F0B5154F154606467A6800F055
:103240000F0002EB0012124B126803EB4204002342
:103250006A1C04E031F802CB44F804CB5B1CB3EBEE
:10326000520FF7D3796801EB00114D60094901EB6A
:103270008000D0F8000CC0F30110012803D03021E9
:103280003046FDF783FA2846F0BD0000D402002046
:1032900000600040005000402DE9F0472D4A1068C2
:1032A000DFF8B48020F01F01D8F810402143C8F89F
:1032B000101000F4FE41C9431160DFF8A0A0000423
:1032C00048F2800741D59146D9F8000000043CD56A
:1032D0000020524602EB8001D1F8001C89B239422D
:1032E00001D0054602E0401C0828F3D30AEB85060E
:1032F000D6F8004C45B9200406D5200504D4D8F8EA
:1033000004008089800516D0284664F31F4002F02F
:10331000D5FA200406D544EA070040F68F7108402C
:10332000C6F8000C2006CFD53C4348F60F70044089
:10333000C6F8004CC8E72006EDD5C4F30E012846B8
:1033400061F31F4002F0BAFAE5E7BDE8F047FFF786
:1033500043BF0000445C0040D40200200050004005
:1033600000207047002809DB00F01F020121914076
:103370004009800000F1E020C0F800117047000013
:10338000EFF3088400F00F010D2901D1EFF3098458
:10339000A18B04F12005890500D52D1DC10600D49F
:1033A000483500F08DF9EFF3098000F089F9EFF36B
:1033B000088000F085F9EFF3148000F081F92846C9
:1033C00000F07EF9606900F07BF9A06900F078F9FF
:1033D000E06900F075F91248006800F071F91048D2
:1033E000001F006800F06CF90D48001D006800F037
:1033F00067F90B481030006800F062F9084808309F
:10340000006800F05DF906480C30006800F058F9DB
:10341000432204A1002000F009F8FEF729FAFEE794
:103420002CED00E02866696C652900002DE9F0416B
:1034300016460F46002818D1EFF3108572B6002308
:103440001A461946184600F05BF9040003D13146CC
:10345000384600F0B9F985F31088002C05D1EFF358
:103460000380C00601D103F029FABDE8F08170475E
:10347000002070477047000010B528220D490E4803
:10348000FDF722F803F0DEFA0C4803F0D5FA03F05A
:1034900043F90B490B4A0C4B08604FF40071B0FB29
:1034A000F1F01160094901221A60086009490848D1
:1034B000086010BD0C710008C80F0020453C0008D2
:1034C0005803002034030020380300203C03002070
:1034D000C80D0020400300200448417880788142D4
:1034E00001D00120704700207047000090020020AA
:1034F00030B50546EFF3108472B600F006F8A968FF
:10350000081A84F31088401E30BDEFF3108372B6A2
:10351000D0E900128A4201D3501A02E080681044B8
:10352000401A83F31088704770B50446EFF3108596
:1035300072B6D4E90001884201D0012000E00020E9
:1035400042220EA1FFF772FFE16820680E5C401C6A
:103550002060A16888420CD302D14FF0010001E045
:103560004FF000004FF0470204A1FFF75FFF00207B
:10357000206085F31088304670BD00002866696CB5
:103580006529000070B50446EFF3108572B6C06877
:10359000626881546068401C6060A16888420CD3F6
:1035A00002D14FF0010001E04FF000004FF0300277
:1035B00009A1FFF73BFF00206060D4E900018842C9
:1035C00001D0012000E00020352203A1FFF72EFFEB
:1035D00085F3108870BD00002866696C65290000BD
:1035E0002DE9F04114460E460746FFF781FF84425D
:1035F00000D220460546002404E0315D3846FFF73E
:10360000C1FF641CAC42F8D32846BDE8F08100F04D
:10361000FDBB00F0FBBB002070470120704700207D
:1036200070470020704700002DE9F0418E212148AD
:10363000FCF784FF204C214F8E2520681D4EB84298
:1036400010D1A5888E2D01D22A4601E04FF08E02BE
:1036500001D84FF08E0518491648FCF7AEFE002041
:1036600086F847008E211448FCF768FF2760A58084
:1036700041223546F11DE01DFCF79FFE35F8480F4D
:1036800024F8480FA878A070E878E0708200094913
:1036900009484C314C30FCF790FE95F8440084F812
:1036A000440095F8450084F84500BDE8F04100F07D
:1036B000C7B8000014430020007F0120646C766BC3
:1036C000074A92F84B10102901D30020704702EBF3
:1036D0008101C86412F84B0F401CC0B210707047D3
:1036E000007F012010B5054C4121E01DFCF726FFAD
:1036F000002024F8480FE07010BD0000007F01207A
:103700002DE9F047184F81461D4616468846F81D9C
:10371000FCF7DDFD441CB9F1000002D04146FCF786
:103720000DFF002006B1308005B12870F87900281F
:1037300018D0444502D8F91D224604E0A4EB080045
:10374000C1194246C91DB9F1000F02D0B7F84800AF
:10375000308016B14846FCF730FE15B197F84A00A4
:1037600028700120BDE8F087007F0120014890F813
:103770008C007047007F0120054A92F84B1029B158
:1037800002F14C01016092F84B0070470020704735
:10379000007F012002488079002800D00120704776
:1037A000007F012002488079002800D00120704766
:1037B00014430020034890F88D00002800D0012019
:1037C00070470000007F01202DE9F0418846074640
:1037D000FCF77DFD104D441C41263146E81DFCF7E9
:1037E000ADFE412C02D83946224602E0413CE119A7
:1037F00032462C46E81DFCF7E0FDA4F8488000F0B6
:103800009BF808B1012003E000F098F800B1022015
:1038100084F84A00BDE8F081007F0120014981F869
:103820008C007047007F01200149887170470000BB
:10383000007F0120014981F88D007047007F012041
:103840007047704770477047704700002DE9F0419E
:103850000F4606464FF0FF340025DFF83C8012E0AB
:10386000705D082101F030FE84EA006408204146C2
:10387000002C02DA81EA440400E06400401E10F0EB
:10388000FF00F5D16D1CBD42EADB2021204601F08E
:103890001BFEC043BDE8F081B71DC1042DE9F04116
:1038A0000E4617462021C04301F00EFE04460025B7
:1038B000DFF83C8012E0705D082101F005FE84EA2B
:1038C000006408204146002C02DA81EA440400E04A
:1038D0006400401E10F0FF00F5D16D1CBD42EADB14
:1038E0002021204601F0F0FDC043BDE8F08100003A
:1038F000B71DC10470B514460D460646B2F5806F7B
:1039000007D240F2DD120AA10020FFF78FFD02204E
:1039100070BD00F063FC08B1102070BD2A4621463E
:10392000304600F077FD0028F7D0202070BD000061
:103930002866696C652900000120704700207047E7
:1039400010B500231A4600F083FA002800D00120A9
:1039500010BD10B502F014FE012800D0002010BDEB
:103960002DE9F041164E144C144D3078012806D044
:1039700040F2371213A10020FFF758FD09E0B0789C
:10398000022748B140F23D120EA10020FFF74EFD84
:1039900037700220BDE8F081204600F017F810B122
:1039A00037702220F6E704F58064AC42F4D301209E
:1039B000B0700020EEE7000000C0000800FC010825
:1039C000640200202866696C652900002DE9F04139
:1039D0002A4E04463078012805D0FF2228A1002075
:1039E000FFF724FD19E04FF480684046B4FBF0F186
:1039F00008FB1141022511B140F2071208E0F178ED
:103A000071B1D6E902121144A14209D04FF4877274
:103A10001BA10020FFF70AFD35700220BDE8F081F0
:103A20001949B4F1006F01D38C4223D30121F17005
:103A3000164FC6E902481648BC4201D3844201D35E
:103A400023200CE0FFF77AFF01004FF0260006D09C
:103A500039468C4203D142463846FFF74BFF2628B1
:103A600003D00028DAD03570D8E7204600F0B6FB46
:103A70000028D3D035702120D0E700006402002058
:103A80002866696C6529000000BC000800C00008B9
:103A900000FC01084FF480607047000010B5282832
:103AA00004D2064951F82000002805D1F72204A1CC
:103AB0000020FFF7BBFC04A010BD00002C70000824
:103AC0002866696C6529000000000000014601209D
:103AD000282901D20148405C70470000B001002055
:103AE0002DE9F04789460446804600E0641C2078B2
:103AF000402802D00028F9D163E06078622847D0DE
:103B000012DC522853D008DC422841D0442848D047
:103B1000482840D04D2817D133E054283ED05528AE
:103B200032D0562810D13FE0722840D006DC6428FD
:103B300037D068282FD06D2806D122E074282DD0E8
:103B4000752821D076282FD020A52046FCF7BFFB72
:103B500007462846FCF7BBFB0646A019C11908EB2F
:103B60000902891E91422BD2BA1EA11CFCF76AFCE5
:103B7000324629462046FCF720FC20780028B6D1A2
:103B80001FE000F041FE01E000F046FE0546DCE7E4
:103B900000F0E0FDFAE700F00DFEF7E700F038FE78
:103BA000F4E700F003FEF1E700F03EFEEEE709481F
:103BB00090F82A0010B1074D2A35C6E706A5C4E7DC
:103BC0003C44A4EB0800BDE8F08700004552524F8A
:103BD000520000009C6F0008687474703A2F2F6DBB
:103BE0006564696177696B692E6879687379737444
:103BF000656D2E636E0000002DE9F043A3B088468A
:103C000081461E461746802102A82A9DFCF7B8FC73
:103C1000002002AC03E02154401C7F2802D2295C22
:103C20000029F8D180212046FFF75AFFCDE9004056
:103C300033463A464146484602F0D8FB23B0BDE839
:103C4000F08370472DE9F0411E4615460C460746A5
:103C500002F0A6FF2C4890F8201003290FD0022C68
:103C60000FD004B3012C0AD10168A94207D190F802
:103C70002210A9B300214A1E016082608161BDE863
:103C8000F0810068A842FAD1304602F02BFD0446CC
:103C9000304602F029FD0646384601F0A1FE0346F3
:103CA0002246314617E0384601F09AFE0328E6D056
:103CB000304602F015FD8007E1D4384601F090FE51
:103CC0000746304602F00EFD0446304602F00CFD79
:103CD00001463B4622462846BDE8F04102F02AB89C
:103CE00028220A490848FCF7EFFB01F00DFF0848BD
:103CF0008178012903D14178022900D18170BDE882
:103D0000F04101F009BF0000C80F00200C7100084D
:103D1000900200202DE9F0411D4E0446174696F80A
:103D200022008846550260B92946404601F02AFE25
:103D3000032802D0214601F0C1FF96F82200002896
:103D40000FD07068A0420CD8F068A0420BD008D900
:103D50003069401C00D134613069A04200D2044671
:103D60003461BDE8F081F0692A461044F061E01941
:103D7000F06096F8230020B1BDE8F041002002F089
:103D800013B841462046BDE8F04101F04BBF0000AA
:103D9000C80F0020F0B518A185B009680491027819
:103DA000002104AB5C5C944224D0491C0329F9D364
:103DB00012A1002291E878006F46815C8DE87800BE
:103DC000A1F1610CBCF1190F14D9202901D20529E8
:103DD00010D14FF0000C17F80CE08E450AD00CF112
:103DE000010CBCF1100FF6D3521C0B2AE5D30120B5
:103DF00005B0F0BD0020FBE7E5002000222A2B2CB7
:103E00002E2F3A3B3C3D3E3F5B5C5D7C70B50D4DDB
:103E100000202C7874B100212970A97809B100F034
:103E2000C5FA022C05D06978032902D0002800D1F8
:103E3000252070BD40F26B1203A10020FFF7F6FAB7
:103E4000022070BD340200202866696C65290000DC
:103E500070B51C460546302901D3012000E0002042
:103E6000472212A1FFF7E2FA286A696A114E0CB9DB
:103E700000223271104A91420AD11049884201D180
:103E8000022070BD0D49FC3988420CD1012070BD63
:103E9000284602F025FB18B11CB90120307100E062
:103EA0000CB1032070BD002070BD00002866696C55
:103EB0006529000034020020089996978F9E939BF5
:103EC0002DE9F05F4FF00004DDF828B05FEA030A47
:103ED000904689460746254611D05FEA0B000ED072
:103EE0000020CAF800000646CBF80000FFF724FDCA
:103EF00080B12948022F06D0032F04D032E071226E
:103F000043E0064618E0B8F1000FFAD08145F8D03A
:103F10001B2428E0FFF712FD20B3012F02D0032F4E
:103F20000CD01FE04FF00061B8F1000F03D08945BD
:103F300001D01A2417E00E4618480FE0184800690F
:103F400080B10C3003E08168012909D01430016888
:103F50000029F8D141680029F5D11248056802E02E
:103F60000668FAE71C24FFF758FB08B9012F03D0B5
:103F700024B12046BDE8F09F1C24FAE725B1CAF819
:103F80000060CBF80050F4E7B82207A10020FFF74B
:103F90004DFA0220EEE7000000C00008087100089A
:103FA0009C6F0008E07000082866696C65290000B5
:103FB00030B5154C00236178012904D0022904D0C2
:103FC00003291FD103E0114B17E0114B15E02179B4
:103FD000C1B110490969A9B10C3107E0844204D884
:103FE0004C68844201D34B6806E014310C68002C05
:103FF000F4D14D68002DF1D123B11044984201D382
:10400000012030BD002030BD3402002000BC00087B
:1040100000FC01089C6F000810B50C4C207830B1F2
:10402000DA220BA10020FFF701FA022010BDFF22C7
:1040300030210948FCF77AFA0120207000206070D6
:10404000A060E0602061A070E07010BD340200202C
:104050002866696C65290000700500202DE9F04193
:1040600016460F4605460024FFF768FC50B1032DA5
:1040700008D10648006928B131463846FFF7F8F9FB
:1040800000B11D242046BDE8F08100009C6F0008AF
:104090002DE9FE4F06464D4889461546017801290F
:1040A00007D0EF224AA10020FFF7C0F90220BDE8A7
:1040B000FE8FC1784FF0010A19B9C660066180F819
:1040C00003A0804680780327002869D1D8F8101013
:1040D00042468E4201D1012000E000202944C8F868
:1040E000101048B39068C0F13004AC4200D92C469F
:1040F000394A494610442246FCF75FF9D8F80800CF
:104100002D1B2044A1442644C8F80800302839D388
:10411000444602D14FF0010001E04FF0000040F2B0
:1041200011122BA1FFF782F9D4E9021201232A48C8
:10413000FFF78EFE607001E088F8017001A8009022
:1041400002AB0122444698F80100D8F80C10FFF7A2
:10415000B7FE08BBFFF763FA28B11F496078A26871
:10416000FFF77CFFC0B9A0784FF49A7280F001008D
:1041700017A1FFF75BF9019800F0D0F860B984F857
:1041800002A002E098F8020098B144461249D4E92E
:10419000022000F03DF808B1277088E7A07840B110
:1041A0002A464946304600F033F810B188F80070CE
:1041B0007DE72A4649463046FFF7FAFE0028ECD054
:1041C000022188F80010132071E70000340200205B
:1041D0002866696C652900007005002010B5EFF3B2
:1041E000108472B6FCF7F0FA84F3108810BD014415
:1041F0004FF40032A0F10060491E904205D2A1F1B7
:104200000061914201D201207047002070470000F8
:104210002DE9F0473D4E0546002470781746884644
:10422000012807D07B223AA10020FFF7FFF80220E7
:10423000BDE8F087F0784FF0020A50B9284601F047
:10424000C5FA040002D086F801A05CE00120F070FD
:104250007561B068B5FBF0F100FB11516A1A716924
:10426000B1FBF0F300FB1310081A824204D0284679
:1042700000F0DAF80400E6D13069B5FBF0F100FB9C
:1042800011516A1A7169B1FBF0F300FB1310081A9F
:10429000824204D0284601F099FA0400D3D1B146F5
:1042A0004E46D6E901010844A84207D8284600F046
:1042B000BBF8040002D089F801A024E00FB3D6E9CE
:1042C00003010844A84204D8284601F07FFA0400FC
:1042D000F1D17068B168B146281A0E1AB74200D2FF
:1042E0003E460D49324608444146FCF766F836B171
:1042F000002089F802003544B044BF1BD0E70120FC
:10430000F7E7C9F81450204692E700004802002061
:104310002866696C65290000A005002070B51F4D56
:104320000446687808B1472226E024B3606810B3D9
:10433000A06800B3E068F0B12069E0B16069D0B175
:10434000A069C0B1E069B0B1FF224FF480611448A8
:10435000FCF7ECF80126AE700020E8706860A860F9
:10436000E8602861C5E9050420688047040008D199
:10437000287838B110E04D220AA10020FFF756F846
:10438000022070BDA86900698047040004D0A869B4
:1043900040688047204670BD6E70FBE748020020F1
:1043A000A00500202866696C6529000070B5154CD1
:1043B0000025607810B1012807D00AE0CC2212A1B4
:1043C0000020FFF733F8022070BD002000F02CF829
:1043D0000546A069406880470646FF224FF4806189
:1043E0000B48FCF7A3F80120A0700021E170616088
:1043F000A160E1602161616161700EB1304670BD04
:10440000284670BD480200202866696C65290000B6
:10441000A005002010B5EFF3108472B6FDF784F903
:1044200084F3108810BD000070B50E4E05460024C0
:10443000B07840B9B0690C498368D6E90102984761
:1044400004460120B070FF220748B168FCF76EF8FF
:10445000B068B5FBF0F100FB1150281A70602046DF
:1044600070BD000048020020A00500200748006938
:1044700048B106480069D0F89C0120B103480069A2
:10448000D0F89C0170470148001DFBE79C6F0008B5
:104490000748006948B106480069B0F8A00120B19A
:1044A00003480069B0F8A001704701484088FBE765
:1044B0009C6F000800220346114610461847002052
:1044C000704700000248006840F30000401C70473D
:1044D000080C01402DE9F043594885B0816941F04D
:1044E00004018161816901F004010491816941F055
:1044F00008018161816901F008010491816941F03D
:1045000010018161816901F010010491816941F01C
:1045100020018161816901F020010491816941F0EC
:1045200001018161816901F00101049145494A68F5
:1045300022F0E0624A60816941F004018161806992
:104540004FF4004600F0040004903F480660012448
:10455000DFF8F490CDE900640325A9F11409694658
:1045600048460395FCF784FADFF8E0800122042135
:104570004046FCF761FB0420CDE900046946039541
:104580004046FCF775FA0122D70239464046FCF74F
:1045900053FBCDE90074694640460395FCF768FA81
:1045A0000122970239464046FCF746FBCDE90074EC
:1045B000694640460395FCF75BFA012211464846DE
:1045C000FCF73AFB00946946484603950194FCF7D2
:1045D0004FFA012211464046FCF72EFB1120CDE98F
:1045E0000040694640460294FCF742FA00223146F8
:1045F0004046FCF721FBCDE900646946404603953F
:10460000FCF736FA11494FF0A53034310860081F25
:10461000016841F0010101608015009002200190C5
:10462000039569464846FCF723FA00F0F3FA084878
:104630000490401E0490FCD105B0BDE8F08300005A
:10464000001002400000014014080140000C01402D
:1046500040420F0008B1012200E000224FF48061C7
:104660000148FCF7E9BA0000000C014008B1012242
:1046700000E0002240210148FCF7DEBA000C0140B6
:1046800008B1012200E0002201210148FCF7D4BA60
:10469000000801402DE9F04385B081460D481D46D4
:1046A00016468846DDE90C410DC802AF87E80D00CB
:1046B000B81C01F074FE0020CDE900478DF812000F
:1046C0002B4632464146484601F0D6F905B0BDE8D2
:1046D000F0830000D4710008092800D92730303059
:1046E000C0B2704770B5174C00204BF6FC356060C7
:1046F000A0604FF00066E06029463046FFF777FD86
:1047000020B129463046FFF7A1F860600E4D0F4EEC
:1047100029463046FFF76BFD20B129463046FFF7AA
:1047200095F8A0600A4E4FF4806529463046FFF7A1
:104730005EFD002804D029463046FFF787F8E06088
:1047400070BD0000D8010020FC3B010000C0000843
:1047500000FC010800487047E801002010B50C215A
:104760000948FFF744FD00280AD04FF00060074ACF
:10477000016A914203D1406A0549884201D0002074
:1047800010BD012010BD000020000008939D939BE8
:10479000089996970148406870470000D8010020AA
:1047A0000148806870470000D80100200048704729
:1047B000FC03002000487047BA03002010B50C210C
:1047C0000948FFF714FD00280AD00748074A203897
:1047D000016A914203D1406A0549884201D0002014
:1047E00010BD012010BD000020C000088F9E939BCB
:1047F0000899969710B5FFF7E1FF002801D001480E
:10480000806A10BD00C0000800487047AD0300205A
:1048100000487047DB030020004870477C030020FD
:10482000004870470504002000487047F20100204E
:1048300070B5FFF757FF204800F0DCFD00F04EFF99
:104840001D4831212030FBF79BFE1B481B492030BF
:10485000FBF7A7FD19491848491D2030FBF7A1FDBA
:1048600015495E31A1F13E00FBF79BFD1249A031D5
:10487000A1F18000FBF795FD0F4800242030FBF7E5
:1048800026FD0D4AC1B20220A93200EB4100107092
:104890000320507002200023A2F1890508E02E5D5C
:1048A0001654401CC0B21354401C641CC0B2E4B285
:1048B0008C42F4D370BD00005C030020E8010020AE
:1048C00010B5124C207830B1622211A10020FEF701
:1048D000ADFD022010BD002211461046FCF722FF5C
:1048E00008B11E2010BD00206070A070E070A060B4
:1048F000E060207120616061A0614FF48061064832
:10490000FBF71CFE01202070002010BD6402002077
:104910002866696C65290000A00900202DE9F04790
:10492000DFF8C89004462F4F99F800002E4D9046AE
:104930008A46012808D040F279122DA10020FEF706
:1049400075FD0220BDE8F087BC4201D3AC4201D323
:104950002320F7E7FEF7F2FF98B32E1B301F4146E6
:10496000404501D90A4600E0321F5146D9F81800E7
:10497000FEF794FF2049C9F818008C4208D21F495D
:10498000E01B084442465146FBF717FD0020D9E7DB
:1049900004EB0801A94222D10AEB06014D4611F8A9
:1049A000012C51F8041C62F31F61884201D02720BA
:1049B000C8E7524641462046FFF72CFD10B12020A3
:1049C000C0E70CE04FF480620C493846FEF792FFD6
:1049D0000446FFF787FE012068702046B2E72620D4
:1049E000B0E7000000C0000800FC010864020020DD
:1049F0002866696C6529000000C40008A009002031
:104A000000F098FDFFF766FDFEF70EFEFEF72FFDA6
:104A100000F072FD88B90E4C206970B1C06801F0D9
:104A20005FFD50B1FEF7BEFE38B92069094AC16882
:104A30001160C06803C8FBF7C7FB00F0C0F8002294
:104A40001146054800F0D6F800F0BEF8FEE7000079
:104A50009C6F000808ED00E06D4A00080249012241
:104A60000A70487070470000F80100200125FEF729
:104A700099FE10B1642000F09DF800F0B9F8434FA2
:104A8000B8600020FFF7F2FD0020FFF7E3FD2846A5
:104A9000FFF7F6FDFFF7CCFE01F0FAFB012001F075
:104AA00027FF002001F0F2FB4FF0000887F8038099
:104AB0000120C7F80C80B87001460B2443464246DB
:104AC000334800F09CF8032100F09EF84FF0FF39C6
:104AD00040F2032A4A460021504600F087F886B289
:104AE000B00501D5FDF7C8F9F0072FD05A2001F025
:104AF00017FFF878012806D1F86810B1401EF86059
:104B000001D187F80380B878F0B101280ED00328CE
:104B100014D004281AD1F878C0B90CB1641E15D18C
:104B2000002001F0B3FB87F802800FE00CB1641E97
:104B30000CD1012001F0AAFB032003E001F09EFB51
:104B400020B10220B87001E0FCF792FEB007C1D599
:104B500038780028BED07878012808D0022806D0FE
:104B6000012587F800802846FFF78AFDB2E7012D6E
:104B700001D0012500E00025002DF4D00128F2D15C
:104B800087F8008087F80180EDE70000F801002039
:104B9000F15B0008FFF740BA10B5044640F201117E
:104BA000FBF7CCFC00F0B2FC00202070BDE8104008
:104BB000FFF732BA10B501F003F8002010BD10B5B0
:104BC00000F0CEFF002010BD10B500F0EFFF002078
:104BD00010BD00207047002070470020704710B5BE
:104BE0000C46084600F09EFF204610BD00F0A4BF12
:104BF0000120704710B500F0D3FF012010BD10B5A3
:104C000000F0C8FF012010BD10B5084600F0A2FF5B
:104C1000002010BD70B58EB00CA907A8FCF760F994
:104C20000B98B0F5005F05D0B0F5205F23D0B0F54C
:104C3000405F22D001202549274D00240968B1FB9F
:104C4000F0F02349B0FBF1F62248C5E90004761ED6
:104C5000C5E903642148AC606C61816941F400617D
:104C60008161806900F400600D902846FCF707FD23
:104C700028B1522223E00220DDE70420DBE71648BA
:104C8000FCF719FD08B1582219E07020CDE90004A5
:104C90000294039404940594002269460E480694F5
:104CA000FCF785FC08B1652209E0296870084863B3
:104CB00000210948FCF71CFD002804D06C2208A143
:104CC0000020FEF7B3FB0EB070BD0000C402002050
:104CD00000127A00002C0140F4180020001002405D
:104CE0002866696C652900002DE9FF5F8846DDE9CB
:104CF0000FA5044600EB08060020DDF838B0286058
:104D000092489146007930B120783A2840F0BA8034
:104D10008E49002008718D488D4FC078C8B18B49ED
:104D20000020C8703A78391D0398FBF746FB3878A5
:104D30000399014403912968084428608348C168A5
:104D4000B7F801006FF30F010843397801447F4839
:104D5000C160B44218BF7D4F7ED020780A2818BFAA
:104D60000D287AD03A282AD03978002900F0DF803F
:104D700010F0100F00F00F0008BF093000F00F0214
:104D800073487978435C1A434254491CC9B279701C
:104D900090F800E00EF1050081426DD300216C4BCC
:104DA00008461EF1050213D013F800C0401C6144F0
:104DB000C0B2C9B28242F7D851B1042763E02521BD
:104DC0006348FBF7BBFB002038707870B87055E083
:104DD000B87800284DD15E4B0120B870B3F80100BF
:104DE00040BAA3F80100D97804297DD005DC69B167
:104DF000012962D0022962D03BE00A2902D00D29A4
:104E000004D036E0988840BAF88032E0F98839B1A9
:104E1000504A1288914203D04F4A1288914248D199
:104E2000F9680A466FF30F021043884204D001204C
:104E3000F8700227641C26E00020F870724647498B
:104E40000398FBF7BAFA42480178039808440390A4
:104E500028680844286001E014E00FE03C49F86845
:104E6000B1F801106FF30F0001433948007808448E
:104E7000F8603878002866D000203870641CB4428E
:104E80007FF46BAF00272868FF22ABEB000103988B
:104E9000FBF74CFB2D482968C068401ACAF800008F
:104EA000301BA8EB0000C9F8000004B03846BDE88C
:104EB000F09F012038710027E5E70127E3E7286824
:104EC000FF22ABEB00010398FBF730FB2868F96881
:104ED000081ACAF80000301BA8EB0000C9F800004F
:104EE0001B480179090300E007E0407941EA00101E
:104EF000F86004B00220BDE8F09F2868FF22ABEB09
:104F000000010398FBF712FB2868F968081ACAF831
:104F10000000301BA8EB0000C9F800000C48808896
:104F200040BA0004F86004B00220BDE8F09F797830
:104F3000252908D210F0100F00F00F0008BF09302B
:104F40000001034A5054012097E70000800200202E
:104F5000A00D00208A02002088020020A40D00205D
:104F60002DE9F05FDFF800810446DFF8F89098F84B
:104F7000000015468B46012805D0A2223BA1002047
:104F8000FEF754FA3FE04FF48060B4FBF0F300FB0F
:104F90001343014602260BB1AB222EE00A4695428E
:104FA00004D3B5FBF0F302FB135008B1B22224E0A6
:104FB000B4FBF1F002FB10402844884201D9B92229
:104FC0001BE098F8020078B998F8030050B1D8F8BF
:104FD0000800844204D3D8F80C100844A04203D837
:104FE000C7220AE0C12208E098F8040070B1D8E9AD
:104FF00004010844A04209D0CF221CA10020FEF7E2
:1050000015FA88F800600220BDE8F09F194867197A
:10501000844202D2B7F1006F17D84FF0010A88F826
:1050200004A02A4659462046C8E90445FFF776FC05
:10503000262804D00028E7D088F80060E4E75A4624
:1050400029462046FFF7E6F918B188F800602020CD
:10505000DAE74F4503D3FFF745FB88F801A00020AE
:10506000D2E7000000FC0108640200202866696C99
:105070006529000000BC00084FF480607047000004
:1050800070B514460E46054620444FF48061B1EBDE
:10509000402F07D240F263220AA10020FEF7C6F992
:1050A000002070BD4FF400713046FBF747FA35B968
:1050B00006480749006942013046FBF77EF9600265
:1050C00070BD00002866696C65290000A8020020F8
:1050D000F414002010B50B464FF4007408B1002002
:1050E00010BD224602491846FBF767F9204610BD5D
:1050F000341200202DE9F04F8A46410287B0002388
:105100004FEA422B1D460693029130B1BAF1000FCF
:1051100003D0002007B0BDE8F08F344C2078012880
:1051200041D0022841D0002631A000905946504677
:10513000029A01F07FF90746304931A0CDE900011C
:105140003B4659465046029A00F096FC0744618857
:105150002DA0CDE900013B4659465046029A00F089
:10516000BFFEC4194EB12AA0CDE900062346594618
:105170005046029A00F080FC044406A8FEF7FCFAB0
:10518000060030D0069870B323A0009023465946FD
:105190005046029A01F04EF9044403AF4FF00A085A
:1051A0004FF4007919E01FA6BEE721A6BCE723A0B3
:1051B00003AB07C883E80700069850F825106D1C5C
:1051C000EDB203A801F0EBF8CDE90078234659468B
:1051D0005046029A01F00AF90444B54203D204F1A0
:1051E0000A004845E3D3204694E70000A0020020CF
:1051F0004173736572740D0A00000000F00F002007
:1052000046696C65000000004C696E650000000096
:10521000536F75726365000048657864756D7073CF
:105220000D0A0000426F6F746C6F6164657200005C
:105230004170706C69636174696F6E0000000000FA
:10524000000000000D0A000030B413460C46420274
:10525000204630BC590200F07FBE00002DE9FE4F11
:10526000044640028A464FEA422B0026029001F093
:1052700037FB0546FEF712FC07462846FEF726FCDC
:1052800005462CB1BAF1000F02D00020BDE8FE8F18
:1052900020A0CDE90007334659465046029A00F057
:1052A000EBFB04461DA00090234659465046029A47
:1052B00001F0C0F80026044401274FF00208DFF88F
:1052C000649019E04FB918A1CDE90018234659465A
:1052D0005046029A01F08AF80444E8070AD059F8C7
:1052E00026000090234659465046029A01F0A2F843
:1052F000044400276D08761C0DB1052EE2D30BA1E6
:10530000CDE90018234659465046029A01F06EF83E
:105310002044BBE76572726F72000000747970659B
:105320003A200000C07100082C2000000D0A000087
:10533000F8B5460255020F46002310B10FB1002008
:10534000F8BD0D48009032462946384601F072F803
:1053500004460AA000902346324629463846FEF706
:105360004BFC044406A000902346324629463846AA
:1053700001F060F82044F8BD107E000840520000A3
:1053800022293B0D0A3C2F7363726970743E0D0A2B
:105390003C2F626F64793E0D0A3C2F68746D6C3E41
:1053A0000D0A00002DE9F041094C06460D46204645
:1053B000FAF78DFF074645B116B10020BDE8F08130
:1053C000024621462846FAF7F8FF3846F6E700007D
:1053D0004C7D000810B50B464FF4007408B1002056
:1053E00010BD224602491846FAF7E7FF204610BDD5
:1053F0003410002006490B68091D0A68091D096858
:105400000360C0E901214FF0A531C1607047000081
:10541000E8F7FF1F10B5084654022146FBF78EF847
:10542000204610BD70B5244D4FF0FF346878A97840
:10543000884201D0012000E0002040F2F9121FA1B3
:10544000FDF7F4FF6878022803D0C0B101281AD014
:1054500022E01C484FF4FA7490F82000E0B10128D3
:105460000AD0022818D0032816D040F20B2213A12C
:105470000020FDF7DBFF0FE044F620640CE0A87885
:10548000022808D008E0A878022801D018B103E06B
:1054900040F6C41400E00024601C05D140F21B2239
:1054A00006A1FDF7C3FF0024A868A04201D901208E
:1054B00070BD002070BD0000900200202866696C5D
:1054C00065290000C80F002070B5202903D00023F3
:1054D0001A4601260CE090FAA0F070BDC40704D073
:1054E0008D1A6D1E06FA05F423434008521CD2B2F1
:1054F0008A42F3D3184670BD10B5FEF7E3FF18B922
:10550000FEF7DDFF002800D0012010BD10B52521D9
:105510000648FBF713F806480021C160017041708E
:105520008170C170C180017110BD0000A00D00200C
:10553000800200202DE9F0438FB014210AA8FBF768
:105540001FF828216846FBF71BF8FCF74BF9FBF71F
:105550008FFB01254FF00008CDE90A5829460AA81B
:10556000FBF7FEFB20B16B224DA10020FDF75EFF93
:105570004FF48039CDE900590224CDF80880CDE9F7
:1055800007494FF4E01009906846FBF70DFD20B184
:10559000772243A10020FDF749FF0AA90F2081E8E7
:1055A00011014FF48060CDE90D0802210AA8FBF734
:1055B000D7FB20B182223AA10020FDF737FF3A4CF9
:1055C000206840F001002060606838490840606051
:1055D0002068374908402060206820F4802020603F
:1055E000606820F4FE0060604FF41F00A060206837
:1055F00020F480302060206820F480202060206823
:1056000040F4803020603120FCF7BAF80028FAD04E
:105610004FF0807797FAA7F0264EB0FA80F046F860
:105620002080012224494846FBF74CF897FAA7F05E
:10563000B0FA80F046F820503920FCF7A1F8002895
:10564000FAD0606820F0030040F0020060606068FB
:1056500020F0F0006060606820F4E06040F480605A
:105660006060606820F46050606095FAA5F0B0FA60
:1056700080F006EB8000C0F880546120FCF780F8D1
:105680000028FAD095FAA5F0B0FA80F046F820503C
:105690002120FCF775F80028FAD00FB0BDE8F083A0
:1056A0002866696C65290000001002400000FFF8C0
:1056B000FFFFF6FE00004242000028107CB5DDE945
:1056C00006540CB103A400E003A4CDE9005400F09B
:1056D000D3F97CBD31000000300000002DE9F04717
:1056E00000242546FEF7D4FEDFF8D8900646A046F3
:1056F0004F4621213448C9F81080FAF71FFF32487D
:1057000021212130FAF71AFF2F4809214230FAF7F8
:1057100037FF87F814802C4FA7F15E0A78195AF8E2
:10572000241000F03CFE641C2844E4B2C5B2042CF2
:10573000F4D307F805800025234F2C462137A7F125
:105740006F0A78195AF8241000F029FE641C2844C6
:10575000E4B2C5B2042CF4D307F805801A4F4446CE
:10576000423738464D46D9F8001000F018FEC0B256
:105770003C54FEF77BFE006828611248103004712B
:10578000300BFEF7A9FF0F4D15352870C6F3032027
:10579000FEF7A2FF6870C6F30310FEF79DFFA87026
:1057A00006F00F00FEF798FFE870681D2C7130219D
:1057B000017032214170352181703821C17004712E
:1057C000BDE8F087D8010020BA0300202DE9F041A0
:1057D000364E0746B0694169384688470546B06984
:1057E000816938468847044635B12CB14FF480684A
:1057F00045450AD8012009E040F235122CA10020CD
:10580000FDF714FE0220BDE8F08100204FF49D72E8
:1058100027A1FDF70BFEB8FBF5F105FB118048B1A0
:10582000002040F23B1222A1FDF700FEAC4203D360
:10583000012002E00120F4E700204FF49E721CA139
:10584000FDF7F4FDB4FBF5F005FB1040C0B10020FE
:1058500040F23D1216A1FDF7E9FDB7FBF4F004FBA1
:105860001070381AC6E903047060444500D34446FA
:10587000B460B169096A29B1884704000AD101E01E
:105880000120E5E7307850B1B069C168F068884719
:10589000040004D0B069406880472046B3E7FF2287
:1058A0000548B168FAF742FE0020ACE74802002044
:1058B0002866696C65290000A005002010B5EFF38B
:1058C000108272B6074C084BD96844F821000720B3
:1058D000491CB1FBF0F400FB141082F31088D8606F
:1058E00010BD0000F8420020D402002010B5094C81
:1058F000207840B100F05EF86068C16806488847CB
:105900000021217010BDC02204A10020FDF78EFDF2
:10591000022010BD080200206C0400202866696C7B
:105920006529000070B5134C0546207808B1852222
:1059300002E0022D06D38B220FA10020FDF776FD99
:10594000022070BDFFF754F9A0604FF482710C483B
:10595000FAF716FE0120207006480C3000EB051007
:1059600060604168064888470028EAD0032121701A
:1059700070BD0000080200202866696C65290000DF
:105980006C0400202DE9F041094D0E460746002425
:1059900005EB0410314602683846904710B12046A6
:1059A000BDE8F081641CE4B2022CF1D30320F7E7D8
:1059B0001402002010B5FFF71BF9064989688842D8
:1059C00001D1012000E00020BDE81040622202A1C8
:1059D000FDF72CBD080200202866696C65290000CF
:1059E00010B500F1080103220C4607A0FAF78EFC5F
:1059F000002806D00322214604A0FAF787FC08B14C
:105A0000032010BD012010BD42494E0048455800FA
:105A100070B5154D06460C462878012806D0A422FC
:105A200012A10020FDF702FD022070BDFFF7C2FFAA
:105A300068682246314683680E4898470446132812
:105A400006D0142C06D02CB103202870204670BD3F
:105A50000220FAE72878012800D00020B22203A112
:105A6000FDF7E4FCF2E70000080200202866696CFC
:105A7000652900006C0400202DE9FC478246DDE921
:105A80000A0700901C4690468946504600F0D2FC1A
:105A9000054602260EA0CDE9000663194246494696
:105AA000504600F0A3FC054463194246494650465F
:105AB000009700F0BFFC054406A0CDE9000663197D
:105AC00042464946504600F091FC2844BDE8FC8718
:105AD0003A2000000D0A000010B5FFF789F80749C9
:105AE0004968884201D1012000E00020BDE8104053
:105AF00040F2691202A1FDF799BC0000900200205B
:105B00002866696C6529000002480021C068FFF71B
:105B100060B80000900200200148C068FFF75DB83F
:105B20009002002072B603494A6802434A6062B696
:105B300070470000E8020020054903464A68134206
:105B4000FCD0486872B64A6882434A6062B67047C1
:105B5000E80200200149086170470000E8020020C7
:105B600009490020086048608860C8600861486191
:105B70004FF0E021054A4A61054BF02283F8142DCD
:105B80008861072008617047E80200207EFC0A0057
:105B90000FE000E00149C86070470000E802002003
:105BA0000149486170470000E8020020034841694C
:105BB000002901D00020084770470000E8020020BB
:105BC0000249886088680028FCD17047E8020020FC
:105BD00002480078012800D00020704764020020AD
:105BE000884203D3904201D80120704700207047BB
:105BF00010B50B4C0221A068FEF7F1FF606803218D
:105C0000B0FBF1F201FB1201401C6060002905D1DC
:105C1000A068BDE810400121FEF7E1BF10BD000003
:105C2000F80100202DE9F041224D16460C4695F86A
:105C3000230038B1BDE8F0414FF430721E49002016
:105C4000FDF7F4BBF00522D000204FF431721A4961
:105C5000FDF7ECFB95F8210040F2C5221649FDF74F
:105C6000E5FB31462046FFF7D3FE012704464FF0FF
:105C7000000813280DD0142C17D085F824806869EB
:105C8000304468612046BDE8F04100F08DB8012045
:105C9000DBE7FFF72BFE85F8218085F823700446AB
:105CA00085F82470FDF7E6FBE9E7002485F8247009
:105CB000E5E70000C80F0020005B000870B51B4D31
:105CC00006460C4695F8210088B1002040F2852256
:105CD0001749FDF7ABFB601C00D0012040F2862283
:105CE0001349FDF7A3FB6868401C02D002E00120C5
:105CF000ECE76C6095F82700032801D185F8276050
:105D00006868A04203D195F82700B04201D0032073
:105D100008E03046FFF706FE20B945F80C4F012198
:105D20006975A975BDE8704000F03EB8C80F002045
:105D3000005B000830B4194C94F82050032D02D0B9
:105D400025683DB107E030BC40F2352214A10020A7
:105D5000FDF76CBB2060A068401C00D1A16094F8E6
:105D60002700032801D184F82730A069904205D983
:105D7000E069904202D90AB103200CE0481C02D02D
:105D8000A0688842F8D1032B03D094F827009842EA
:105D9000F2D10020A26130BC00F006B8C80F00208C
:105DA0002866696C652900002DE9F0470446132830
:105DB00003D0142C01D0012000E000204FF43A72EF
:105DC00043A1FDF733FB444D95F8200003280CD088
:105DD000296891B1D5E9060282420ED368B1D5E9AE
:105DE0000102904209D1012008E0BDE8F0474FF4DC
:105DF0003B7237A10020FDF719BB002085F8250074
:105E000095F8269019B995F82710032901D001219A
:105E100000E00021884620B195F8241009B1012640
:105E200000E0002695F8231011B108B1012000E030
:105E30000020824628690027401C10D06868401C5A
:105E400000D0012040F20A3221A1FDF7EFFA696883
:105E50002869401A69694002814200D9012703205C
:105E600014B185F820001DE0B9F1000F09D00FB181
:105E70000624F6E7B8F1000FF3D0002EF1D1042488
:105E8000EFE7BAF1000FECD10EB1022003E0B8F158
:105E9000000F03D0012085F8200012E095F82000C3
:105EA00003280BD195F8210030B1FFF71FFD002129
:105EB00085F8211004B9044608480470B9F1000FB0
:105EC00003D1BDE8F04700F0F9BCBDE8F087000061
:105ED0002866696C65290000C80F00209002002028
:105EE0002DE9F04186B00F46DDE90C4180461D46A4
:105EF000164602A800F0B2FA02A900220A54CDE91F
:105F000000412B46324639464046FFF7B5FD06B004
:105F1000BDE8F08110B50D4C207830B10020207024
:105F2000FDF71EFA40B11F2010BD832208A10020FA
:105F3000FDF77CFA022010BD607810B9FDF7FCFC7B
:105F400008B1002010BD252010BD00006402002013
:105F50002866696C652900002DE9FF410746644801
:105F6000009015460E460023384600F063FA0446BA
:105F700060A0009023462A4631463846FDF73CFE95
:105F8000044460A0009023462A4631463846FDF777
:105F900033FE0444FDF73FFB5EA1CDE9001023462C
:105FA0002A4631463846FFF789FB0444FDF735FBA6
:105FB0005BA1CDE9001023462A4631463846FFF75B
:105FC0007DFB0444FDF72DFB5AA1CDE900102346CB
:105FD0002A4631463846FFF771FB0444FDF71FFBA4
:105FE00059A1CDE9001023462A4631463846FFF72D
:105FF00065FB0444FDF7DEFB5BA1CDE90010234601
:106000002A4631463846FFF759FB04445AA000900F
:1060100023462A463146384600F00CFA04445DA077
:10602000009023462A4631463846FDF7E5FD0444F4
:10603000FEF7C4FBF8B15EA02346D0E90010CDE91D
:1060400002105DA000902A463146384600F0F2F971
:106050000444FEF7CFFB0146042202A800F028FA10
:10606000062102A8CDE9000123462A4631463846DA
:1060700000F0BCF904445548009023462A463146B6
:10608000384600F0D7F90444FEF768FB58B1FEF734
:1060900081FB4FA1CDE9001023462A463146384600
:1060A000FEF7F8FA0444FEF77BFB4DA1CDE90010A2
:1060B00023462A4631463846FEF7ECFA4C4904445A
:1060C0004CA049682346CDE900012A4631463846AE
:1060D000FFF706FF04444BA0009023462A463146B2
:1060E0003846FDF789FD04B02044BDE8F08100008A
:1060F000047D0008556E697175652049443A204059
:10610000550D0A004849432049443A2040440D0AAD
:10611000000000004175746F2052657365740000C3
:106120004175746F6D6174696F6E20616C6C6F770F
:10613000656400004F766572666C6F7720646574E5
:10614000656374696F6E0000496E636F6D70617492
:1061500069626C6520696D6167652064657465635B
:1061600074696F6E000000005061676520657261A0
:1061700073696E67000000004461706C696E6B208B
:106180004D6F64653A20426F6F746C6F6164657225
:106190000D0A0000426F6F746C6F61646572205667
:1061A000657273696F6E3A2040560D0A0000000058
:1061B000000000000D0A0000496E7465726661639C
:1061C000652056657273696F6E3A2000B87D0008CD
:1061D000426F6F746C6F61646572204352430000BC
:1061E000496E746572666163652043524300000026
:1061F000A002002052656D6F756E7420636F756E1E
:106200007400000055524C3A2040520D0A00000024
:1062100030B510A187B0D1E900230D48097A0025D7
:106220000260436001720E48094C1822457009341F
:106230000CA16846FAF748F9172269462046FAF792
:10624000BCF8A57007B0BDE8304000F02FB80000E2
:10625000B04100200902200001010080FA00000086
:10626000D00200200904000002080650040705823D
:10627000024000000705020240000000024840788A
:10628000002800D00120704700030020FBF784BCE9
:10629000054910B50020C870FFF7BAFFFCF762FC93
:1062A000BDE81040FBF76ABE0003002010B5FEF702
:1062B0009FFC074C60600020FEF78DFCE060FDF75E
:1062C000DBF8002060700349A070A060086010BD7A
:1062D000900200202803002070B514460D460646A3
:1062E000FFF7FAFB074B1868002809D00120FEF7DA
:1062F000B5FB224629463046BDE8704000F06ABB37
:1063000070BD000028030020704700002DE9F04117
:1063100015460E460746FFF7DFFB104800680028C9
:106320001AD00F490F4C0020886094F820000328F1
:1063300012D00120FEF792FB2A463146384600F083
:10634000D5FC94F82000032806D02A46314638466A
:10635000BDE8F041FDF7DEBCBDE8F0812803002078
:1063600090020020C80F002006484FF0011201786B
:106370000548C180002101704170C0E9022101611E
:1063800070470000607400080003002010B5EFF3B0
:10639000108472B6FDF7A6F984F3108810BD70B5AD
:1063A0000D460446090E00F013F80646A019C5F381
:1063B000074100F00DF80644A019C5F3072100F0CD
:1063C00007F80644E9B2A01900F002F8304470BDA5
:1063D000054A02EB111301F00F011B780370515CA9
:1063E0004170022070470000CC7000082DE9F04198
:1063F0001446DDE906E55FEA000C18D05F19A742F4
:1064000015D32144994212D3002006462A46A342BE
:1064100002D2E01A121A00E01E1B8F4201D9791A2B
:10642000521A0EEB00010CEB0600F9F7C6FF2846E6
:10643000BDE8F0812DE9FC418046089C1D461646CA
:106440000F462046F9F743FFCDE900402B46324680
:1064500039464046FFF7CAFFBDE8FC81F0B5064665
:10646000002002460B460A2504E0B3FBF5F3401C6E
:1064700042F10002002BF8D150EA020301D10120C1
:10648000002200231F460EE0B1FBF5F405FB1414B7
:10649000B1FBF5F13034B0EB030CBCF1010C03F1AE
:1064A000010306F80C401C1A77EB0204ECD3F0BD94
:1064B0002DE9F04115460E460746FFF7CFFF04468B
:1064C000A8420AD2302229463846FAF72FF8281B6C
:1064D00038443146FFF7C2FF2846BDE8F08100008E
:1064E000074910B5096831B1096A21B18847002808
:1064F00000D0012010BDBDE8104000F003B800003E
:10650000AC0100202DE9F0471C4906460C698CB30C
:1065100004250027D6F800808946D43406E0626856
:106520004046FFF75DFB01281FD014342168002985
:10653000F5D160680028F2D1E7B116E07019D9F8FA
:1065400010400027D0F800800C3406E06268404616
:10655000FFF746FB012807D0143421680029F5D144
:1065600060680028F2D12FB12D1D0C2DE6D9012035
:10657000BDE8F087FFE70020FAE700009C6F000805
:106580000B49096811B1496A01B1084701783A29F4
:106590000AD1007A302809D0322807D0332805D014
:1065A000342803D0352801D00020704701207047DF
:1065B000AC0100202DE9FF5F994692468B4600987A
:1065C000FDF7E8FB40F295123CA1FCF72FFF3D4997
:1065D00000263D4DB1F80B00497B484309EB000113
:1065E000491EB1FBF0F7B9F1000F19D00024A7F153
:1065F0000108EE6809E0E968481C82B2334800F0FF
:1066000057FCE868401C641CE8604445F3D34FF62F
:10661000FF722E48E96800F04BFCE868401CE86017
:106620002869202802D34FF4D5721CE02849202283
:1066300001EB4014401C286126492046F9F7BDFEB5
:106640000098016821604168616001892181807A38
:10665000A072C4F81C90300CA0826683A96810292F
:1066600009D34FF4DC7215A10020FCF7DFFE0020F7
:1066700004B0BDE8F09F164B01EB4100C03B164A49
:1066800043F8202003EB8002144E5660BBF1000F4C
:1066900001D043F820B0BAF1000F01D0C2F804A035
:1066A0000848491CB0F80B30407B43437B43936060
:1066B000A9602878401C28702046D9E72866696CB4
:1066C0006529000034100020A802002034120020A8
:1066D000F41400203074000815540008916F00086D
:1066E000C07A7047C0697047C16961B1074A084BF9
:1066F000408BB2F80B105B69527BB3FBF1F1801E4B
:1067000000FB021070474FF0FF307047341000203C
:10671000A8020020C17270470A4910B50846B1F8B6
:106720001340B0F80B000CB90C6A0CB1444306E0FE
:10673000002440F2891204A12046FCF777FE20468F
:1067400010BD0000341000202866696C6529000027
:106750002DE9F0410F4680464FF4007631464E4811
:10676000F9F70EFF31464D48F9F70AFF4C4C00256A
:10677000C0214C48E560F9F703FF4A487100C0307A
:10678000F9F7FEFE256125704748C4E90105324648
:10679000464941486561F9F797FE3F4E07F5803756
:1067A00040F62D02B6F80B00717BB7FBF0F04A43C0
:1067B000B0EB420F09D24FF4AB723DA10020FCF7C1
:1067C00035FE707B41F25A010DE04FF69172514354
:1067D000814209D240F2591235A10020FCF726FE71
:1067E000707B4FF691714843B0F5803F03D3A6F814
:1067F0001350306202E0A6F813003562717B30223C
:10680000B0FBF1F040F2FF1101EB4000C0F34F2765
:10681000F78229492348F9F757FE2249780248614F
:10682000086204206561A060002000EB400201EBDB
:10683000820263699268401C1A4462610428F4D39E
:106840004FF6F87229461548E56000F031FBE16823
:106850004FF6FF72491C1148E16000F029FBE06827
:106860001549401CC4E903050E4D2022C0352846B9
:106870003031F9F7A2FDD8F800102960D8F80410DB
:106880006960B8F80810298198F80A00A8720120F8
:106890002061BDE8F0810000341000203412002097
:1068A000A802002034140020433C0008E0710008D6
:1068B0002866696C65290000E073000810B5FFF7D1
:1068C00023F9FCF709FE28B904484178022901D1CF
:1068D00001218170BDE81040FFF71EB99002002031
:1068E00010B5FFF7F9F80148007810BD90020020BC
:1068F00010B50446FFF7F0F8FCF7BEFD0649074A5D
:1069000024B1022048708870012002E00020487005
:106910008870106010BD0000900200202803002045
:106920002DE9F0410446FFF7D7F8FFF7EDF8FCF743
:10693000D3FD80B1FEF776FD214A4EF660239168C3
:10694000994201D22144916028B1947855785470CD
:10695000012C06D103E0BDE8F041FFF7DDB80220CD
:10696000907000269660FFF7D7F80127CDB1012D72
:1069700017D0022D15D1134D95F82000032804D00F
:1069800085F826700020FFF70FFA95F820000328FD
:1069900012D0002040F211120BA1FCF747FD00F0CD
:1069A000E3F80B4D54B1012C08D0022C02D1FCF7B6
:1069B00063FD2F60BDE8F0810120EBE72E60F9E771
:1069C00090020020C80F00202866696C652900002D
:1069D000280300202DE9F0478A4604461546002684
:1069E00051025046F9F7AAFDDFF84890002006EB67
:1069F000460209EB82018442896800EB51218846F6
:106A00000ED38C420CD2A8EB0407AF4200D32F4622
:106A100059F82230201A3A46514698473C44ED1B1B
:106A2000002D04D0761CF6B24046102EDFD3BDE810
:106A3000F0870000341400200149486070470000CE
:106A4000A80200201CB52E4CE07F10B104F11F00FD
:106A500000E02CA04FF08061FFF77AFE2C48FDF794
:106A600029FD0346207D10B12548143000E029A0FF
:106A700000222749FFF79EFD2948FDF71BFD03462D
:106A80000022274927A0FFF795FDFFF729FF40B116
:106A90002748FDF70FFD03460022254925A0FFF7F3
:106AA00089FD274B41219A1C2648FCF729FE58B145
:106AB0002548FDF7FFFC0346002223492348FFF742
:106AC00079FD0021FFF726FE4FF00060019020487D
:106AD0000090FCF733FF78B1DDE900104FF48062DD
:106AE000F9F7C9FB40B91B48FDF7E4FC0346002257
:106AF000184919A0FFF75EFD00F034F81CBD000036
:106B00009C6F0008455854424F41524420202000B9
:106B100031530008494E464F2020202048544D0054
:106B20004952000844455441494C5320545854009C
:106B30005D5200084641494C202020205458540002
:106B4000A0020020F00F0020F5500008347100086A
:106B500000C00008A55300084E4545445F424C2044
:106B6000545854007047000010B5FCF7E5FE20B102
:106B7000FFF7B6FE08B9FAF77BFEFCF7DFFE40B17F
:106B8000FCF708FE18B9FCF7F1FD012801D1FAF76E
:106B90006FFE02484168491C416010BDA002002000
:106BA000F8B50C46074600F09DF8002855D1FDF7D2
:106BB00089FC10B9FDF783FC00B1012018B9FCF77E
:106BC0002CFD002849D0022C47D074B1012C44D1AF
:106BD0000B2240493846F9F74EFB00283DD1FFF71C
:106BE000D5FBBDE8F840FFF769BE01208DF8000035
:106BF000851E6946384600F077F8002863D1354E87
:106C000000240C360B2256F834103846F9F733FBC3
:106C100010B906EBC4000579641C102CF2D3681C73
:106C20004FF0000417D0102D47D2DFE805F0080F11
:106C30004C172224282A2E3034363A3C4042FCF7A6
:106C40007DFE08B30120FCF7EFFD3CE0E22222A12B
:106C50000020FCF7EBFB8DF80040F8BD204C2068CD
:106C60000068804720680069804720684068804746
:106C700029E0012000E00020FCF7E3FD23E00120F3
:106C800000E00020FCF7DEFD1DE0012000E0002018
:106C9000FCF7DAFD17E0002000E00120FCF7BEFD64
:106CA00011E0012000E00020FCF7CDFD0BE0012009
:106CB00000E00020FCF7BEFD05E04FF4887206A15D
:106CC0000020FCF7B3FB9DF800000028C5D0FFF7BB
:106CD000F5FDF8BD347100082866696C652900006F
:106CE000E070000800207047002070472DE9F05F39
:106CF0000446002615468B463046DFF85090DFF8F4
:106D000050A01CE006EB460209EB82028442916827
:106D100000EB512188460DD38C420BD2A8EB04071F
:106D2000AF4200D32F465368201A3A465946984737
:106D30003C44ED1B002D06D0761C4046F6B2DAF836
:106D400008108E42DED3BDE8F09F0000341400200E
:106D5000A8020020FEB5044690F8300015460F4604
:106D6000302801D3606B31E0C0F13006AE4200D371
:106D7000164620443246F9F720FB94F830003044A0
:106D8000C1B284F83010302901D20020FEBD0023AA
:106D90003744AD1B1A462046FDF75AF808B302A93E
:106DA0000022009101AB1146FDF78AF80028EDD1D1
:106DB0000198606394F830202146FDF769F90028B6
:106DC000E4D194F83010606B084460632A46394679
:106DD000FDF75EF90028D9D1606B28446063142068
:106DE000FEBD1C20FEBD00002DE9F84F894681182C
:106DF0004FF48063B3EB412F07D2BDE8F84F4FF457
:106E00001F7227A10020FCF711BB41024B09510260
:106E10004FEA511B0091244901EB431A10B100269F
:106E2000224F33E00126FBE709EB46140AEB461537
:106E3000202221462846F9F71EFA30B3214628467B
:106E40000B22F9F718FA78B100208046D7F804C071
:106E500023462A4620460221E0472078E52805D02F
:106E6000B8F1000F07D010E00120EEE72A462346D4
:106E70001046012107E02046FCF78CFF28B123468D
:106E80002A46184600217C68A047761C5E45CBD375
:106E900050464946009ABDE8F84FF9F78EBA00000F
:106EA0002866696C65290000F4140020A8020020FF
:106EB00030B44B00012404EB4101B1F5007F06D34F
:106EC00030BC40F2391204A10020FCF7AFBAC25422
:106ED000120A425430BC70472866696C652900006C
:106EE0002DE9F04786B0002416460F460546039468
:106EF00004940DF110080DF10C094FF4807A0594FB
:106F0000CDF800A0CDE901986B1C05AA31463846A2
:106F1000FDF7EAFE68B1022813D001281DD004282D
:106F200025D0052801D00628EAD1052821D0012046
:106F300020E0049A22B3691C0398FDF7A9F80446DF
:106F40001EE0049A2AB1691C0398FDF7A1F8040019
:106F500016D10598361A0744D2E7049A22B1691C63
:106F60000398FDF795F8044654B9132408E0152456
:106F700006E000204FF4B07203A1FCF757FA162484
:106F800006B02046BDE8F0872866696C65290000D8
:106F9000704700C00008000400000000010000006D
:106FA0003030303000000000000000000000002001
:106FB00048454C505F46415148544D4D41494E540F
:106FC000454E414E434568747470733A2F2F646187
:106FD000706C696E6B2E696F00000000000000008D
:106FE00000000000000000000000000000000000A1
:106FF0000000000000000000000000000000000091
:107000000000000000000000000000000000000080
:107010000000000000000000000000000000000070
:1070200053544152545F494641435400787C000810
:10703000347C0008147C0008D87C00082079000803
:10704000DC7B000838790008F47A00084C7B0008E3
:10705000947C0008A07B0008A87A0008CC7A00087D
:10706000187B00084C7C0008D4790008A879000837
:1070700080790008047A0008807B0008BC7C000846
:10708000B47600087476000838760008347A000870
:10709000B07800080C780008D4770008FC76000867
:1070A000E4780008D87500080C760008AC75000874
:1070B0004C7500087C7500086C7800084C77000857
:1070C00088770008007D00084878000830313233A6
:1070D0003435363738396162636465660000000014
:1070E00000000000C1480008155F0008614F00085B
:1070F000CD3900086139000879500008953A000838
:10710000D15B000800000000E470000800000000EF
:10711000FFFFFFFFFFFFFFFFFFFFFFFFFFFFFFFF7F
:10712000000000000000000000000000000000005F
:10713000000000034153534552542020545854003A
:1071400020700008000000002C7F000801000000F3
:10715000387F000802000000207F000803000000C4
:10716000147F000804000000087F000805000000EC
:10717000CC7E000806000000F07E0008070000003A
:10718000C07E000808000000E47E0008090000003E
:10719000A87E00080A000000B47E00080B00000072
:1071A000D87E00080C000000FC7E00080D000000E6
:1071B000447F00080E000000507F00080F00000010
:1071C000687F0008847F0008747F00087C7F0008C7
:1071D0005C7F000830780000000000000000000024
:1071E000EB3C904D53443053342E310002080100E3
:1071F000022000501FF80100010001000000000003
:1072000000000000000029741902274441504C4935
:107210004E4B2D444E444641543136202020FAB87E
:10722000C0070520018ED0BC0010B8C0078ED8BEA4
:107230006D00E80B00EBFEB40EB700B307CD10C332
:107240008A044608C07405E8EDFFEBF4C3504C45D2
:107250004153452052454D4F564520544845204105
:10726000524D204D424544204441504C494E4B2004
:107270005553422044455649434520414E442052EF
:1072800045424F4F54205448452053595354454D7F
:107290002E2E000000000000000000000000000092
:1072A00000000000000000000000000000000000DE
:1072B00000000000000000000000000000000000CE
:1072C00000000000000000000000000000000000BE
:1072D00000000000000000000000000000000000AE
:1072E000000000000000000000000000000000009E
:1072F000000000000000000000000000000000008E
:10730000000000000000000000000000000000007D
:10731000000000000000000000000000000000006D
:10732000000000000000000000000000000000005D
:10733000000000000000000000000000000000004D
:10734000000000000000000000000000000000003D
:10735000000000000000000000000000000000002D
:10736000000000000000000000000000000000001D
:10737000000000000000000000000000000000000D
:1073800000000000000000000000000000000000FD
:1073900000000000000000000000000000000000ED
:1073A00000000000000000000000000000000000DD
:1073B00000000000000000000000000000000000CD
:1073C00000000000000000000000000000000000BD
:1073D000000000000000000000000000000055AAAE
:1073E000D5530008916F000800020000D550000836
:1073F000916F000800000000D5500008916F000850
:107400000000000081500008E96D00080004000041
:107410000000000000000000000000280000000044
:10742000000000000000418EBB32000000000000A0
:10743000000000000000000000000001000000004B
:10744000764876480000DC837648000000000000A3
:107450000000000000000000010203040607080904
:107460000000004002024000000240000000000056
:10747000000000000000000000000000000000000C
:10748000311C000800000000552200080000000028
:1074900000000000000000000000000000000000EC
:1074A00000000000000000000000000000000000DC
:1074B00000000000000000000000000000000000CC
:1074C0000000000000000000000000001201100198
:1074D00000000040280D0402000101020301000029
:1074E00000000403090408034800590048001A0377
:1074F00045007800740042006F0061007200640073
:107500002D003000300031001A0330003000300010
:1075100031004100300030003000300030003000D9
:1075200030002A0345007800740042006F006100BB
:10753000720064002D003000300031002000550042
:10754000530042005F004D0053004300496E20612C
:1075500070706C69636174696F6E2070726F6772AE
:10756000616D6D696E6720736563746F72206572FB
:10757000617365206661696C65642E00496E2061E7
:1075800070706C69636174696F6E2070726F67727E
:10759000616D6D696E67206D6173732065726173D3
:1075A00065206661696C65642E000000496E20618B
:1075B00070706C69636174696F6E2070726F67724E
:1075C000616D6D696E6720777269746520666169A7
:1075D0006C65642E00000000496E206170706C695B
:1075E000636174696F6E2070726F6772616D6D692F
:1075F0006E6720696E697469616C697A6174696F1C
:107600006E206661696C65642E000000496E206121
:1076100070706C69636174696F6E2070726F6772ED
:10762000616D6D696E6720756E696E697420666143
:10763000696C65642E0000005468652068657820D8
:1076400066696C652063616E6E6F74206265207080
:10765000726F6772616D6D65642E204C6F67696330
:10766000206661696C757265206F636375727265FF
:10767000642E0000546865206865782066696C6532
:107680002063616E6E6F74206265206465636F6451
:1076900065642E20506172736572206C6F67696338
:1076A000206661696C757265206F636375727265BF
:1076B000642E0000546865206865782066696C65F2
:1076C0002063616E6E6F74206265206465636F6411
:1076D00065642E20436865636B73756D2063616C10
:1076E00063756C6174696F6E206661696C75726533
:1076F000206F636375727265642E000054686520A4
:107700006170706C69636174696F6E2066696C6525
:1077100020666F726D617420697320756E6B6E6F79
:10772000776E20616E642063616E6E6F7420626597
:107730002070617273656420616E642F6F722070B7
:10774000726F6365737365642E000000496E20617B
:1077500070706C69636174696F6E2070726F6772AC
:10776000616D6D696E67206E6F7420737570706FD8
:1077700072746564206F6E20746869732064657626
:107780006963652E00000000496E206170706C69AD
:10779000636174696F6E2070726F6772616D6D697D
:1077A0006E67206661696C656420626563617573EC
:1077B0006520746865207570646174652073656EFA
:1077C000742077617320696E636F6D706C6574658A
:1077D0002E000000546865207374617274696E67CE
:1077E000206164647265737320666F7220746865CB
:1077F00020696E746572666163652075706461747A
:10780000652069732077726F6E672E00546865205B
:107810007374617274696E672061646472657373F6
:1078200020666F722074686520626F6F746C6F6180
:107830006465722075706461746520697320777265
:107840006F6E672E0000000054686520626F6F74D1
:107850006C6F616465722043524320646964206EDA
:107860006F7420706173732E00000000496E2061F8
:1078700070706C69636174696F6E2070726F67728B
:10788000616D6D696E672061626F727465642064FA
:10789000756520746F20616E206F7574206F66208F
:1078A000626F756E647320616464726573732E0019
:1078B000546865206865782066696C65206F666627
:1078C000736574206C6F61642061646472657373A6
:1078D000206973206E6F7420636F72726563742EFB
:1078E00000000000546865206170706C6963617409
:1078F000696F6E20696D616765206973206E6F74B2
:1079000020636F6D70617469626C6520776974685B
:1079100020746865207461726765742E0000000031
:10792000546865207472616E736665722074696D47
:107930006564206F75742E0046696C652073656EF2
:1079400074206F7574206F66206F72646572206298
:10795000792050432E20546172676574206D6967E9
:107960006874206E6F742062652070726F67726138
:107970006D6D656420636F72726563746C792E003F
:10798000466C61736820616C676F726974686D2002
:10799000777269746520636F6D6D616E6420464116
:1079A000494C555245000000466C61736820616C7B
:1079B000676F726974686D20657261736520616CB0
:1079C0006C20636F6D6D616E64204641494C555269
:1079D00045000000466C61736820616C676F7269D6
:1079E00074686D20657261736520736563746F726E
:1079F00020636F6D6D616E64204641494C55524560
:107A000000000000466C61736820616C676F7269EA
:107A100074686D207772697465207665726966791D
:107A200020636F6D6D616E64204641494C5552452F
:107A300000000000546865206865782066696C6500
:107A400020796F752064726F707065642069736E41
:107A5000277420636F6D70617469626C652077694B
:107A600074682074686973206D6F6465206F72207C
:107A70006465766963652E2041726520796F752093
:107A8000696E204D41494E54454E414E4345206D4F
:107A90006F64653F205365652048454C5020464142
:107AA000512E48544D0000004661696C6564207495
:107AB0006F20696E697469616C697A6520746865A4
:107AC00020746172676574204D4355004661696C8E
:107AD000656420746F20756E696E697469616C6984
:107AE0007A652074686520746172676574204D43FF
:107AF000550000004661696C656420746F207265F2
:107B00007365742F68616C74207468652074617289
:107B1000676574204D43550050726F6772616D6DDB
:107B2000696E672061626F727465643A20696D6185
:107B3000676520776F756C64206C6F636B20746170
:107B400072676574204D4355000000004661696C02
:107B5000656420746F20646F776E6C6F616420665B
:107B60006C61736820616C676F726974686D2074F2
:107B70006F20746172676574204D435500000000EA
:107B8000456E64206F662073747265616D20686154
:107B900073206265656E20726561636865640000CC
:107BA0004661696C656420746F20646F776E6C6FDA
:107BB00061642074686520666C6173682064617418
:107BC0006120636F6E74656E747320746F206265DC
:107BD0002070726F6772616D6D656400506F7373B2
:107BE00069626C65206D69736D617463682062659C
:107BF000747765656E2066696C652073697A6520A7
:107C0000616E642073697A652070726F6772616D4E
:107C10006D656400416E20696E7465726E616C20E2
:107C20006572726F7220686173206F636375727220
:107C300065640000416E206572726F722068617326
:107C4000206F636375727265640000004661696C41
:107C5000656420746F20756E6C6F636B2074617245
:107C6000676574204D435520666F722070726F6790
:107C700072616D6D696E67004F7065726174696FD6
:107C80006E20776173207375636365737366756CBB
:107C900000000000466C61736820616C676F726958
:107CA00074686D206D697373696E6720666F7220EA
:107CB0006120726567696F6E00000000456E642088
:107CC0006F662073747265616D20697320756E6BC9
:107CD0006E6F776E00000000416E206572726F72E9
:107CE000206F6363757272656420647572696E6774
:107CF00020746865207472616E736665720000009E
:107D000000000000232048594820457874426F61E4
:107D100072642D303031204441504C696E6B0D0A35
:107D20004275696C642049443A20303066316538C8
:107D30003335202861726D63632C206C6F63616C36
:107D4000206D6F6473290D0A000000004120626FEE
:107D50006F746C6F61646572207570646174652006
:107D60007761732073746172746564206275742026
:107D7000756E61626C6520746F20636F6D706C65E9
:107D800074652E0D0A52656C6F61642074686520FD
:107D9000626F6F746C6F6164657220746F206669C6
:107DA000782074686973206572726F72206D6573D4
:107DB000736167652E0D0A00476974205348413A84
:107DC0002030306631653833353836656265323398
:107DD0003038306563613865316634366335323743
:107DE0003763356466356138640D0A4C6F63616CC6
:107DF000204D6F64733A20310D0A55534220496E6D
:107E000074657266616365733A204D53440D0A00D0
:107E10003C21646F63747970652068746D6C3E0DED
:107E20000A3C68746D6C3E0D0A3C686561643E0DE9
:107E30000A3C6D65746120636861727365743D22EC
:107E40007574662D38223E0D0A3C7469746C653E6B
:107E500048594820457874426F6172642D30303142
:107E6000204441504C696E6B3C2F7469746C653EC4
:107E70000D0A3C2F686561643E0D0A3C626F6479AF
:107E80003E0D0A3C7363726970743E0D0A77696E29
:107E9000646F772E6C6F636174696F6E2E7265709C
:107EA0006C616365282200004D53445F4F4E2020D3
:107EB000434647004D53445F4F46462043464700E4
:107EC0004F56464C5F4F4E20434647004155544F56
:107ED0005F4F4E2043464700434F4D505F4F4E206B
:107EE000434647004F56464C5F4F46464346470081
:107EF0004155544F5F4F464643464700434F4D5010
:107F00005F4F464643464700484152445F525354F0
:107F1000434647004155544F5F5253544346470030
:107F2000455241534520202041435400415353457D
:107F30005254202041435400524546524553482054
:107F400041435400504147455F4F4E204143540048
:107F5000504147455F4F464641435400696E746542
:107F60007266616365000000696E7465726E616CB3
:107F70000000000075736572000000007461726794
:107F8000657400007472616E7369656E7400000040
:107F90004D424544202020205646532020202020BA
:107FA0002020202020202020302E3100CC7F0008EF
:107FB000000000205C030000280100083480000855
:107FC0005C030020D44600008401000832011392B3
:107FD0006F2A08081112C022084A020C01BE1220A2
:107FE00004D5800120380801010206020208013A86
:107FF00004063F010106060604017A10010D1C0863
:1080000099969748011A1341391408954B1408554D
:108010006D14080F361B0853101A991013E16E1BCC
:1080200008131001912CE6DF0CCF9B907F9C12600F
:1080300002804000FFFFFFFFFFFFFFFFFFFFFFFF8A
:10804000FFFFFFFFFFFFFFFFFFFFFFFFFFFFFFFF40
:10805000FFFFFFFFFFFFFFFFFFFFFFFFFFFFFFFF30
:10806000FFFFFFFFFFFFFFFFFFFFFFFFFFFFFFFF20
:10807000FFFFFFFFFFFFFFFFFFFFFFFFFFFFFFFF10
:10BBF000FFFFFFFFFFFFFFFFFFFFFFFF1BDAF05E0E
:00000001FF
